:020000040800F2
:10000000B8090020A50100085B2D0008FF260008A4
:10001000592D0008230C00080936000800000000D4
:100020000000000000000000000000007130000827
:10003000BD0C000800000000112F0008C9310008A5
:10004000BF010008BF010008BF010008912F000890
:10005000BF010008BF010008BF010008BF01000880
:10006000BF010008BF010008BF010008BF01000870
:10007000BF010008250C0008BF010008BF010008EF
:10008000BF010008BF010008BF010008BF01000850
:10009000BF010008BF010008BF010008BF01000840
:1000A000BF010008BF010008BF010008BF01000830
:1000B000BF010008BF010008BF010008BF01000820
:1000C000BF010008BF010008BF010008BF01000810
:1000D000BF010008F1350008BF010008FD35000828
:1000E000BF010008BF010008BF01000800F002F8CE
:1000F00000F048F80AA090E8000C82448344AAF17A
:100100000107DA4501D100F03DF8AFF2090EBAE877
:100110000F0013F0010F18BFFB1A43F0010318473B
:10012000D0390000F0390000103A24BF78C878C1F7
:10013000FAD8520724BF30C830C144BF04680C60ED
:10014000704700000023002400250026103A28BF35
:1001500078C1FBD8520728BF30C148BF0B60704739
:10016000642900F05380002070471FB500F00EFB9B
:1001700004000020002103F023FB401C60601FBD31
:1001800010B510BD00F0CEFC1146FFF7EEFF03F0F6
:100190009BFA00F0F5FC03B4FFF7F2FF03BC00F09C
:1001A00039FD00000948804709480047FEE7FEE79F
:1001B000FEE7FEE7FEE7FEE7FEE7FEE7FEE7FEE717
:1001C00004480549054A064B704700004D320008B7
:1001D000ED000008B8030020B8090020B805002091
:1001E000B80500200FB41CB5074B06AA7B4469462E
:1001F0000090059800F06DFA0020694600F07CFA46
:100200001CBC5DF814FB0000090500002DE9F0415D
:100210000646002410687529314616A510D0AFF3A4
:100220000080002802DA404213A507E031688A07FF
:1002300001D512A502E0490704D511A5012401E06A
:10024000AFF3008000210A2206F1240709E0B0FB89
:10025000F2FCB0FBF2F302FB1C003030785418467D
:10026000491C0028F3D123462A463046BDE8F04118
:1002700000F0D1B9000000002D0000002B000000AC
:10028000200000002DE9F0474FF0000A894604469F
:10029000C0F820A02046E1688847002876D02528AD
:1002A00006D0D4E901219047206A401C2062F1E782
:1002B000E168204600258847C4F81CA006460027B0
:1002C000C4F818A02A2E09D0304603F0F5F938B347
:1002D00004EB8708303EC8F8186019E059F8041B91
:1002E000204604EB87029161E1688847012F0646AA
:1002F00018D1E069002820DA25F020051DE0D8F8A3
:10030000180000EB800006EB40003038C8F81800F9
:100310002046E1688847064603F0CEF90028EED172
:10032000012F0AD02E2E08D12046E16888477F1C75
:100330000646022F45F02005C4DBA069002803DA39
:10034000404245F00105A061E80701D025F0100505
:10035000B6B1A6F14100192802D8203645F400654F
:100360004A463146204625604D46FFF7F9FE58B112
:10037000012806D0ED1D25F0070000F1080989E7E6
:1003800004E005F1040985E730468AE7206ABDE804
:10039000F08700000FB400B58DB010A9099000914E
:1003A0000B904FF0FF300A9000200C9006487844E4
:1003B0000690064878446A4607900F9909A800F00D
:1003C000B5F90DB05DF814FB9B030000B30300000A
:1003D0002DE9FF5F1D464FF0FF3B91464FF00008AF
:1003E0005F46D5E90146A96901987F1C8847296ABB
:1003F000824688470028F6D1BAF1FF3F0CD0002E84
:1004000024F4C06419DD600614D5BAF12B0F09D0AD
:10041000BAF12D0F0ED103E0584604B0BDE8F09FAD
:1004200044F48064A96901987F1C8847761E82463F
:10043000002E02DDBAF1300F03D0B9F1000F26D043
:1004400032E0A969761E01987F1C44F40074884745
:10045000002E824605DDBAF1780F06D0BAF1580FAA
:1004600003D0B9F1000F10D01EE0B9F1000F02D097
:10047000B9F1100F18D1A969761E01987F1C24F4D8
:10048000007488478246102002E0082000E00A201D
:10049000814609E0A96908FB0908761E01987F1CBE
:1004A00044F4007488478246002E05DD49465046D4
:1004B00000F027F90028EDDAE96901988847A005DE
:1004C00002D46FF00100A8E7E00725D1600613D53C
:1004D000600502D5C8F1000000E0404629680A1D09
:1004E0002A600968220501D5087015E0220701D5A8
:1004F000088011E008600FE02868011D296000688D
:10050000210502D580F8008006E0210702D5A0F879
:10051000008001E0C0F8008038467EE730B505462F
:100520000B462A4613F8014B12F8010B08B1A04202
:10053000F8D01CB1002802D06D1CF1E7284630BD70
:1005400010B5431C02E010F8011B71B18107FAD10C
:100550004FF0013202C88C1A8C4314EAC211F9D050
:10056000C01A0A0603D0C01E10BDC01A10BD0A046E
:1005700001D0801E10BD0902FCD0401E10BD4FF0FE
:1005800000020429C0F0128010F0030C00F01B8060
:10059000CCF1040CBCF1020F18BF00F8012BA8BF6E
:1005A00020F8022BA1EB0C0100F00DB85FEAC17C32
:1005B00024BF00F8012B00F8012B48BF00F8012BE5
:1005C00070474FF0000200B5134694469646203916
:1005D00022BFA0E80C50A0E80C50B1F12001BFF4FC
:1005E000F7AF090728BFA0E80C5048BF0CC05DF862
:1005F00004EB890028BF40F8042B08BF704748BFB0
:1006000020F8022B11F0804F18BF00F8012B704723
:100610007047704770472DE9F0470D46994692465E
:10062000044600F124080168880604D5E06921F039
:100630001001216000E00120A84201DD471B00E01D
:100640000027A1697A1902EB0900081AA061207835
:10065000C00602D42046AFF30080002608E0D4E9AB
:1006600001211AF806009047206A401C761C20627F
:100670004E45F4DB2078C0060AD52046AFF3008053
:1006800006E0D4E9012130209047206A401C206216
:10069000381EA7F10107F4DC07E0D4E9012118F8BE
:1006A00005009047206A401C2062281EA5F1010524
:1006B000F3DC2046AFF300802078000602D502204C
:1006C000BDE8F0870120FBE701694A1C0261087858
:1006D000704700B58FB0CDE9013100210591054982
:1006E0007944CDE9031011466846FFF7CBFD0FB002
:1006F00000BD0000E5FFFFFF0A6802F8010B0A6079
:1007000070473A2800D2303820F02002412A01D325
:10071000A2F13700884201D34FF0FF30704700004C
:10072000026811441378016018467047D16005498A
:1007300079445161044979441162002111611146E3
:1007400000F032B8EDFFFFFF5B000000426842B1ED
:10075000016811F8013B23B1521EC0E9001218468E
:1007600070470121C160881E704742685AB1C36852
:10077000016843B983688B4205D0491E521CC0E909
:100780000012002070474FF0FF307047004870475C
:100790007403002010B5044600F0EAF90068005D1B
:1007A00000F0010010BD00002DE9F34F4FF0000AEA
:1007B0000C4656468DB001200C9001F10C000B90B8
:1007C00062690B9801219047051E2DD0252D2CD054
:1007D000216A8847C0B162690B9801219047216A5C
:1007E00088470028F7D16269411E0B98904700E0C6
:1007F000761CA1690D988847216A88470028F7D19F
:10080000E1690D988847DBE7A1690D988847A84200
:10081000074601D1761CD3E7E1690D9888477F1C14
:1008200002D1BAF1000F6FD06BE162690B9800271B
:100830003D46394690472A2804D162690B98012128
:1008400090470125DFF8D08262690B98012190471B
:10085000A0F130010A290AD24745E5DC07EB870100
:1008600000EB4107303FDFD445F01005ECE7E90627
:1008700001D46FF000476C280AD04C2814D06828A7
:1008800015D06A280DD074281CD07A281AD01DE003
:1008900062690B98012190476C2802D045F004054D
:1008A00014E045F002050DE045F020050AE062691C
:1008B0000B9801219047682802D045F0080505E013
:1008C00045F4006562690B9801219047C4E901571E
:1008D00065283DD019DC58287AD00CDC452837D063
:1008E00004DC252826D041289ED131E046282FD08F
:1008F000472899D12CE05B2877D0612828D063283D
:100900007CD0642823D15AE0F6E06F2848D008DC78
:1009100066281DD067281BD0692821D06E2816D1E3
:1009200027E0702845D0732868D0752847D07828EC
:100930000DD14DE0A1690D988847252805463FF463
:1009400069AFE1690D9888476D1C3FF46AAFD8E044
:100950000D9923466A466FF00100AFF30080C5E0B1
:1009600045F0400023464FF000026060A80736D4EF
:100970003EE0E8077FF447AF2068011D2160006872
:10098000290501D506701BE7290701D5068017E761
:10099000A90703D5F117C0E9006111E706600FE769
:1009A00045F0400023464FF008026060A80716D4C7
:1009B0001EE040F60E0125EA0100606016E045F0F9
:1009C000400023464FF00A026060A80707D40FE0FA
:1009D00045F040006060A80708D5234610220D9915
:1009E0006FF00100AFF3008080E007E010222346A3
:1009F0000D996FF00100FFF7EBFC77E04FF0000975
:100A000063284F46C8464B46CB4602D05B2806D0EB
:100A100038E0E80601D40120A060012732E06269D5
:100A2000D4F80CB00B98012190475E2807D14FF005
:100A3000010949466269D4F80CB00B9890472169C6
:100A400039B900210A4603AB43F82120491C082983
:100A5000FADBD8B3216949B308F1010862690B9840
:100A6000012190475D28F4D1B9F1000F09D0002091
:100A700003A951F82020D24341F82020401C082827
:100A8000F7DB03AB2069002820794FEA40701ED0C5
:100A90005B462246CDF80080CDE901970D990028EC
:100AA0006FF0010020DAAFF300801FE0C11703AA46
:100AB00000EBD1614B1121F01F0102EB8302411ABF
:100AC00013680120884003431360C7E719E00D99BC
:100AD000224600286FF00100009702DAAFF3008091
:100AE00004E0AFF3008001E0AFF3008000280ADAF1
:100AF000401C06D10C9820B14FF0FF300FB0BDE87C
:100B0000F08F5046FAE7E90701D10AF1010A0644DD
:100B100000200C9054E60000CCCCCC0C0048704770
:100B2000540300207546FFF7F9FFAE4605006946FD
:100B3000534620F00700854618B020B5FFF740FB6C
:100B4000BDE820404FF000064FF000074FF00008CE
:100B50004FF0000B21F00701AC46ACE8C009ACE84F
:100B6000C009ACE8C009ACE8C0098D467047000078
:100B700010B5FFF70BFE001D10BD00BF452C000097
:100B800010B50446AFF300802046BDE81040FFF7E3
:100B900002BB00004FF0013C50F8042B51F8043B1D
:100BA0009A4221D1A2EB0C03934313EACC1317D141
:100BB00050F8042B51F8043B9A4215D1A2EB0C03D8
:100BC000934313EACC130BD150F8042B51F8043B98
:100BD0009A4209D1A2EB0C03934313EACC13DBD066
:100BE0004FF00000704700BFD01A01BAB1FA81F18E
:100BF00001F0180122FA01F0CB40C1F12001DBB273
:100C0000C0B2C01A2CFA01F3D11A914311EAC311F0
:100C1000E6D1704701491820ABBEFEE7260002006E
:100C20007047FEE7014800F011B9000010030020F2
:100C30001FB50020019003904FF400600090012048
:100C400002906946014800F0F9F91FBD0008014013
:100C500070B5002400F020F80E4E4FF4006500221D
:100C60002946304600F0DFFA4FF4F07000F0D8F972
:100C7000FFF7DEFF3C2000F0D3F92946304600F0B4
:100C8000CDFA00B901244FF4D27000F0C9F9204622
:100C900070BD0000000801401FB5002002904FF415
:100CA00000600090112001900320039069460248E3
:100CB00000F0C4F91FBD00000008014070470000AB
:100CC00010B54FF400710348FFF759FC02490020AA
:100CD000488010BD180000200000002010B54FF41F
:100CE00000710648FFF74BFC0549002001224880AF
:100CF000BDE81040034801F055BC0000180000207A
:100D000000000020C802002070B515460E460446BB
:100D1000FFF7D6FF2046FFF713FC82B2642321467B
:100D20000E4801F09BFC0A2302220DA10B4801F0A2
:100D300095FC00F07DFA044609E031460948FFF7CA
:100D4000EDFB08B1012070BD0A2000F057F900F05A
:100D50006FFA001BA842F0D3002070BDC80200202B
:100D60000D0A00001800002072B6FEE710B590F8DA
:100D700021100022022905D00421816380F820205F
:100D8000012010BD01680B6823F00E030B600168A1
:100D90000B6823F001030B6090F84030C46B012115
:100DA00001FA03F3636080F8211080F820201046D8
:100DB00010BD000010B590F821100024022903D0C6
:100DC0000421816301243DE001680A6822F00E02DB
:100DD0000A6001680A6822F001020A601A4A016882
:100DE000914201D1012121E0174A1432914201D1EF
:100DF00010211BE0144A2832914201D1891515E0D7
:100E0000114A3C32914201D189140FE00E4A50320E
:100E1000914202D14FF4803108E00B4A6432914292
:100E200002D14FF4801101E04FF08071064A083A78
:100E30005160012180F82110002180F82010416BC1
:100E400001B18847204610BD080002402DE9F05F3F
:100E5000C16B0C6801680B68D0F840C0042202FA2C
:100E60000CF2494DDFF824A1494E4A4FDFF828B172
:100E7000DFF828E122422CD05A072AD50A689206C8
:100E800003D40A6822F004020A600168A94201D171
:100E9000042219E0514501D1402215E0B14202D1AE
:100EA0004FF4806210E0B94202D14FF480420BE06F
:100EB000594502D14FF4802206E0714502D14FF42A
:100EC000800201E04FF080622F4908394A60C16A10
:100ED0003BE04FF0020808FA0CF818EA040F4FF054
:100EE00000094FF0010235D05FEA837832D50B68F4
:100EF0009B0605D40B6823F00A030B6080F82120C1
:100F00000168A94201D1022219E0514501D12022F4
:100F100015E0B14202D14FF4007210E0B94202D1A3
:100F20004FF400520BE0594502D14FF4003206E075
:100F3000714502D14FF4001201E04FF000721249E6
:100F400008394A6080F82090816A00291AD0BDE8EB
:100F5000F05F0847082505FA0CF5254212D01B075B
:100F600010D50B6823F00E030B6090F84010C36B94
:100F700002FA01F15960826380F8212080F8209004
:100F8000016BE2E7BDE8F09F080002401C00024050
:100F90003000024044000240580002406C00024011
:100FA00030B528B308C8134914221944B1FBF2F133
:100FB0008900C16310498163022141771A6843F6B1
:100FC000F0718A43D0E900142143D0E902452C4353
:100FD0002143046921434469214384692143114326
:100FE000196000214163012242770177084630BD34
:100FF000012030BDF8FFFDBF0000024070B504467F
:1010000000F016F90546601C02D00448007804443C
:1010100000F00EF9401BA042FAD370BD080000207A
:101020000449054A0968B1FBF2F14143491EFDD26A
:10103000704700001400002000093D002DE9F84F22
:10104000DFF8B8910024A9F1040B23460F2709F11A
:10105000040AABF1040EC9E00125A5402A40AA42CA
:101060007DD1674ED1F804C0ACEB0608B44532D050
:1010700014DCBCF1030F3AD009DCBCF1000F2AD01C
:10108000BCF1010F1CD0BCF1020F31D11DE0BCF14D
:10109000110F17D0BCF1120F2AD119E0B8F5881F33
:1010A00019D006DCB8F5803F15D0B8F5801F1FD1E8
:1010B00011E0B8F5001F0ED0B8F5041F18D10AE0F2
:1010C000CB6815E0CB681B1D12E0CB6808330FE03E
:1010D000CB680C330CE08B682BB1012B4FF008036D
:1010E00003D0456104E0042302E0056100E0002331
:1010F000FF2A01D8064601E000F104064FEA840504
:1011000001D9A5F12005D6F8008007FA05FC28EAE8
:101110000C0803FA05F548EA0508C6F800804D6892
:10112000ED0062D5374DAE6946F00106AE61AD699E
:1011300024F0030605F001050095334D06EB050C80
:10114000DCF80850A607360F07FA06F825EA080566
:10115000DFF8B880404503D14FF0000817E044E0C5
:10116000DFF8AC80404502D14FF001080FE0DFF816
:10117000A480404502D14FF0020808E0DFF89880D3
:10118000404502D14FF0030801E04FF0040808FA8F
:1011900006F848EA0508CCF808804D68D9F80060E0
:1011A000ED024D4601D5164300E096432E604D6892
:1011B000DAF80060AD02554601D5164300E09643CB
:1011C0002E604D68DBF80060AD035D4601D5164327
:1011D00000E096432E604D68DEF80060ED03754632
:1011E00001D5164300E096432E60641C0D682A4624
:1011F000E5407FF431AFBDE8F88F000008040140FE
:1012000000001110001002400000014000080140E1
:10121000000C0140001001400014014080680840AB
:1012200000D0012070470AB1016170470904FBE753
:1012300001488068704700000800002070B5040075
:1012400025D094F83D00002520B984F83C50204674
:1012500000F0E6F9242084F83D002068016821F0C0
:10126000010101602068016841F4004101602068CB
:10127000016821F40041016000F0FCFB4D4A616807
:10128000914201D84C4900E04C49884201D20120EA
:1012900070BD4B492368B0FBF1F15E6826F03F0654
:1012A0000E435E606368934206D94FF496735943C8
:1012B0004FF47A73B1FBF3F12368491C1E6A26F0E0
:1012C0003F06314319626168914210D84900401EBF
:1012D000B0FBF1F2521CC2F30B02042A01D204202B
:1012E00022E0B0FBF1F0401CC0F30B001CE0A26850
:1012F000F2B301EBC10303EB0116431EB3FBF6F39C
:101300005B1C43F480431B0549D092B301EBC1023F
:1013100002EB0111401EB0FBF1F0401CC0F30B00CA
:1013200040F4804040F400402168CA694CF6FF73E5
:101330009A431043C861D4E907100143206802684A
:1013400022F0C00211430160D4E903010143206887
:10135000826848F2FF339A4311438160D4E9050162
:1013600008432168CA6822F0FF021043C86001E008
:101370000EE016E02068016841F00101016025647B
:10138000202084F83D00256384F83E50002070BD85
:1013900001EB4106431EB3FBF6F35B1CB3E70120F0
:1013A000C2E701EB4101401EB0FBF1F0401CC0F36D
:1013B0000B00B7E7A086010080841E0000093D00F5
:1013C00040420F002DE9F84F1F4690468A460446DA
:1013D000DDF82890FFF72CFF054694F83D00202803
:1013E0007FD11923012240492046009501F06EFA71
:1013F000002876D194F83C00012872D0012084F8AE
:101400003C0020680168C90703D1016841F001016F
:1014100001602068016821F400610160212084F8E6
:101420003D00102084F83E0000262664C4F8248085
:101430006785608D20852D48E0622B464A465146DF
:10144000204601F075F990B92068416980690090E3
:1014500036E02A464946204601F0DEFA50B1206CBB
:10146000042804D12068016841F400710160012062
:10147000BDE8F88F606A216800780861606A401CE6
:101480006062618D491E6185218D491E89B2218569
:1014900022685369DB435B070BD451B100781061BC
:1014A000606A401C6062608D401E6085208D401E19
:1014B00020852A464946204601F0DCF90028CED195
:1014C000208D0028C5D154F83D0B016841F400710E
:1014D0000160202004F81E09E67766770020C7E740
:1014E000FFE70220C4E70000020010000000FFFF39
:1014F0002DE9FF4F83B09A46DDE9119793460446E4
:10150000DDF84080FFF794FE054694F83D00202862
:101510007FD11923012240492046009501F0D6F9D8
:10152000002876D194F83C00012872D0012084F87C
:101530003C0020680168C90703D1016841F001013E
:1015400001602068016821F400610160212084F8B5
:101550003D00402084F83E0000262664C4F8248024
:10156000A4F82A90608D20852C48E062CDE90075B2
:1015700053465A462046049901F028F970B930E0E4
:101580002A463946204601F047FA58B1206C042813
:1015900004D12068016841F400710160012007B0A6
:1015A000BDE8F08F606A216800780861606A401CBD
:1015B0006062218D491E89B22185628D521E62852D
:1015C00022685369DB435B070BD469B10078106173
:1015D000606A401C6062208D401E2085608D401E28
:1015E0006085208D0028CBD12A463946204601F05F
:1015F00041F90028CAD154F83D0B016841F400714B
:101600000160202004F81E09E67766770020C6E70F
:10161000FFE70220C3E70000020010000000FFFF08
:1016200010B586B0002100910191029103910068EC
:101630000F4988421AD10F4CA06940F00800A06100
:10164000A069694600F008000490C02000901220B4
:101650000190032003900848FFF7F0FCE06940F494
:101660000010E061E06900F40010049006B010BDC5
:101670000054004000100240000C01400248816804
:10168000027811448160704708000020074810B5B7
:10169000016841F010010160032000F075F80F208F
:1016A00000F006F800F024F8002010BD00200240F1
:1016B00070B50D4D04464FF47A712878B1FBF0F007
:1016C0000A490968B1FBF0F000F00FFD48B9102C91
:1016D00007D200222146501E00F036F800206C6030
:1016E00070BD012070BD0000080000201400002023
:1016F0000C4808B5816941F001018161816901F0FF
:1017000001010091C16941F08051C161C06900F0DF
:10171000805000900448416821F0E06141F0806110
:10172000416008BD0010024000000140002809DBB4
:1017300000F01F02012191404009800000F1E020EB
:10174000C0F8001170470000F0B40E4B1B680C4647
:10175000C3F30223C3F10705042D00D90425191D85
:10176000072901D2002300E0DB1E012606FA05F15D
:10177000491E214099409E40761E16403143F0BCE0
:1017800001F08ABF0CED00E0064900F0070208688E
:101790004FF6FF03184040EA0220034A1043086056
:1017A000704700000CED00E00000FA05014901203F
:1017B0000862704700000E4210B501460020234C1D
:1017C000012922D0022939D010291DD1616822684F
:1017D000D20119D51E48C1F38342C903805C0AD5E2
:1017E00061681B4AC1F34041921E515C194AB2FB29
:1017F000F1F1484301E0184948436168490203D4C4
:1018000040000321B0FBF1F010BD226AC2F30121B8
:10181000012903D1920701D5C80310BD022905D1C2
:10182000626A920702D549F6404010BD0329FCD1F7
:1018300021688903F9D54FF2244010BD00F02AF940
:101840006168C1F38131491C4900DBE700100240A7
:10185000403A000800127A0000093D002DE9F843E3
:1018600005460078354CC00754D0E0690026C0001A
:1018700008D4E06940F08050E061E069012600F0A2
:10188000805000902E480168C90512D40168804636
:1018900041F480710160FFF7CBFC074605E000BF13
:1018A000FFF7C6FCC01B642823D8D8F80000C00589
:1018B000F6D5206A10F4407021D0A98801F4407157
:1018C00081421CD0206A1F49012220F440700A6026
:1018D00000220A602062C00711D0FFF7A9FC07466A
:1018E00041F2883808E000BFFFF7A2FCC11B414568
:1018F00002D90320BDE8F883206A8007F4D5206A66
:10190000696820F44070084320621EB1E06920F04D
:101910008050E0612878800705D56068A96820F4C8
:101920004040084360602878C00605D56068E968D3
:1019300020F48000084360600020DBE700100240D4
:1019400000700040400442422DE9F0470F46050078
:1019500061D0434E306800F00700B84209D23068C9
:1019600020F0070038433060306800F00700B842CC
:1019700051D128683B4C810712D5400703D56068D8
:1019800040F4E06060602878000703D5606840F4A8
:10199000605060606068A96820F0F00008436060F3
:1019A0002878C00728D06868012810D0216802284C
:1019B00010D0890700292EDA616821F00301014364
:1019C0006160FFF735FC804641F288390DE02168FF
:1019D0008903EFE78901EDE7FFF72AFCA0EB080197
:1019E000494502D90320BDE8F0876068696800F0C6
:1019F0000C00B0EB810FEFD1306800F00700B84267
:101A00000BD9306820F0070038433060306800F0B0
:101A10000700B84201D00120E5E72878400705D546
:101A20006068E96820F4E060084360602878000797
:101A300006D56068296920F4605040EAC100606002
:101A400000F038F86168084AC1F30311515CC840DE
:101A50000649086006480068FFF72AFE0020C2E732
:101A60000020024000100240503A000814000020FC
:101A70000C0000200448054900684968044AC1F385
:101A80000221515CC8407047140000200010024041
:101A9000603A00080448054900684968044AC1F3EF
:101AA000C221515CC8407047140000200010024061
:101AB000603A00080E4A51680E4801F00C03042BEE
:101AC00011D0082B0FD10C48C1F38343C903C05C6C
:101AD0000AD55168084AC1F34041921E515C054A3B
:101AE0005043B0FBF1F07047044948437047000091
:101AF0000010024000127A002E3A000800093D0052
:101B00002DE9F84F040070D02078C04DC00749D0AF
:101B10006868C0F38100012807D06868C0F38100BD
:101B2000022809D16868C00306D52868800339D522
:101B300060680028E7D035E06068B0F5803F0BD0E2
:101B400010B1B0F5A02F11D0286820F480302860A3
:101B5000286820F4802002E0286840F48030286063
:101B6000606890B1FFF764FB06460AE0286840F41D
:101B700080202860F0E700BFFFF75AFB801B642835
:101B800073D828688003F7D50CE0FFF751FB0646B1
:101B900005E000BFFFF74CFB801B6428F0D82868E5
:101BA0008003F7D420789A4E80074FF001094FF058
:101BB000000839D5686810F00C0F07D06868C0F3CA
:101BC0008100022809D16868C00306D4286880070C
:101BD00014D52069012808D110E02069B0B1C6F8F9
:101BE0000090FFF725FB074605E00AE1FFF720FB21
:101BF000C01B0228C4D828688007F7D52868616907
:101C000020F0F80040EAC10028600DE0C6F800802E
:101C1000FFF70EFB074604E0FFF70AFBC01B022894
:101C200023D828688007F7D4207800072CD5794876
:101C3000A169D9B1C0F80090FFF7FAFA074604E0AD
:101C4000FFF7F6FAC01B02280FD8686A8007F7D59D
:101C500071484FF4FA510068B0FBF1F0009000BFFA
:101C60000098411E0091FAD20EE080E0C0F800809A
:101C7000FFF7DEFA074604E0FFF7DAFAC01B022896
:101C800075D8686A8007F7D42078400760D5E8697E
:101C90000027C00008D4E86940F08050E861E86996
:101CA000012700F0805000905C480168C90513D4FA
:101CB0000168834641F480710160FFF7B9FA8246FA
:101CC00006E000BFFFF7B4FAA0EB0A0064284ED884
:101CD000DBF80000C005F5D5E06801280AD008B19E
:101CE000052813D0286A20F001002862286A20F015
:101CF000040002E0286A40F001002862E06841F236
:101D0000883B98B1FFF794FA82460BE0286A40F0CE
:101D100004002862EEE700BFFFF78AFAA0EB0A0191
:101D200059455AD8286A8007F6D50CE0FFF780FAA3
:101D3000824605E0FFF77CFAA0EB0A0159454CD832
:101D4000286A8007F6D41FB1E86920F08050E86166
:101D5000E06988B36968C1F38101022944D002288F
:101D6000C6F8608004D0FFF763FA044638E034E038
:101D7000FFF75EFA074604E0FFF75AFAC01B022895
:101D80002BD828688001F7D4206AB0F5803F05D1B0
:101D90006868A16820F4003008436860D4E908014D
:101DA0000843696821F4741108436860C6F86090BC
:101DB000FFF73EFA044606E025E000BFFFF738FAD9
:101DC000001B022809D828688001F7D51BE000BF56
:101DD000FFF72EFA001B022802D90320BDE8F88F76
:101DE00028688001F4D40EE00128F7D06868226AE0
:101DF00000F48031914204D1616A00F4701088428D
:101E000001D00120EAE70020E8E7000000100240CE
:101E10000000424280044242140000200070004052
:101E20007047704710B5044600680168C90717D0AD
:101E30004168C90714D040684007204607D5FFF71E
:101E4000F0FF21686FF004004860042002E0FFF713
:101E5000E7FF012060742068416821F001014160C2
:101E600010BD000070B5040003D0607C002610B1E6
:101E700005E0012070BD2674204600F03DF80220E8
:101E80006074204600F014F9042550BB204601F090
:101E900049F830BB2068416821F007014160A06823
:101EA00020B11448016821F0010101601148001FB0
:101EB0000168A26821F46071114301606068411CEF
:101EC00004D10120FFF778FC58B1401E2268C0F30E
:101ED00003419160216880B2C860204601F03CF85F
:101EE00008B16574C5E7E67301206073A073607480
:101EF000002070BD306C004008B500680D49884274
:101F000017D1FFF753FC0C48C16941F00061C16172
:101F1000C0690A4900F000600090012008600022BA
:101F200011460320FFF710FCBDE808400320FFF72F
:101F3000FDBB08BD00280040001002403C044242A6
:101F40002DE9F0410D4604003BD0C5B3207C0128AB
:101F50003AD04FF0010884F8108002206074E878CD
:101F600072B300F0D6FFE073687800F0D2FF6073C0
:101F7000A87800F0CEFFA073C2B2617BE07B01F0D5
:101F800024F820732870204601F00FF84FF46161A7
:101F9000B0FBF1F1002518292DD91822B1FBF2F17F
:101FA000A1EB011101EB4101C1EB011100EBC116E5
:101FB0003146204601F048F80427C8B90BE000E09C
:101FC00004E00120BDE8F0810220FBE7E0736878BF
:101FD0006073A878CFE7204600F0E0FF411C0AD0EC
:101FE000B04208D206490144204601F019F810B168
:101FF00067742574E5E784F8118025740020E1E713
:10200000805101002DE9F0410D46040024D01DB39C
:10201000207C012823D04FF0010884F81080022092
:1020200060742878EAB100F074FF4FF4616100FB3E
:1020300001F6687800F06DFFC0EB001006EB80063B
:10204000A87800F066FF35182946204600F0FCFF0E
:102050000026042710BB0FE00120BDE8F08102201C
:10206000FBE74FF4616148436978C1EB011100EB74
:102070008100A9784518E7E72068416821F005014B
:102080004160204600F08AFF411C0AD0A84208D2D5
:1020900006490144204600F0C3FF10B1677426745E
:1020A000DAE784F8118026740020D6E78051010019
:1020B00070B504000AD02068416821F00801416031
:1020C000FFF7B6F805464FF47A7608E0012070BDB8
:1020D000FFF7AEF8401BB04201D9032070BD206865
:1020E00040680007F4D5002070BD10B5401EB0F167
:1020F000807F01D3012010BD4FF0E02460610F21EB
:10210000601701F0C9FA0020A061072020610020BB
:1021100010BD704770470000F8B5016804460868B4
:10212000CA684B6910F00F0F4FF0000559D003F04B
:10213000010602F49077374365D0C10705D0D10579
:1021400003D5616C41F001016164410705D5D907F0
:1021500003D0616C41F002016164810705D5D907A4
:1021600003D0616C41F004016164010707D502F0FE
:102170002001314303D0616C41F008016164616C5E
:1021800000293AD0800604D5900602D5204601F0F9
:102190001EF920684069616CC0F38010090700D403
:1021A00060B3204601F0ECF820684069400621D574
:1021B0002068143050E8001F21F0400140E8001270
:1021C000002AF5D1E06BA8B16D494163E06BFEF7E1
:1021D000F1FD002811D0E06B416B01B0BDE8F0408B
:1021E000084783060FD593060DD52046BDE8F84075
:1021F00001F0EDB82046FFF78DFFF8BD2046FFF750
:1022000089FF6564F8BD266B2023012E7CD1C606AC
:102210007AD5D60678D508684868009048694FF0A6
:102220000206400640D5E16B086840680004000CD7
:10223000E8D0A28D8242E5D9E085886920282DD09A
:1022400020680C3050E8001F21F4807140E8001233
:10225000002AF5D12068143050E8001F21F0010158
:1022600040E80012002AF5D12068143050E8001F21
:1022700021F0400140E80012002AF5D184F84230F4
:10228000256320680C3050E8001F21F0100140E861
:102290000012002AF5D1E06BFEF768FD6663A08DA1
:1022A000E18D401A81B22AE0A08DE18D401A81B201
:1022B000E08D0028A6D00029A4D022680C3252E874
:1022C000000F20F4907042E80007002FF5D120683D
:1022D000143050E8002F22F0010240E80027002FC0
:1022E000F5D184F84230256320680C3050E8002F87
:1022F00022F0100240E80023002BF5D1666320464F
:10230000FFF707FFF8BDFFE705062BD5150629D512
:1023100094F841002128F5D1A068B0F5805F01D183
:102320002069B0B1206A411C2162216800784860B0
:10233000E08C401E0004000CE084E3D12068C168FA
:1023400021F08001C1602068C16841F04001C16096
:10235000D8E7206A0088C0F308004860206A801C23
:102360002062E5E74006CDD55006CBD5CA682046A9
:1023700022F04002CA6084F8413000F0BFF9C1E7A2
:102380007133000870B5040004D094F841000025B2
:1023900010B106E0012070BD84F84050204600F0E6
:1023A00023F8242084F841002068C16821F40051FA
:1023B000C160204601F06CF82068016921F4904169
:1023C00001612068416921F02A0141612068C168EA
:1023D00041F40051C1606564202084F8410084F814
:1023E00042006563002070BDF0B585B00024009404
:1023F00001940294039406460368374F022037493C
:1024000003224502BB4226D18B6943F480438B6192
:102410008B6903F4804304938B6943F004038B615D
:1024200089692F4E01F0040104910102CDE90010E9
:10243000039269463046FEF701FECDE90054694635
:1024400030460294FEF7FAFD002211462520FFF7E0
:102450007BF925203BE0234FBB423AD1CB6943F4C3
:102460008023CB61CB6903F4802304938B6943F011
:1024700008038B61896901F00801CDE90321CDE9E9
:102480000050194D69462846FEF7D8FDE814CDE9FD
:102490000004694628460294FEF7D0FD144D134807
:1024A000C5E900048020C5E902402C616C61AC6183
:1024B0002846EC61FEF774FD08B1FEF755FCF563A4
:1024C0000022114627206E62FFF73EF92720FFF712
:1024D0002DF905B0F0BD00000038014000100240A9
:1024E0000008014000480040000C0140300002405C
:1024F000100300202DE9F84F044690F842009A4658
:1025000016460D46202802D00220BDE8F88FB5B14E
:10251000AEB100206064222184F842102063FEF7EF
:1025200087FEA6858146E685A0684FF4805820275F
:10253000404501D1206920B12E46002529E0012027
:10254000E3E7002625E04B46002220212046CDF877
:1025500000A001F014F818B184F842700320D4E709
:1025600026B1A06840451AD038B108E0206840681C
:10257000C0F3080025F8020B08E0206978B1206854
:10258000406800F07F0000BF06F8010BE08D401EA0
:10259000E085E08D0028D6D184F84270B5E7206848
:1025A0004068F1E790F84230202B01D002207047BC
:1025B00021B11AB10023036300F0C6BF01207047A8
:1025C00070B50068174988422BD117490024488804
:1025D000B0F5FF7F1DD8154B0A781A54401C48806F
:1025E00013A11846FDF79AFF154D164E18B101209C
:1025F0002870002206E014A10C48FDF78FFF48B1B7
:102600002C70012201213046FEF70DFEFEF758FB2B
:1026100000E04C80BDE87040012203490E48FFF7FE
:10262000C1BF70BD0048004000000020180000201D
:10263000226C65645F737769746368223A310000C5
:102640000400002000080140226C65645F73776914
:10265000746368223A300000C80200202DE9F84374
:10266000044690F84100984616460D46202802D0B0
:102670000220BDE8F88385B17EB10020606421208E
:1026800084F84100FEF7D4FDA6848146E684A06864
:102690002027B0F5805F02D003E00120E9E7206940
:1026A00010B12E4600250EE000260CE080212046C9
:1026B00000F065FFA8B9C6B116F8010B21684860A3
:1026C000E08C401EE084E08C4B464FF00002CDF8D9
:1026D00000800028EAD14FF04001204600F04FFF73
:1026E00040B184F841700320C3E735F8020BC0F312
:1026F0000800E3E784F841700020BAE77047FEE77E
:1027000001684A69D24352050FD46FF480624A616E
:10271000002140F8301F202242738173026942F089
:10272000040202610173012070470020704700001D
:10273000F8B50446C06A1E460D461746082807D05D
:10274000012805D010F5803F02D0206B122804D15B
:102750002068016841F480710160134600224FF047
:1027600001112046009600F0B1F840B120680068E1
:10277000C00502D54FF4007020640320F8BD206925
:10278000B0F5804F0ED00620216800EAD51040F049
:10279000F000086133463A460B49204600F0DEF867
:1027A00078B902E005F0FE0000E0E8B221680861B7
:1027B000054933463A46891F204600F0CFF80028E5
:1027C000DCD00120F8BD0000080001002DE9F8432D
:1027D000044600680D46DDE90897016898461646EC
:1027E00041F4807101604B4600224FF001112046F8
:1027F000009700F06BF848B120680068C00502D56A
:102800004FF4007020640320BDE8F883216805F0D0
:10281000FE0008613B464A461549204600F09EF8F6
:1028200088B920684169806900903A464946204647
:1028300000F0F2F848B1206C042804D12068016847
:1028400041F4007101600120DEE7F5B2B8F1010F3B
:1028500009D02168300A08613A464946204600F00E
:10286000DBF80028E7D1206805610020CCE70000F4
:102870000200010070B516460D4604461EE02046D3
:10288000FFF73EFF08B1012070BD681C16D0FEF7AF
:10289000CFFC801BA84200D885B920684069C0439E
:1028A00040070BD5002044F8300F20216173A0733E
:1028B000216941F0200121612073E4E7206840692B
:1028C000C0434007DBD4002070BD00002DE9F04775
:1028D000984617460D460446C1F30746DDF820909A
:1028E0002AE000BFB8F1FF3F26D0FEF7A1FCA0EB25
:1028F0000901414502D8B8F1000F1DD12068012E11
:1029000016D0806925EA00000004000C12D00020D7
:10291000B84211D1002044F8300F20216173A07318
:10292000216941F02001216120730120BDE8F08779
:102930004069E7E70120EBE72068012E0AD08069B3
:1029400025EA00000004000C06D00020B842C9D0DF
:102950000020EBE74069F3E70120F7E72DE9F047B6
:10296000984616460D4604464FF000094FF0200ADF
:10297000C1F3074723E020684069C043400515D4F0
:102980002068016841F40071016021686FF4806083
:102990004861C4F8309084F83DA084F83E90216CE2
:1029A00041F00401216484F83C9021E0701C06D0C1
:1029B000FEF73EFCA0EB0800B04203D816B1012F91
:1029C0001FD021E02068012F15D0806925EA000082
:1029D0000004000C18D000BF44F8309F84F80DA00C
:1029E00084F80E90216941F02001216184F80C9057
:1029F0000120BDE8F087406925EA00000004000CD2
:102A0000EAD12068406901E02068806925EA000079
:102A10000004000CAFD1ECE770B516460D46044635
:102A20001EE02046FFF76CFE08B1012070BD681C57
:102A300016D0FEF7FDFB801BA84200D885B92068A0
:102A40004069C04300060BD5002044F8300F202118
:102A50006173A073216941F0200121612073E4E7D3
:102A600020684069C0430006DBD4002070BD10B56B
:102A70004021092000F032F84FF4FA70FEF7BEFA58
:102A80000021022000F02AF80021032000F026F89F
:102A90000021042000F022F80021052000F01EF89B
:102AA0000021062000F01AF85021082000F016F846
:102AB0000321092000F012F827210A2000F00EF867
:102AC00032210C2000F00AF832210D2000F006F827
:102AD0000021BDE810401020AFF3008003B583B0A3
:102AE0006423012204A98DE80E0013460246AE219C
:102AF0000248FEF7FDFC05B000BD000018020020F2
:102B00002DE9FF410024012603AF8DF80C40642518
:102B10000097CDE9016533466B22D0210D48FEF7C1
:102B2000E7FC8DF80C400097CDE9016501231C22DC
:102B3000D0210848FEF7DCFC8DF80C400097CDE969
:102B4000016501231B22D0210248FEF7D1FCBDE81C
:102B5000FF81000018020020094808B5416941F0D2
:102B6000010141614069002200F00100009011461E
:102B70000D20FEF7E9FDBDE808400D20FEF7D6BDAB
:102B8000001002402DE9F04186B00024284800944E
:102B9000019402940394816941F01001816181697B
:102BA00001F010010491816941F020018161816986
:102BB00001F020010491816941F004018161816982
:102BC00001F004010491816941F00801816180698B
:102BD000DFF8608000F0080040F601050490012253
:102BE00029464046FEF71FFB134F012204213846B9
:102BF000FEF719FB0095022601250396CDE9015445
:102C000069464046FEF71AFA0420CDE90005CDE9F1
:102C1000024669463846FEF711FA4FF470408DE8D7
:102C2000310069464046FEF709FA06B0BDE8F0817A
:102C30000010024000080140000C01400D4810B592
:102C40000B4901600C49416000214FF480428160D2
:102C5000C0E9031241618161C1610162FEF7EEFAD0
:102C6000002803D0BDE81040FEF77EB810BD00007C
:102C70000054004018020020801A06001CB50024F1
:102C800018480194164900940160611E41604FF498
:102C900080718160FFF7E6F808B1FEF765F88DF8FE
:102CA00004408DF805408DF80640002201A90D482A
:102CB000FFF7A8F908B1FEF757F801208DF80000DA
:102CC0008DF801008DF802008DF80340002269465E
:102CD0000448FFF735F9002801D0FEF745F81CBD80
:102CE000002800406C0200200C4810B50A49016021
:102CF0004FF4E1314160002181600C22C160C0E9E4
:102D000004128161C161FFF73DFB002803D0BDE8DB
:102D10001040FEF729B810BD0038014080020020A5
:102D20000C4810B50A4901604FF4E13141600021BF
:102D300081600C22C160C0E904128161C161FFF7AA
:102D400021FB002803D0BDE81040FEF70DB810BDF0
:102D500000480040C8020020FEE7FEE770B50024EE
:102D600004F1B000C0B200F0AFF8002000F0ACF801
:102D7000102000F0A9F80025002000F0B7F86D1C25
:102D8000EDB2802DF8D3641CE4B2082CE8D370BDFA
:102D900010B56420FEF732F9AE2000F095F820203F
:102DA00000F092F8102000F08FF8B02000F08CF8BE
:102DB000C82000F089F8002000F086F8102000F00C
:102DC00083F8402000F080F8812000F07DF8FF209B
:102DD00000F07AF8A12000F077F8A62000F074F84F
:102DE000A82000F071F83F2000F06EF8A42000F059
:102DF0006BF8D32000F068F8002000F065F8D520CB
:102E000000F062F8F02000F05FF8D92000F05CF8E4
:102E1000222000F059F8DA2000F056F8122000F0D5
:102E200053F8DB2000F050F8202000F04DF88D2002
:102E300000F04AF8142000F047F8AF2000F044F802
:102E4000BDE81040FFF78ABF10B50446B031C8B2E4
:102E500000F03AF8102040EA141000F035F804F0C1
:102E60000F00BDE8104040F0010000F02DB8000058
:102E700070B5203AD5B2FFF7E7FF074905EB4500EB
:102E8000002401EB4005285D00F030F8641CE4B23A
:102E9000062CF8D370BD0000EC37000870B515465D
:102EA0000E4604460BE031462046FFF7E1FFA41D25
:102EB000E4B27A2C02D90024761CF6B26D1C2A7872
:102EC000002AF0D170BD00001CB500218DF804105F
:102ED0008DF8050064200090022301AA78210248A1
:102EE000FEF770FA1CBD0000180200201CB540213E
:102EF0008DF804108DF8050064200090022301AACB
:102F000078210248FEF75EFA1CBD0000180200207E
:102F10007047010901EB810100F00F0000EB410057
:102F2000C0B2704770B50446FEF782F905464FF40B
:102F30007A7606E0FEF77CF9401BB04201D9032007
:102F400070BD206840688006F4D52068416841F073
:102F500010014160002070BD70B5044600684168F2
:102F600021F010014160FEF763F905464FF47A76CF
:102F700007E000BFFEF75CF9401BB04201D9032017
:102F800070BD206840688006F4D5002070BD000048
:102F90000148FEF747BF00006C0200200168086A84
:102FA000496A89B241EA00407047006881698AB283
:102FB000C1698BB2816989B28A4203D0C06961F369
:102FC0001F40704743EA02407047F0B56424C1EBEC
:102FD000C1030927A500072603EB01130329B3FB4F
:102FE000F7F100F5FA60114401440AD2401EB0FB2B
:102FF000F4F201EB9001B0FBF5F0891A0844001DD2
:1030000008E0B0FBF4F201EB9001B0FBF5F0891A97
:103010000844801CB0FBF6F106FB1100C0B2F0BD05
:1030200070B50D4606460024FFF77CFF48B93168AD
:10303000280C08623168A8B248623046FFF78CFF5E
:1030400000B10124204670BD70B50D46064600242F
:10305000FFF768FF48B93168280C88613168A8B269
:10306000C8613046FFF778FF00B10124204670BDEB
:103070007047000070B592B041F2883232A133A09F
:10308000FDF742FE00285CD0394C2046FDF758FA87
:10309000024638A104A8FDF7A5F84FF4FA663246B7
:1030A00038A104A8FDF730FE7510002844D0FDF7C4
:1030B00007FE2046FDF744FA82B22B4621463248ED
:1030C000FFF7CCFA3046FDF799FF30A13348FDF702
:1030D00025FA88B311AC10AB0FAA0EA98DE81E001B
:1030E0000DAB0CAA2EA10D30FDF754F9062823D103
:1030F0000F988DF8040010988DF8050011988DF840
:1031000006002C486421006800900D988DF801009D
:103110000E988DF802000C9890FBF1F201FB120062
:103120008DF80300002201A92348FEF76BFF00225F
:1031300069462148FEF704FF2A4603A11FA0FDF7B8
:10314000E3FD12B070BD00004F4B000041542B4313
:10315000495053544152543D22544350222C226131
:1031600070692E6B3738302E636F6D222C3830002B
:10317000683A000841542B43495053454E443D257D
:10318000640000003E000000C80200206461746515
:1031900074696D655F31223A22000000180000203A
:1031A00025642D25642D25642025643A25643A255F
:1031B00064000000283A00086C02002041542B43B0
:1031C0004950434C4F534500FEF758BA70B594B080
:1031D00028216846FDF7F5F914210AA8FDF7F1F951
:1031E00000250F9509200124109500901195129546
:1031F0004FF4803004940694CDE901050226CDE910
:1032000007604FF4E01009906846FEF779FC08B1BA
:1032100072B6FEE70F20CDE90A064FF48060CDE9D3
:103220000C5002210AA80E95FEF78EFB08B172B66B
:10323000FEE74FF40070CDE90F400FA8FEF70EFB3C
:10324000002801D072B6FEE714B070BD70470000D0
:1032500010B513A204210020FFF720FE4FF47A746A
:10326000224614A114A0FDF74FFD41F2883211A1AE
:1032700021A0FDF749FD58B122460EA129A0FDF776
:1032800043FD31A206210020FFF708FE012010BDFA
:1032900032A206210020FFF701FE002010BD000031
:1032A000436C6F756420436F6E6E6563742E2E2EB3
:1032B000000000004F4B000041542B4D5154545519
:1032C0005345524346473D302C312C2261763378AA
:1032D00077376564222C22617633787737656422EC
:1032E0002C22724E74454A6D71776956222C302C0F
:1032F000302C22220000000041542B4D51545443E5
:103300004F4E4E3D302C226D7174742E7468696E70
:103310006773636C6F75642E636E222C313838339B
:103320002C31000041542B4D5154545355423D30E3
:103330002C22617474726962757465732F70757371
:1033400068222C3100000000436C6F75643A204FF6
:103350004B2120202020202000000000436C6F75AE
:10336000643A204661696C20202020200000000083
:1033700010B5406A0021C185C184FEF7CBFE10BDA7
:1033800001680C3151E8002F22F4907241E80023CB
:10339000002BF5D10168143151E8002F22F0010211
:1033A00041E80023002BF5D1016B012909D1016807
:1033B0000C3151E8002F22F0100241E80023002BCD
:1033C000F5D1202180F8421000210163704708B533
:1033D00090F84210222901D0022008BD82684FF4E3
:1033E00080539A4201D1016921B1816A9A421BD06E
:1033F0004AB10AE00268816A5268C2F308020A8090
:10340000816A891C08E0026972B10268526802F0A0
:103410007F020A70816A491C8162C18D491E0904BC
:10342000090CC18503D01BE002685268F1E701680E
:10343000CA6822F02002CA600168CA6822F4807259
:10344000CA6001684A6922F001024A61202180F8BD
:10345000421000214163026B012A03D0FFF7B0F84C
:10346000002008BD016301680C3151E8002F22F0F3
:10347000100241E80023002BF5D101680A68D2064A
:1034800002D50A6849680091818DFEF742FEE7E7A0
:1034900070B5044600680169E26821F440511143A7
:1034A00001612169A0680843616908432168CA680D
:1034B00041F20C639A430243CA6020684169A269E1
:1034C00021F44071114341611E492068884202D1B4
:1034D000FEF7E0FA01E0FEF7CDFA00EBC00101EBE8
:1034E0000012606864218000B2FBF0F3B3FBF1F3DB
:1034F0006FF018067343B2FBF0F5B2FBF0F605EB84
:103500008305322303EB0515B5FBF1F5B6FBF1F6A8
:1035100005F0F00505EB0615B2FBF0F6B2FBF0F096
:10352000B0FBF1F06FF01802504306EB800003EBA4
:103530000010B0FBF1F0216800F00F002844886013
:1035400070BD00000038014081628285C285002183
:103550004164222180F84210016921B10168CA68E2
:1035600042F48072CA6001684A6942F001024A610D
:103570000068C16841F02001C160002070472DE95A
:10358000F843984617460D460446089E24E0701CF2
:1035900022D0FDF74DFEA0EB0800B0421AD8CEB104
:1035A0002068C168490717D5802D15D0402D13D04C
:1035B0000168C94309070FD40168002540680090DD
:1035C0002046FFF7DDFE0820606484F840500120AB
:1035D000BDE8F8830320FBE72068006835EA0000B7
:1035E00004D00020B842D2D00020F1E70120F9E752
:1035F0000148FEF791BD0000800200200148FEF75F
:103600008BBD0000C8020020FEE7000010B5FFF7E8
:10361000A5FB00210CA20846FFF740FC4FF47A728C
:103620000DA10EA0FDF770FB42F210720AA10EA0D0
:10363000FDF76AFB002805D012A202210020FFF747
:103640002DFC012010BD0000436F6E6E6563746930
:103650006E672057694669004F4B000041542B4369
:10366000574D4F44453D310041542B43574A41503B
:103670003D2273656C66222C223131323233333471
:1036800035220000576946693A204F4B21202020FF
:1036900020202020000000000907090E002804DB7C
:1036A00000F1E02080F80014704700F00F0000F1F6
:1036B000E02080F8141D704730380A2801D201201C
:1036C000704700207047000008B5FDF7DFFFFFF7E7
:1036D0007DFDFFF757FAFFF7B1FAFFF73DFAFFF765
:1036E000CDFAFFF71DFBFFF7FFFAFFF751FB0021B3
:1036F00023A20846FFF7D2FBFDF7F0FA40F6B830F8
:10370000FDF77CFCFDF7A4FAFFF728FBFFF7F8F9BB
:10371000FFF7ADF9FFF77AFF78B1FFF7ABFC4FF495
:103720007A70FDF76BFCFFF793FD58B96423122202
:1037300017A11C48FEF792FF04E01BA20221002003
:10374000FFF7ACFBFFF70AFB0023012269461B4889
:10375000FEF7D0FE28B90023012269461148FEF782
:103760007DFF0023012269460E48FEF7C3FE0028B4
:10377000EAD10023012269461048FEF76FFFE3E714
:10378000496E697469616C697A696E672E2E2E00C4
:103790004D51545420496E6974204661696C6564CA
:1037A0000D0A0000800200205769466920436F6EB1
:1037B0006E656374204661696C000000C8020020D9
:1037C00010B500290AD00878002807D005487844A9
:1037D000FDF7E0F9002801D0002010BD0248784430
:1037E00010BD0000420300003A030000000000008A
:1037F000000000005F000000000700070000147FC9
:10380000147F1400242A7F2A120023130864620004
:10381000364955225000000503000000001C2241DB
:1038200000000041221C000014083E081400080893
:103830003E08080000503000000008080808080092
:103840000060600000002010080402003E5149455D
:103850003E0000427F400000426151494600214144
:10386000454B31001814127F10002745454539009B
:103870003C4A49493000017109050300364949496C
:103880003600064949291E00003636000000005661
:10389000360000000814224100001414141414000F
:1038A0004122140800000201510906003249794101
:1038B0003E007E1111117E007F49494936003E418C
:1038C000414122007F4141221C007F49494941007A
:1038D0007F09090901003E4149497A007F0808082B
:1038E0007F0000417F4100002040413F01007F08F0
:1038F000142241007F40404040007F0204027F00CC
:103900007F0408107F003E4141413E007F090909C4
:1039100006003E4151215E007F09192946004649B3
:103920004949310001017F0101003F4040403F0013
:103930001F2040201F007F2018207F0063140814E0
:103940006300030478040300615149454300007F8C
:10395000414100000204081020000041417F0000A6
:1039600004027F0204004040404040000001020485
:1039700000002054545478007F48444438003844B0
:1039800044442000384444487F00385454541800BC
:10399000087E09010200081454543C007F08040406
:1039A000780000447D4000002040443D00007F102E
:1039B0002844000000417F4000007C0418047C0083
:1039C0007C08040478003844444438007C141414FF
:1039D0000800081414187C007C08040408004854EB
:1039E00054542000043F444020003C4040207C00D0
:1039F0001C2040201C003C4030403C004428102843
:103A000044000648502816004464544C4400000802
:103A10003641000000007F00000000413608000031
:103A20001008081008000000010000000102020355
:103A30000405060708090A0B0C0D0E0F10100102F1
:103A400002030405060708090A0B0C0D0E0F1010DF
:103A5000000000000000000001020304060708093E
:103A60000000000001020304474554202F3F61700D
:103A7000703D6C6966652E74696D65266170706B4A
:103A800065793D3738323534267369676E3D343099
:103A9000303161303439663631376339333334305D
:103AA000656234616632376163356131353326666C
:103AB0006F726D61743D6A736F6E20485454502F5D
:103AC000312E310D0A486F73743A206170692E6B84
:103AD0003738302E636F6D0D0A436F6E6E656374F9
:103AE000696F6E3A20636C6F73650D0A0D0A0000F2
:103AF000203C0008000000201800000028010008F9
:103B0000383C000818000020A0090000440100080B
:103B10001001000043000000F8FFFFFF004040409C
:103B20004040404040404141414141404040404090
:103B3000404040404040404040404040400502023C
:103B400002020202020202020202020202202020FB
:103B50002020202020202002020202020202909057
:103B60009090909010101010101010101010101055
:103B700010101010101010100202020202028888A9
:103B800088888888080808080808080808080808B5
:103B9000080808080808080802020202400000009D
:103BA0000000000000000000000000000000000015
:103BB0000000000000000000000000000000000005
:103BC00000000000000000000000000000000000F5
:103BD00000000000000000000000000000000000E5
:103BE00000000000000000000000000000000000D5
:103BF00000000000000000000000000000000000C5
:103C000000000000000000000000000000000000B4
:103C100000000000000000000000000000000000A4
:103C20000000000000000000010000001000000083
:083C30000000000000127A0000
:04000005080000ED02
:00000001FF
