:020000040800F2
:10000000100A0020A90100088F350008532D0008B0
:100010008D3500081B0D0008A93E000800000000F7
:10002000000000000000000000000000AD390008E2
:10003000A50F00080000000089370008893B000870
:10004000C3010008C3010008C3010008CD3800083F
:10005000C3010008C3010008C3010008C301000870
:10006000C3010008C3010008C3010008C301000860
:10007000C30100080D0E0008C3010008C3010008F9
:10008000C3010008C3010008C3010008C301000840
:10009000C3010008C3010008C3010008C301000830
:1000A000C3010008C3010008C3010008C301000820
:1000B000C3010008C3010008C3010008C301000810
:1000C000C3010008C3010008C3010008C301000800
:1000D000C3010008913E0008C30100089D3E0008CE
:1000E000C3010008C3010008C301000800F002F8C2
:1000F00000F04BF80AA090E8000C82448344AAF177
:100100000107DA4501D100F040F8AFF2090EBAE874
:100110000F0013F0010F18BFFB1A43F0010318473B
:10012000E451000004520000103A24BF78C878C19E
:10013000FAD8520724BF30C830C144BF04680C60ED
:10014000704700000023002400250026103A28BF35
:1001500078C1FBD8520728BF30C148BF0B60704739
:10016000642900F0A580732900F0438300207047C4
:100170001FB500F087FB04000020002104F0BAF84E
:10018000401C60601FBD10B510BD00F047FD11465A
:10019000FFF7EEFF03F0F2FE00F06EFD03B4FFF791
:1001A000F2FF03BC00F0B2FD094880470948004750
:1001B000FEE7FEE7FEE7FEE7FEE7FEE7FEE7FEE717
:1001C000FEE7FEE704480549054A064B7047000074
:1001D0000D3C0008ED00000810040020100A00206B
:1001E00010060020100600200FB41CB5074B06AA0D
:1001F0007B4469460090059800F0D1FA00206946DA
:1002000000F0E0FA1CBC5DF814FB0000D105000012
:1002100070B5044685690068C10601D5302600E046
:100220002026C00707D070BDD4E901213046904791
:10023000206A401C20626D1EF6D570BD70B5044664
:1002400085690078C00707D170BDD4E9012120205D
:100250009047206A401C20626D1EF6D570BD70B5B7
:100260000C460546012A05D02878800600D5EA69A3
:10027000002302E0012305E05B1C934202D2E05C14
:100280000028F9D1A869E618C01AA861286A18449C
:1002900028622846FFF7BCFF04E0D5E9012114F8E5
:1002A000010B9047B442F8D32846FFF7C7FF70BD53
:1002B0002DE9F0410646002410687529314616A53F
:1002C00010D0AFF30080002802DA404213A507E007
:1002D00031688A0701D512A502E0490704D511A5A6
:1002E000012401E0AFF3008000210A2206F1240777
:1002F00009E0B0FBF2FCB0FBF2F302FB1C00303073
:1003000078541846491C0028F3D123462A46304623
:10031000BDE8F04100F0E5B9000000002D0000004C
:100320002B000000200000002DE9F05F8946044604
:100330004FF0000ADFF824B1FB44C0F820A02046AB
:10034000E168884700287DD0252806D0D4E901211E
:100350009047206A401C2062F1E700255F46204656
:10036000E16888472028064607DB312E05D2B819F8
:1003700010F8200C08B10543F1E7A80701D525F0D6
:100380000405C4F81CA00027C4F818A02A2E09D020
:10039000304603F0EBFD38B304EB8708303EC8F875
:1003A000186019E059F8041B204604EB870291619C
:1003B000E1688847012F064618D1E069002820DA55
:1003C00025F020051DE0D8F8180000EB800006EBB2
:1003D00040003038C8F818002046E16888470646D3
:1003E00003F0C4FD0028EED1012F0AD02E2E08D133
:1003F0002046E16888477F1C0646022F45F020050D
:10040000C4DBA069002803DA404245F00105A06181
:10041000E80701D025F01005A6B1A6F14100192882
:1004200002D8203645F400654A463146204625600C
:100430004D46FFF795FE60B1012807D0ED1D25F070
:10044000070000E007E000F1080978E705F104097A
:1004500075E730467AE7206ABDE8F09F2C4F000030
:100460000FB400B58DB010A9099000910B904FF01A
:10047000FF300A9000200C90064878440690064809
:1004800078446A4607900F9909A800F0CBF90DB09F
:100490005DF814FBC7030000DF0300002DE9FF5FD8
:1004A0001D464FF0FF3B91464FF000085F46D5E9EF
:1004B0000146A96901987F1C8847296A82468847B6
:1004C0000028F6D1BAF1FF3F0CD0002E24F4C0640E
:1004D00019DD600614D5BAF12B0F09D0BAF12D0F32
:1004E0000ED103E0584604B0BDE8F09F44F48064A8
:1004F000A96901987F1C8847761E8246002E02DD7E
:10050000BAF1300F03D0B9F1000F26D032E0A9695B
:10051000761E01987F1C44F400748847002E8246A2
:1005200005DDBAF1780F06D0BAF1580F03D0B9F152
:10053000000F10D01EE0B9F1000F02D0B9F1100F7A
:1005400018D1A969761E01987F1C24F4007488478D
:100550008246102002E0082000E00A20814609E0DF
:10056000A96908FB0908761E01987F1C44F40074F1
:1005700088478246002E05DD4946504600F03DF989
:100580000028EDDAE96901988847A00502D46FF0E8
:100590000100A8E7E00725D1600613D5600502D564
:1005A000C8F1000000E0404629680A1D2A60096879
:1005B000220501D5087015E0220701D5088011E059
:1005C00008600FE02868011D29600068210502D538
:1005D00080F8008006E0210702D5A0F8008001E045
:1005E000C0F8008038467EE730B505460B462A46FF
:1005F00013F8014B12F8010B08B1A042F8D01CB15E
:10060000002802D06D1CF1E7284630BD10B5431C10
:1006100002E010F8011B71B18107FAD14FF00132ED
:1006200002C88C1A8C4314EAC211F9D0C01A0A0607
:1006300003D0C01E10BDC01A10BD0A0401D0801E18
:1006400010BD0902FCD0401E10BD4FF0000204296D
:10065000C0F0128010F0030C00F01B80CCF1040CF1
:10066000BCF1020F18BF00F8012BA8BF20F8022B25
:10067000A1EB0C0100F00DB85FEAC17C24BF00F8CB
:10068000012B00F8012B48BF00F8012B70474FF0F9
:10069000000200B5134694469646203922BFA0E8D2
:1006A0000C50A0E80C50B1F12001BFF4F7AF0907DE
:1006B00028BFA0E80C5048BF0CC05DF804EB8900CF
:1006C00028BF40F8042B08BF704748BF20F8022B12
:1006D00011F0804F18BF00F8012B7047704770472A
:1006E00070472DE9F0470D4699469246044600F1C1
:1006F00024080168880604D5E06921F01001216012
:1007000000E00120A84201DD471B00E00027A169AD
:100710007A1902EB0900081AA0612078C00602D4F9
:100720002046FFF775FD002608E0D4E901211AF8FC
:1007300006009047206A401C761C20624E45F4DB80
:100740002078C0060AD52046FFF762FD06E0D4E90E
:10075000012130209047206A401C2062381EA7F1FA
:100760000107F4DC07E0D4E9012118F805009047FF
:10077000206A401C2062281EA5F10105F3DC2046FA
:10078000FFF75CFD2078000602D50220BDE8F08767
:100790000120FBE701694A1C02610878704700B537
:1007A0008FB0CDE901310021059105497944CDE9AA
:1007B000031011466846FFF7B7FD0FB000BD0000FB
:1007C000E5FFFFFF0A6802F8010B0A60704710B5E9
:1007D000436913B1AFF3008001E0FFF740FD012052
:1007E00010BD127800F124010A7000224A70012223
:1007F000EDE711684FF0FF32E9E73A2800D23038D0
:1008000020F02002412A01D3A2F13700884201D30F
:100810004FF0FF3070470000026811441378016008
:1008200018467047D16005497944516104497944BB
:10083000116200211161114600F032B8EDFFFFFF97
:100840005B000000426842B1016811F8013B23B12E
:10085000521EC0E90012184670470121C160881E6F
:10086000704742685AB1C368016843B983688B42D4
:1008700005D0491E521CC0E90012002070474FF0FD
:10088000FF30704700487047CC03002010B5044685
:1008900000F0EAF90068005D00F0010010BD000002
:1008A0002DE9F34F4FF0000A0C4656468DB001205B
:1008B0000C9001F10C000B9062690B98012190479C
:1008C000051E2DD0252D2CD0216A8847C0B1626924
:1008D0000B9801219047216A88470028F7D1626967
:1008E000411E0B98904700E0761CA1690D9888473F
:1008F000216A88470028F7D1E1690D988847DBE72E
:10090000A1690D988847A842074601D1761CD3E714
:10091000E1690D9888477F1C02D1BAF1000F6FD0B2
:100920006BE162690B9800273D46394690472A28BB
:1009300004D162690B98012190470125DFF8D0822C
:1009400062690B9801219047A0F130010A290AD26F
:100950004745E5DC07EB870100EB4107303FDFD47B
:1009600045F01005ECE7E90601D46FF000476C286C
:100970000AD04C2814D0682815D06A280DD07428C5
:100980001CD07A281AD01DE062690B98012190478B
:100990006C2802D045F0040514E045F002050DE096
:1009A00045F020050AE062690B980121904768280C
:1009B00002D045F0080505E045F4006562690B9832
:1009C00001219047C4E9015765283DD019DC58281A
:1009D0007AD00CDC452837D004DC252826D04128E5
:1009E0009ED131E046282FD0472899D12CE05B28B2
:1009F00077D0612828D063287CD0642823D15AE09E
:100A0000F6E06F2848D008DC66281DD067281BD088
:100A1000692821D06E2816D127E0702845D0732888
:100A200068D0752847D078280DD14DE0A1690D9880
:100A30008847252805463FF469AFE1690D98884746
:100A40006D1C3FF46AAFD8E00D9923466A466FF0FB
:100A50000100AFF30080C5E045F0400023464FF0B1
:100A600000026060A80736D43EE0E8077FF447AF95
:100A70002068011D21600068290501D506701BE76B
:100A8000290701D5068017E7A90703D5F117C0E9A3
:100A9000006111E706600FE745F0400023464FF084
:100AA00008026060A80716D41EE040F60E0125EA91
:100AB0000100606016E045F0400023464FF00A0256
:100AC0006060A80707D40FE045F040006060A80709
:100AD00008D5234610220D996FF00100AFF3008076
:100AE00080E007E0102223460D996FF00100FFF728
:100AF000D5FC77E04FF0000963284F46C8464B46C7
:100B0000CB4602D05B2806D038E0E80601D40120AD
:100B1000A060012732E06269D4F80CB00B98012183
:100B200090475E2807D14FF0010949466269D4F821
:100B30000CB00B989047216939B900210A4603ABE4
:100B400043F82120491C0829FADBD8B3216949B3AD
:100B500008F1010862690B98012190475D28F4D1E2
:100B6000B9F1000F09D0002003A951F82020D24389
:100B700041F82020401C0828F7DB03AB206900283F
:100B800020794FEA40701ED05B462246CDF80080A7
:100B9000CDE901970D9900286FF0010020DAAFF33D
:100BA00000801FE0C11703AA00EBD1614B1121F0B7
:100BB0001F0102EB8302411A13680120884003439E
:100BC0001360C7E719E00D99224600286FF0010075
:100BD000009702DAAFF3008004E0AFF3008001E099
:100BE000AFF3008000280ADA401C06D10C9820B12F
:100BF0004FF0FF300FB0BDE8F08F5046FAE7E9073D
:100C000001D10AF1010A064400200C9054E60000CC
:100C1000CCCCCC0C00487047AC0300207546FFF7E5
:100C2000F9FFAE4605006946534620F007008546A9
:100C300018B020B5FFF7C6FABDE820404FF0000617
:100C40004FF000074FF000084FF0000B21F00701B4
:100C5000AC46ACE8C009ACE8C009ACE8C009ACE8F7
:100C6000C0098D467047000010B5FFF70BFE001D50
:100C700010BD00BF8136000010B50446AFF3008000
:100C80002046BDE81040FFF789BA00004FF0013C54
:100C900050F8042B51F8043B9A4221D1A2EB0C03EB
:100CA000934313EACC1317D150F8042B51F8043BAB
:100CB0009A4215D1A2EB0C03934313EACC130BD148
:100CC00050F8042B51F8043B9A4209D1A2EB0C03D3
:100CD000934313EACC13DBD04FF00000704700BF02
:100CE000D01A01BAB1FA81F101F0180122FA01F02B
:100CF000CB40C1F12001DBB2C0B2C01A2CFA01F323
:100D0000D11A914311EAC311E6D170470149182065
:100D1000ABBEFEE7260002007047FEE72DE9F04774
:100D2000304C814688460846A66A03F093FF054684
:100D3000B6F17E5F00DAA562284603F0E1FD2A4A9B
:100D40002A4B03F0F5FB06460F46A06A03F0D8FDD8
:100D5000274A284B03F0ECFB32463B4603F012FBDC
:100D600003F0DEFAA06203F0CBFD234A234B03F02D
:100D7000DFFB03F0AFFB404516D200F0F5FB616AE4
:100D8000401AB0F5E17F0FD900F0EEFB616A401A1E
:100D900040F2DC51884204D24EF66021B1FBF0F003
:100DA000207000F0E1FB6062484603F053FF2946E3
:100DB00003F03AFE6FF07C51114A014491420FD288
:100DC000104903F05BFF104904F024F803F00AFF18
:100DD000C0B26070642801D964206070BDE8F087FB
:100DE0006220FAE7040000207B14AE47E17A943FCA
:100DF0005C8FC2F5285CEF3F14AE47E17A14F03FF8
:100E000099999900000070410000DC42014800F00F
:100E1000B9B900006803002010B500F02FF8CC200D
:100E200000F094F8442000F091F800F027F8CC206E
:100E300000F08CF8BE2000F089F800F055F8044668
:100E400000F052F844EA002000B203F0EBFEBDE8E7
:100E500010406FF0030104F08EB800001FB50020B1
:100E6000019003904FF400600090012002906946C9
:100E7000014800F07FFA1FBD0008014070B5002452
:100E800000F020F80E4E4FF400650022294630464F
:100E900000F065FB4FF4F07000F05EFAFFF7DEFF44
:100EA0003C2000F059FA2946304600F053FB00B9C7
:100EB00001244FF4D27000F04FFA204670BD0000BC
:100EC000000801401FB5002002904FF40060009020
:100ED00011200190032003906946024800F04AFA6D
:100EE0001FBD0000000801402DE9F0410025164F0C
:100EF0002C464FF001084FF4006600BFFFF7E2FFF9
:100F000000223146384600F02AFB022000F024FA85
:100F1000FFF7A4FF3146384600F01CFB012803D13F
:100F200008FA04F02843C5B23C2000F015FA01226B
:100F30003146384600F013FB641CE4B2082CDDD3C4
:100F40002846BDE8F0810000000801402DE9F0418D
:100F50000546FFF7B7FF124F00244FF4006600224A
:100F60003146384600F0FBFA022000F0F5F9E807B8
:100F700001D0012200E000223146384600F0EFFAAD
:100F80003C2000F0E9F901223146384600F0E7FA4A
:100F9000641C6D08E4B2082CE1D3BDE8F0810000C8
:100FA000000801407047000010B54FF4007103487D
:100FB000FFF74BFB02490020488010BD480000208D
:100FC0000000002010B54FF400710648FFF73DFB0C
:100FD0000549002001224880BDE81040034801F087
:100FE0003DBE00004800002000000020200300203B
:100FF00070B5C0B015460E460446FFF7D5FF224631
:101000001DA16846FFF7F0F86846FFF7FFFA82B2C5
:10101000642369461A4801F04BFE00F0A5FA044625
:1010200013E031461748FFF7DFFA58B11548FFF7CC
:10103000EDFA82B264231349134801F039FE01200E
:1010400040B070BD0A2000F075F900F08DFA001B69
:10105000A842E6D3642311220CA10B4801F028FE1C
:101060000848FFF7D3FA82B264230649064801F024
:101070001FFE0020E4E7000025730D0A00000000B9
:101080002003002048000020D802002054696D652C
:101090006F757420436F6E74656E743A20000000A3
:1010A00072B6FEE710B590F821100022022905D093
:1010B0000421816380F82020012010BD01680B68A5
:1010C00023F00E030B6001680B6823F001030B6033
:1010D00090F84030C46B012101FA03F3636080F89B
:1010E000211080F82020104610BD000010B590F8A7
:1010F00021100024022903D00421816301243DE052
:1011000001680A6822F00E020A6001680A6822F08B
:1011100001020A601A4A0168914201D1012121E0CD
:10112000174A1432914201D110211BE0144A28328F
:10113000914201D1891515E0114A3C32914201D109
:1011400089140FE00E4A5032914202D14FF480319F
:1011500008E00B4A6432914202D14FF4801101E061
:101160004FF08071064A083A5160012180F8211041
:10117000002180F82010416B01B18847204610BD46
:10118000080002402DE9F05FC16B0C6801680B6834
:10119000D0F840C0042202FA0CF2494DDFF824A135
:1011A000494E4A4FDFF828B1DFF828E122422CD01F
:1011B0005A072AD50A68920603D40A6822F0040264
:1011C0000A600168A94201D1042219E0514501D108
:1011D000402215E0B14202D14FF4806210E0B942E2
:1011E00002D14FF480420BE0594502D14FF48022E6
:1011F00006E0714502D14FF4800201E04FF08062B9
:101200002F4908394A60C16A3BE04FF0020808FAEA
:101210000CF818EA040F4FF000094FF0010235D026
:101220005FEA837832D50B689B0605D40B6823F000
:101230000A030B6080F821200168A94201D1022233
:1012400019E0514501D1202215E0B14202D14FF4FD
:10125000007210E0B94202D14FF400520BE0594540
:1012600002D14FF4003206E0714502D14FF4001272
:1012700001E04FF00072124908394A6080F820906E
:10128000816A00291AD0BDE8F05F0847082505FAF1
:101290000CF5254212D01B0710D50B6823F00E0366
:1012A0000B6090F84010C36B02FA01F15960826341
:1012B00080F8212080F82090016BE2E7BDE8F09FE4
:1012C000080002401C00024030000240440002407E
:1012D000580002406C00024030B528B308C81349DA
:1012E00014221944B1FBF2F18900C16310498163F2
:1012F000022141771A6843F6F0718A43D0E900145D
:101300002143D0E902452C43214304692143446928
:101310002143846921431143196000214163012263
:1013200042770177084630BD012030BDF8FFFDBF90
:101330000000024070B5044600F016F90546601C36
:1013400002D004480078044400F00EF9401BA0428B
:10135000FAD370BD380000200449054A0968B1FB82
:10136000F2F14143491EFDD27047000044000020C5
:1013700000093D002DE9F84FDFF8B8910024A9F1EC
:10138000040B23460F2709F1040AABF1040EC9E050
:101390000125A5402A40AA427DD1674ED1F804C05C
:1013A000ACEB0608B44532D014DCBCF1030F3AD0E4
:1013B00009DCBCF1000F2AD0BCF1010F1CD0BCF13C
:1013C000020F31D11DE0BCF1110F17D0BCF1120F8B
:1013D0002AD119E0B8F5881F19D006DCB8F5803F8E
:1013E00015D0B8F5801F1FD111E0B8F5001F0ED041
:1013F000B8F5041F18D10AE0CB6815E0CB681B1DB7
:1014000012E0CB6808330FE0CB680C330CE08B683C
:101410002BB1012B4FF0080303D0456104E00423F6
:1014200002E0056100E00023FF2A01D8064601E042
:1014300000F104064FEA840501D9A5F12005D6F88C
:10144000008007FA05FC28EA0C0803FA05F548EACB
:101450000508C6F800804D68ED0062D5374DAE69CD
:1014600046F00106AE61AD6924F0030605F0010502
:101470000095334D06EB050CDCF80850A607360F37
:1014800007FA06F825EA0805DFF8B880404503D1D9
:101490004FF0000817E044E0DFF8AC80404502D18F
:1014A0004FF001080FE0DFF8A480404502D14FF073
:1014B000020808E0DFF89880404502D14FF00308A9
:1014C00001E04FF0040808FA06F848EA0508CCF8ED
:1014D00008804D68D9F80060ED024D4601D51643ED
:1014E00000E096432E604D68DAF80060AD02554684
:1014F00001D5164300E096432E604D68DBF800608E
:10150000AD035D4601D5164300E096432E604D685D
:10151000DEF80060ED03754601D5164300E0964302
:101520002E60641C0D682A46E5407FF431AFBDE8AB
:10153000F88F000008040140000011100010024064
:101540000000014000080140000C01400010014073
:10155000001401408068084000D0012070470AB1A3
:10156000016170470904FBE701488068704700008B
:101570003800002070B5040025D094F83D00002507
:1015800020B984F83C50204600F014FB242084F855
:101590003D002068016821F00101016020680168B8
:1015A00041F4004101602068016821F400410160BC
:1015B00000F02AFD4D4A6168914201D84C4900E093
:1015C0004C49884201D2012070BD4B492368B0FBD1
:1015D000F1F15E6826F03F060E435E606368934259
:1015E00006D94FF4967359434FF47A73B1FBF3F174
:1015F0002368491C1E6A26F03F0631431962616860
:10160000914210D84900401EB0FBF1F2521CC2F3C7
:101610000B02042A01D2042022E0B0FBF1F0401CAE
:10162000C0F30B001CE0A268F2B301EBC10303EBB3
:101630000116431EB3FBF6F35B1C43F480431B050A
:1016400049D092B301EBC10202EB0111401EB0FB85
:10165000F1F0401CC0F30B0040F4804040F4004027
:101660002168CA694CF6FF739A431043C861D4E9F4
:10167000071001432068026822F0C0021143016094
:10168000D4E9030101432068826848F2FF339A439A
:1016900011438160D4E9050108432168CA6822F03A
:1016A000FF021043C86001E00EE016E02068016808
:1016B00041F0010101602564202084F83D0025638C
:1016C00084F83E50002070BD01EB4106431EB3FB81
:1016D000F6F35B1CB3E70120C2E701EB4101401EBA
:1016E000B0FBF1F0401CC0F30B00B7E7A08601008F
:1016F00080841E0000093D0040420F002DE9F84F94
:101700001F4690468A460446DDF82890FFF72CFFD6
:10171000054694F83D0020287FD119230122404935
:101720002046009501F07AFC002876D194F83C0020
:10173000012872D0012084F83C0020680168C907A4
:1017400003D1016841F0010101602068016821F4C2
:1017500000610160212084F83D00102084F83E00E3
:1017600000262664C4F824806785608D20852D4876
:10177000E0622B464A465146204601F003FB90B9F1
:10178000206841698069009036E02A464946204633
:1017900001F022FD50B1206C042804D120680168BA
:1017A00041F4007101600120BDE8F88F606A216892
:1017B00000780861606A401C6062618D491E618525
:1017C000218D491E89B2218522685369DB435B075D
:1017D0000BD451B100781061606A401C6062608D6A
:1017E000401E6085208D401E20852A4649462046A1
:1017F00001F0E8FB0028CED1208D0028C5D154F897
:101800003D0B016841F400710160202004F81E09BD
:10181000E67766770020C7E7FFE70220C4E700000D
:10182000020010000000FFFF2DE9FF4F83B00025EC
:10183000DDE910799A4693460446DDF84880009524
:10184000FFF792FE064694F83D0020287CD119232C
:10185000012288492046009601F0E0FB0028F5D1DE
:1018600094F83C0001286FD0012084F83C002068E7
:101870000168C90703D1016841F0010101602068D6
:10188000016821F400610160222084F83D004020BD
:1018900084F83E0025646762A4F82A90608D208554
:1018A0007548E062CDE9008653465A4620460499C1
:1018B00001F0B6FA00287CD1208DDFF8C0912027F6
:1018C00068B1012814D00228206801681ED041F4B4
:1018D000806101602068416980690090BCE02068F7
:1018E000416981690091016841F400710160B3E0D0
:1018F0002068016821F48061016072B62068416946
:1019000081690091016841F400710AE041F40061CD
:10191000016072B62068416981690091016821F413
:101920008061016062B697E0032865D801280CD079
:10193000022843464FF000024946204600960BD04D
:1019400001F06CFBA8BB0CE091E03246414620461A
:1019500001F00AFC68BB72E001F060FB48BB72B6A4
:1019600033E02068016821F48061016072B620686C
:101970000069616A0870606A401C6062208D401EC8
:101980002085608D401E60853D4846F2A8110068A4
:10199000B0FBF1F0C0EBC00000EB80000090401EF7
:1019A000009007D020684069C04340070DD50098DB
:1019B000F5E727E044F8305F6773A573206940F0CE
:1019C0002000206162B625731CE02068016841F4A4
:1019D0000071016020680069616A0870606A401CDB
:1019E0006062218D491E2185618D491E618562B627
:1019F00021680969017026E032464146204601F01F
:101A0000B3FB18B1012007B0BDE8F08F2068006972
:101A1000616A0870606A401C6062208D401E81B25D
:101A20002185608D401E608520684269D24352073F
:101A300012D4032903D1016821F480610160206878
:101A40000069616A0870606A401C6062208D401EF7
:101A50002085608D401E6085208D00287FF464AF56
:101A600084F83D7084F83E5084F83C50CBE7022067
:101A7000C9E70000020010000000FFFF04000100A1
:101A8000440000202DE9FF4F83B09A46DDE911970D
:101A900093460446DDF84080FFF766FD054694F85E
:101AA0003D0020287FD1192301224049204600957E
:101AB00001F0B4FA002876D194F83C00012872D0E5
:101AC000012084F83C0020680168C90703D101683F
:101AD00041F0010101602068016821F400610160AA
:101AE000212084F83D00402084F83E000026266432
:101AF000C4F82480A4F82A90608D20852C48E062E8
:101B0000CDE9007553465A462046049901F006FA7D
:101B100070B930E02A463946204601F05DFB58B1E5
:101B2000206C042804D12068016841F40071016030
:101B3000012007B0BDE8F08F606A21680078086175
:101B4000606A401C6062218D491E89B22185628DC8
:101B5000521E628522685369DB435B070BD469B16F
:101B600000781061606A401C6062208D401E2085F4
:101B7000608D401E6085208D0028CBD12A463946D5
:101B8000204601F01FFA0028CAD154F83D0B016825
:101B900041F400710160202004F81E09E6776677A1
:101BA0000020C6E7FFE70220C3E7000002001000A4
:101BB0000000FFFF10B586B0002100910191029155
:101BC000039100680F4988421AD10F4CA06940F078
:101BD0000800A061A069694600F008000490C020D8
:101BE000009012200190032003900848FFF7C2FBE9
:101BF000E06940F40010E061E06900F40010049036
:101C000006B010BD0054004000100240000C01401E
:101C100002488168027811448160704738000020D2
:101C2000074810B5016841F010010160032000F081
:101C300075F80F2000F006F800F024F8002010BD21
:101C40000020024070B50D4D04464FF47A7128789B
:101C5000B1FBF0F00A490968B1FBF0F000F0A1FD1A
:101C600048B9102C07D200222146501E00F036F849
:101C700000206C6070BD012070BD000038000020A5
:101C8000440000200C4808B5816941F001018161E0
:101C9000816901F001010091C16941F08051C16188
:101CA000C06900F0805000900448416821F0E06174
:101CB00041F08061416008BD001002400000014019
:101CC000002809DB00F01F0201219140400980003B
:101CD00000F1E020C0F8001170470000F0B40E4B96
:101CE0001B680C46C3F30223C3F10705042D00D97A
:101CF0000425191D072901D2002300E0DB1E01265F
:101D000006FA05F1491E214099409E40761E164074
:101D10003143F0BC02F01AB90CED00E0064900F0C6
:101D2000070208684FF6FF03184040EA0220034A02
:101D300010430860704700000CED00E00000FA0559
:101D4000014901200862704700000E4210B50146AB
:101D50000020234C012922D0022939D010291DD17D
:101D600061682268D20119D51E48C1F38342C903B4
:101D7000805C0AD561681B4AC1F34041921E515CE8
:101D8000194AB2FBF1F1484301E018494843616840
:101D9000490203D440000321B0FBF1F010BD226AD8
:101DA000C2F30121012903D1920701D5C80310BD57
:101DB000022905D1626A920702D549F6404010BD5A
:101DC0000329FCD121688903F9D54FF2244010BDC5
:101DD00000F02AF96168C1F38131491C4900DBE751
:101DE000001002404052000800127A0000093D0035
:101DF0002DE9F84305460078354CC00754D0E0691A
:101E00000026C00008D4E06940F08050E061E0693D
:101E1000012600F0805000902E480168C90512D4B8
:101E20000168804641F480710160FFF79DFB074621
:101E300005E000BFFFF798FBC01B642823D8D8F843
:101E40000000C005F6D5206A10F4407021D0A988A2
:101E500001F4407181421CD0206A1F49012220F404
:101E600040700A6000220A602062C00711D0FFF7AC
:101E70007BFB074641F2883808E000BFFFF774FBA0
:101E8000C11B414502D90320BDE8F883206A8007C1
:101E9000F4D5206A696820F44070084320621EB1BE
:101EA000E06920F08050E0612878800705D56068FF
:101EB000A96820F44040084360602878C00605D532
:101EC0006068E96820F48000084360600020DBE778
:101ED0000010024000700040400442422DE9F047EB
:101EE0000F46050061D0434E306800F00700B8424D
:101EF00009D2306820F0070038433060306800F0C5
:101F00000700B84251D128683B4C810712D54007E1
:101F100003D5606840F4E06060602878000703D56E
:101F2000606840F4605060606068A96820F0F0006C
:101F3000084360602878C00728D06868012810D05E
:101F40002168022810D0890700292EDA616821F063
:101F5000030101436160FFF707FB804641F28839C6
:101F60000DE021688903EFE78901EDE7FFF7FCFA4F
:101F7000A0EB0801494502D90320BDE8F08760685D
:101F8000696800F00C00B0EB810FEFD1306800F011
:101F90000700B8420BD9306820F0070038433060A2
:101FA000306800F00700B84201D00120E5E728784A
:101FB000400705D56068E96820F4E0600843606088
:101FC0002878000706D56068296920F4605040EA47
:101FD000C100606000F038F86168084AC1F303117D
:101FE000515CC8400649086006480068FFF72AFEB1
:101FF0000020C2E7002002400010024050520008BA
:10200000440000203C00002004480549006849685D
:10201000044AC1F30221515CC840704744000020CB
:1020200000100240605200080448054900684968F1
:10203000044AC1F3C221515CC840704744000020EB
:1020400000100240605200080E4A51680E4801F02C
:102050000C03042B11D0082B0FD10C48C1F3834380
:10206000C903C05C0AD55168084AC1F34041921EB9
:10207000515C054A5043B0FBF1F0704704494843B6
:10208000704700000010024000127A002E52000833
:1020900000093D002DE9F84F040070D02078C04DB4
:1020A000C00749D06868C0F38100012807D068687C
:1020B000C0F38100022809D16868C00306D52868EA
:1020C000800339D560680028E7D035E06068B0F556
:1020D000803F0BD010B1B0F5A02F11D0286820F4AC
:1020E00080302860286820F4802002E0286840F4CE
:1020F00080302860606890B1FFF736FA06460AE043
:10210000286840F480202860F0E700BFFFF72CFA31
:10211000801B642873D828688003F7D50CE0FFF78C
:1021200023FA064605E000BFFFF71EFA801B64286D
:10213000F0D828688003F7D420789A4E80074FF0B3
:1021400001094FF0000839D5686810F00C0F07D06E
:102150006868C0F38100022809D16868C00306D40A
:102160002868800714D52069012808D110E020696B
:10217000B0B1C6F80090FFF7F7F9074605E00AE1AD
:10218000FFF7F2F9C01B0228C4D828688007F7D5EA
:102190002868616920F0F80040EAC10028600DE07D
:1021A000C6F80080FFF7E0F9074604E0FFF7DCF926
:1021B000C01B022823D828688007F7D4207800079E
:1021C0002CD57948A169D9B1C0F80090FFF7CCF9B6
:1021D000074604E0FFF7C8F9C01B02280FD8686A59
:1021E0008007F7D571484FF4FA510068B0FBF1F061
:1021F000009000BF0098411E0091FAD20EE080E0EE
:10220000C0F80080FFF7B0F9074604E0FFF7ACF92B
:10221000C01B022875D8686A8007F7D42078400769
:1022200060D5E8690027C00008D4E86940F0805014
:10223000E861E869012700F0805000905C4801687F
:10224000C90513D40168834641F480710160FFF72A
:102250008BF9824606E000BFFFF786F9A0EB0A0083
:1022600064284ED8DBF80000C005F5D5E0680128E9
:102270000AD008B1052813D0286A20F0010028628E
:10228000286A20F0040002E0286A40F00100286279
:10229000E06841F2883B98B1FFF766F982460BE0AF
:1022A000286A40F004002862EEE700BFFFF75CF9FF
:1022B000A0EB0A0159455AD8286A8007F6D50CE0E8
:1022C000FFF752F9824605E0FFF74EF9A0EB0A014D
:1022D00059454CD8286A8007F6D41FB1E86920F028
:1022E0008050E861E06988B36968C1F3810102291F
:1022F00044D00228C6F8608004D0FFF735F90446C0
:1023000038E034E0FFF730F9074604E0FFF72CF936
:10231000C01B02282BD828688001F7D4206AB0F5AA
:10232000803F05D16868A16820F4003008436860E8
:10233000D4E908010843696821F47411084368600E
:10234000C6F86090FFF710F9044606E025E000BFEC
:10235000FFF70AF9001B022809D828688001F7D581
:102360001BE000BFFFF700F9001B022802D9032081
:10237000BDE8F88F28688001F4D40EE00128F7D07A
:102380006868226A00F48031914204D1616A00F4E5
:102390007010884201D00120EAE70020E8E7000041
:1023A00000100240000042428004424244000020EB
:1023B000007000407047704710B50446006801681F
:1023C000C90717D04168C90714D0406840072046A4
:1023D00007D5FFF7F0FF21686FF004004860042084
:1023E00002E0FFF7E7FF012060742068416821F0F8
:1023F0000101416010BDF8B505004FF00000164620
:102400000C46009006D02CB100226946284600F008
:1024100019F808B10120F8BD287B2070E87BE07036
:10242000697B6170A97BA17056B101F0B7F9E070CA
:10243000607801F0B3F96070A07801F0AFF9A07096
:102440000020F8BD2DE9F04791460C465FEA0008F0
:102450004AD084B3D8F800004068400744D44046CE
:1024600001F041FA4FF461620546B0FBF2F1B0FBB6
:10247000F2F302FB13503C23B0FBF3F0B5FBF2F692
:10248000607002FB1650B0FBF3F203FB1200A07069
:10249000182931D31820B1FBF0F7B1FBF0F200FBA3
:1024A00012102070404601F017FA411C04D0A842D7
:1024B00002D9461B02E017E04FF0FF36A7EB0710EA
:1024C00000EB4000C0EB001005EBC015294640466C
:1024D00001F058FA40B9701C01D0711900E0314682
:1024E000404601F03BFA10B10120BDE8F0873946C3
:1024F000404601F05EF900E02170B9F1000F0BD009
:10250000207801F04BF92070607801F047F9607095
:10251000A07801F043F9A0700020E6E770B5040050
:1025200003D0607C002610B105E0012070BD267448
:10253000204600F03DF802206074204600F014F9B7
:10254000042550BB204601F08BF930BB2068416860
:1025500021F007014160A06820B11448016821F012
:10256000010101601148001F0168A26821F4607137
:10257000114301606068411C04D10120FFF7E6FBB4
:1025800058B1401E2268C0F303419160216880B2B7
:10259000C860204601F07EF908B16574C5E7E673AE
:1025A00001206073A0736074002070BD306C004027
:1025B00008B500680D49884217D1FFF7C1FB0C48E8
:1025C000C16941F00061C161C0690A4900F0006061
:1025D000009001200860002211460320FFF77EFBD7
:1025E000BDE808400320FFF76BBB08BD0028004092
:1025F000001002403C0442422DE9F0410D46040027
:102600003BD0C5B3207C01283AD04FF0010884F8B4
:10261000108002206074E87872B301F0B6F8E073BD
:10262000687801F0B2F86073A87801F0AEF8A07392
:10263000C2B2617BE07B01F066F92073287020460E
:1026400001F051F94FF46161B0FBF1F10025182957
:102650002DD91822B1FBF2F1A1EB011101EB4101DF
:10266000C1EB011100EBC1163146204601F08AF999
:102670000427C8B90BE000E004E00120BDE8F081C8
:102680000220FBE7E07368786073A878CFE7204604
:1026900001F022F9411C0AD0B04208D20649014497
:1026A000204601F05BF910B167742574E5E784F802
:1026B000118025740020E1E7805101002DE9F041EF
:1026C0000D46040024D01DB3207C012823D04FF0F8
:1026D000010884F81080022060742878EAB101F0C3
:1026E00054F84FF4616100FB01F6687801F04DF891
:1026F000C0EB001006EB8006A87801F046F835180C
:102700002946204601F03EF90026042710BB0FE0C1
:102710000120BDE8F0810220FBE74FF461614843EE
:102720006978C1EB011100EB8100A9784518E7E752
:102730002068416821F005014160204601F0CCF895
:10274000411C0AD0A84208D206490144204601F0A3
:1027500005F910B167742674DAE784F811802674DD
:102760000020D6E78051010070B504000AD020682F
:10277000416821F008014160FEF7F6FE05464FF47E
:102780007A7608E0012070BDFEF7EEFE401BB042F5
:1027900001D9032070BD206840680007F4D50020EF
:1027A00070BD10B5401EB0F1807F01D3012010BD77
:1027B0004FF0E02460610F21601701F0C7FB00209B
:1027C000A06107202061002010BD70477047000005
:1027D000F8B5016804460868CA684B6910F00F0F25
:1027E0004FF0000559D003F0010602F4907737430B
:1027F00065D0C10705D0D10503D5616C41F0010159
:102800006164410705D5D90703D0616C41F002012D
:102810006164810705D5D90703D0616C41F00401DB
:102820006164010707D502F02001314303D0616CD8
:1028300041F008016164616C00293AD0800604D53A
:10284000900602D5204601F011FA20684069616CBB
:10285000C0F38010090700D460B3204601F0DFF90F
:1028600020684069400621D52068143050E8001FD8
:1028700021F0400140E80012002AF5D1E06BA8B138
:102880006D494163E06BFEF731FC002811D0E06B2D
:10289000416B01B0BDE8F040084783060FD59306B1
:1028A0000DD52046BDE8F84001F0E0B92046FFF71D
:1028B0008DFFF8BD2046FFF789FF6564F8BD266BE4
:1028C0002023012E7CD1C6067AD5D60678D5086895
:1028D0004868009048694FF00206400640D5E16B19
:1028E000086840680004000CE8D0A28D8242E5D957
:1028F000E085886920282DD020680C3050E8001F22
:1029000021F4807140E80012002AF5D120681430CB
:1029100050E8001F21F0010140E80012002AF5D123
:102920002068143050E8001F21F0400140E80012F8
:10293000002AF5D184F84230256320680C3050E835
:10294000001F21F0100140E80012002AF5D1E06BD1
:10295000FEF7A8FB6663A08DE18D401A81B22AE0E4
:10296000A08DE18D401A81B2E08D0028A6D000290B
:10297000A4D022680C3252E8000F20F4907042E894
:102980000007002FF5D12068143050E8002F22F006
:10299000010240E80027002FF5D184F8423025637A
:1029A00020680C3050E8002F22F0100240E800238D
:1029B000002BF5D166632046FFF707FFF8BDFFE760
:1029C00005062BD5150629D594F841002128F5D107
:1029D000A068B0F5805F01D12069B0B1206A411CC8
:1029E0002162216800784860E08C401E0004000CE1
:1029F000E084E3D12068C16821F08001C1602068D3
:102A0000C16841F04001C160D8E7206A0088C0F386
:102A100008004860206A801C2062E5E74006CDD5AA
:102A20005006CBD5CA68204622F04002CA6084F81E
:102A3000413000F08DF9C1E70F3C000870B504008B
:102A400004D094F84100002510B106E0012070BDCB
:102A500084F84050204600F023F8242084F84100F8
:102A60002068C16821F40051C160204601F060F97E
:102A70002068016921F4904101612068416921F0D9
:102A80002A0141612068C16841F40051C160656458
:102A9000202084F8410084F842006563002070BD66
:102AA000F0B585B000240094019402940394064686
:102AB0000368374F0220374903224502BB4226D123
:102AC0008B6943F480438B618B6903F480430493E7
:102AD0008B6943F004038B6189692F4E01F0040177
:102AE00004910102CDE90010039269463046FEF7D9
:102AF00041FCCDE90054694630460294FEF73AFCA9
:102B0000002211462520FFF7E9F825203BE0234F5E
:102B1000BB423AD1CB6943F48023CB61CB6903F448
:102B2000802304938B6943F008038B61896901F06A
:102B30000801CDE90321CDE90050194D6946284629
:102B4000FEF718FCE814CDE9000469462846029413
:102B5000FEF710FC144D1348C5E900048020C5E9B8
:102B600002402C616C61AC612846EC61FEF7B4FB5D
:102B700008B1FEF795FAF5630022114627206E6230
:102B8000FFF7ACF82720FFF79BF805B0F0BD000079
:102B90000038014000100240000801400048004099
:102BA000000C014030000240680300202DE9F84F7E
:102BB000044690F842009A4616460D46202802D058
:102BC0000220BDE8F88FB5B1AEB1002060642221CB
:102BD00084F842102063FEF7C7FCA6858146E6858F
:102BE000A0684FF480582027404501D1206920B1CA
:102BF0002E46002529E00120E3E7002625E04B468C
:102C0000002220212046CDF800A001F008F918B1DB
:102C100084F842700320D4E726B1A06840451AD05A
:102C200038B108E020684068C0F3080025F8020BBE
:102C300008E0206978B12068406800F07F0000BF9C
:102C400006F8010BE08D401EE085E08D0028D6D10E
:102C500084F84270B5E720684068F1E790F84230A8
:102C6000202B01D00220704721B11AB10023036349
:102C700001F0BAB8012070470068094988420ED1B6
:102C800008484188B1F5FF7F04D8074B02785A54B1
:102C9000491C4180012203490448FFF7DFBF704708
:102CA00000480040000000204800002020030020D1
:102CB0002DE9F843044690F84100984616460D4623
:102CC000202802D00220BDE8F88385B17EB1002023
:102CD0006064212084F84100FEF746FCA68481460A
:102CE000E684A0682027B0F5805F02D003E00120D1
:102CF000E9E7206910B12E4600250EE000260CE021
:102D00008021204601F08BF8A8B9C6B116F8010B56
:102D100021684860E08C401EE084E08C4B464FF018
:102D20000002CDF800800028EAD14FF04001204693
:102D300001F075F840B184F841700320C3E735F81D
:102D4000020BC0F30800E3E784F841700020BAE703
:102D50007047FEE701684A69D24352050FD46FF409
:102D600080624A61002140F8301F20224273817343
:102D7000026942F0040202610173012070470020E1
:102D800070470000F8B50446C06A1E460D46174657
:102D9000082807D0012805D010F5803F02D0206B0D
:102DA000122804D12068016841F480710160134643
:102DB00000224FF001112046009600F02FF940B19B
:102DC00020680068C00502D54FF40070206403201D
:102DD000F8BD2069B0F5804F0ED00620216800EACA
:102DE000D51040F0F000086133463A460B492046C2
:102DF00000F05CF978B902E005F0FE0000E0E8B20E
:102E000021680861054933463A46891F204600F08B
:102E10004DF90028DCD00120F8BD000008000100B9
:102E20002DE9F84F0446006889460B9D01689846D5
:102E3000174641F4806101602068016841F48071A7
:102E4000016000954FF0011B0022594620460A9B65
:102E500000F0E4F84FF4007A40B120680068C00543
:102E600001D5C4F840A00320BDE8F88F216809F01F
:102E7000FE0008612B46284920460A9A00F016F900
:102E8000F0BB20684169806900902A4620460A9973
:102E900000F0A2F940B1206C04283AD12068016802
:102EA00041F40071016034E0FEB2B8F1010F09D0C5
:102EB0002168380A08612A4620460A9900F08CF9F0
:102EC0000028E8D1206806612A4620460A9900F0C9
:102ED00083F90028DFD12068016841F48071016026
:102EE00000950022594620460A9B00F097F80028DA
:102EF000B3D1216809F0FF0040F00100086100E053
:102F000007E02B46044920460A9A00F0CFF8002833
:102F1000AAD00120A8E70000020001002DE9F84333
:102F2000044600680D46DDE9089701689846164694
:102F300041F4807101604B4600224FF001112046A0
:102F4000009700F06BF848B120680068C00502D512
:102F50004FF4007020640320BDE8F883216805F079
:102F6000FE0008613B464A461549204600F09EF89F
:102F700088B920684169806900903A4649462046F0
:102F800000F02AF948B1206C042804D120680168B7
:102F900041F4007101600120DEE7F5B2B8F1010FE4
:102FA00009D02168300A08613A464946204600F0B7
:102FB00013F90028E7D1206805610020CCE7000064
:102FC0000200010070B516460D4604461EE020467C
:102FD000FFF7C0FE08B1012070BD681C16D0FEF7D7
:102FE000C3FA801BA84200D885B920684069C04355
:102FF00040070BD5002044F8300F20216173A073E7
:10300000216941F0200121612073E4E720684069D3
:10301000C0434007DBD4002070BD00002DE9F0471D
:10302000984617460D460446C1F30746DDF8209042
:103030002AE000BFB8F1FF3F26D0FEF795FAA0EBDB
:103040000901414502D8B8F1000F1DD12068012EB9
:1030500016D0806925EA00000004000C12D0002080
:10306000B84211D1002044F8300F20216173A073C1
:10307000216941F02001216120730120BDE8F08722
:103080004069E7E70120EBE72068012E0AD080695C
:1030900025EA00000004000C06D00020B842C9D088
:1030A0000020EBE74069F3E70120F7E72DE9F0475F
:1030B000984616460D4604464FF000094FF0200A88
:1030C000C1F3074723E020684069C043400515D499
:1030D0002068016841F40071016021686FF480602C
:1030E0004861C4F8309084F83DA084F83E90216C8B
:1030F00041F00401216484F83C9021E0701C06D06A
:10310000FEF732FAA0EB0800B04203D816B1012F47
:103110001FD021E02068012F15D0806925EA00002A
:103120000004000C18D000BF44F8309F84F80DA0B4
:1031300084F80E90216941F02001216184F80C90FF
:103140000120BDE8F087406925EA00000004000C7A
:10315000EAD12068406901E02068806925EA000022
:103160000004000CAFD1ECE72DE9F04100259046BA
:103170000E460446202728E04069C043C0060CD410
:1031800054F8301B6FF01000486144F8105967770D
:10319000A577206A2062257714E0FEF7E5F9A0EB19
:1031A0000800B04200D886B920684069C043400694
:1031B0000BD544F8305F6773A573206940F0200099
:1031C000206125730120BDE8F08120684169C94371
:1031D0004906D1D40020F6E770B516460D460446E0
:1031E0001EE02046FFF7B6FD08B1012070BD681C47
:1031F00016D0FEF7B9F9801BA84200D885B920681F
:103200004069C04300060BD5002044F8300F202150
:103210006173A073216941F0200121612073E4E70B
:1032200020684069C0430006DBD4002070BD10B5A3
:103230004021092000F06CF84FF4FA70FEF77AF89C
:103240000021022000F064F80021032000F060F863
:103250000021042000F05CF80021052000F058F85F
:103260000021062000F054F85021082000F050F80A
:103270000321092000F04CF827210A2000F048F82B
:1032800032210C2000F044F832210D2000F040F8EB
:103290000021BDE81040102000F03AB830B585B0EC
:1032A0000C4605466422062103A88DE80700012389
:1032B0000722AE211548FEF7B7FA9DF80C009DF8DD
:1032C0000D10000440EA01209DF80E100843C0F3E1
:1032D000110028609DF80F009DF81010000440EACE
:1032E00001209DF811100843C0F311002060002157
:1032F000042000F00DF80021052000F009F800215D
:10330000062000F005F805B030BD00007002002076
:1033100003B583B06423012204A98DE80E0013468F
:103320000246AE210248FEF7ADFB05B000BD00002D
:10333000700200202DE9FF410024012603AF8DF823
:103340000C4064250097CDE9016533466B22D021FE
:103350000D48FEF797FB8DF80C400097CDE901650D
:1033600001231C22D0210848FEF78CFB8DF80C406D
:103370000097CDE9016501231B22D0210248FEF709
:1033800081FBBDE8FF81000070020020094808B5FC
:10339000416941F0010141614069002200F00100F2
:1033A000009011460D20FEF799FCBDE808400D2065
:1033B000FEF786BC001002402DE9F04186B00024E3
:1033C00028480094019402940394816941F010010B
:1033D0008161816901F010010491816941F020014E
:1033E0008161816901F020010491816941F004014A
:1033F0008161816901F004010491816941F0080152
:1034000081618069DFF8608000F0080040F6010506
:103410000490012229464046FEF7A1F8134F0122ED
:1034200004213846FEF79BF80095022601250396F5
:10343000CDE9015469464046FDF79CFF0420CDE9E3
:103440000005CDE9024669463846FDF793FF4FF483
:1034500070408DE8310069464046FDF78BFF06B0AD
:10346000BDE8F0810010024000080140000C01405E
:103470000D4810B50B4901600C49416000214FF423
:1034800080428160C0E9031241618161C1610162D2
:10349000FEF770F8002803D0BDE81040FDF700BE2D
:1034A00010BD00000054004070020020801A060089
:1034B0001CB5002418480194164900940160611E4F
:1034C00041604FF480718160FFF728F808B1FDF783
:1034D000E7FD8DF804408DF805408DF80640002288
:1034E00001A90D48FFF7EAF808B1FDF7D9FD012061
:1034F0008DF800008DF801008DF802008DF8034072
:10350000002269460448FFF777F8002801D0FDF74C
:10351000C7FD1CBD00280040C40200200C4810B5A7
:103520000A4901604FF4E1314160002181600C22C1
:10353000C160C0E904128161C161FFF77FFA002810
:1035400003D0BDE81040FDF7ABBD10BD0038014011
:10355000D80200200C4810B50A4901604FF4E1314F
:103560004160002181600C22C160C0E904128161C8
:10357000C161FFF763FA002803D0BDE81040FDF7F2
:103580008FBD10BD0048004020030020FEE7FEE78D
:1035900070B5002404F1B000C0B200F0D1F80020F2
:1035A00000F0CEF8102000F0CBF80025002000F04D
:1035B000D9F86D1CEDB2802DF8D3641CE4B2082C50
:1035C000E8D370BD10B56420FDF7B4FEAE2000F066
:1035D000B7F8202000F0B4F8102000F0B1F8B020C7
:1035E00000F0AEF8C82000F0ABF8002000F0A8F81A
:1035F000102000F0A5F8402000F0A2F8812000F093
:103600009FF8FF2000F09CF8A12000F099F8A62078
:1036100000F096F8A82000F093F83F2000F090F812
:10362000A42000F08DF8D32000F08AF8002000F0EC
:1036300087F8D52000F084F8F02000F081F8D92038
:1036400000F07EF8222000F07BF8DA2000F078F815
:10365000122000F075F8DB2000F072F8202000F056
:103660006FF88D2000F06CF8142000F069F8AF209E
:1036700000F066F8BDE81040FFF78ABF10B50446B9
:10368000B031C8B200F05CF8102040EA141000F02D
:1036900057F804F00F00BDE8104040F0010000F0C2
:1036A0004FB8000070B5203AD5B2FFF7E7FF0749E1
:1036B00005EB4500002401EB4005285D00F052F8C1
:1036C000641CE4B2062CF8D370BD0000F24F000871
:1036D0002DE9F04700241E461546894680460A27F4
:1036E00014E000BFB5FBF7F007FB10503030C2B25A
:1036F000301B00EB400108EB4100801FC0B249467F
:10370000FFF7D0FFB5FBF7F5641CE4B2B442E9D390
:10371000BDE8F08770B515460E4604460BE031460D
:103720002046FFF7BFFFA41DE4B27A2C02D9002483
:10373000761CF6B26D1C2A78002AF0D170BD00000C
:103740001CB500218DF804108DF805006420009050
:10375000022301AA78210248FDF7D0FF1CBD00001A
:10376000700200201CB540218DF804108DF8050072
:1037700064200090022301AA78210248FDF7BEFFD1
:103780001CBD0000700200207047010901EB81019F
:1037900000F00F0000EB4100C0B27047002102E0D2
:1037A0000A38C0B2491C0A28FAD2090740EA116057
:1037B00070472DE9F04104460025C07B627BA37B66
:1037C00042E0012A16D0032A14D0052A12D0072A73
:1037D00010D0082A0ED00A2A0CD00C2A0AD0042AAB
:1037E00010D0062A0ED0092A0CD00B2A0AD0022AA1
:1037F0000DD028E01F2B0CD30C2A05D10122134633
:10380000401C20E01E2B04D30123521C1BE01C2B68
:1038100002D203F1010316E011D183B29E0710D149
:103820006426B3FBF6F706FB173636B94FF4C876B5
:10383000B3FBF6F706FB17331BB91D2303E01D2B63
:1038400001D1032201236D1C8D42BAD3D1B2E073A2
:103850006173DAB2A27300F056F82073BDE8F0810C
:1038600070B50446FDF780FE05464FF47A7606E013
:10387000FDF77AFE401BB04201D9032070BD2068DD
:1038800040688006F4D52068416841F0100141602D
:10389000002070BD70B504460068416821F0100139
:1038A0004160FDF761FE05464FF47A7607E000BF00
:1038B000FDF75AFE401BB04201D9032070BD2068BD
:1038C00040688006F4D5002070BD00000148FEF776
:1038D00073BD0000C40200200168086A496A89B209
:1038E00041EA00407047006881698AB2C1698BB2C1
:1038F000816989B28A4203D0C06961F31F40704771
:1039000043EA02407047F0B56424C1EBC1030927C4
:10391000A500072603EB01130329B3FBF7F100F51C
:10392000FA60114401440AD2401EB0FBF4F201EBEC
:103930009001B0FBF5F0891A0844001D08E0B0FBC7
:10394000F4F201EB9001B0FBF5F0891A0844801CF9
:10395000B0FBF6F106FB1100C0B2F0BD70B50D462C
:1039600006460024FFF77CFF48B93168280C08623E
:103970003168A8B248623046FFF78CFF00B10124DD
:10398000204670BD70B50D4606460024FFF768FF5F
:1039900048B93168280C88613168A8B2C8613046DE
:1039A000FFF778FF00B10124204670BD704700008A
:1039B00010B592B041F2883240A141A0FDF718FB4A
:1039C00000284DD0474C2046FCF720FE024646A179
:1039D00004A8FCF709FC4FF4FA6247A104A8FDF71C
:1039E00007FB00283CD0FDF7DFFA2046FCF70EFE6F
:1039F00082B24FF47A7321464048FFF759F940A24A
:103A000004210020FFF786FE40F6B830FDF792FC57
:103A100064230B223EA14148FFF74AF94048FCF7D6
:103A2000F5FD82B264233E493C48FFF741F93DA1D0
:103A30003B48FCF7D9FD00283DD011AC10AB0FAAD4
:103A40000EA98DE81E000DAB0CAA3AA10D30FCF7B3
:103A500007FD062806D03CA206210020FFF75AFEEB
:103A600012B010BD0020019000900F988DF8040056
:103A700010988DF8050011988DF80600002201A914
:103A80003648FEF71BFE0C98642190FBF1F201FB17
:103A900012008DF803000D988DF801000E988DF836
:103AA000020001208DF80000002269462B48FEF735
:103AB000A3FD2BA2D0E72FA2CEE700004F4B0000C2
:103AC00041542B43495053544152543D2254435086
:103AD000222C226170692E6B3738302E636F6D2275
:103AE0002C3830007C52000841542B434950534538
:103AF0004E443D25640000003E00000020030020ED
:103B000057616974696E672054696D652E2E2E00A9
:103B10005265637620446174613A2000D802002027
:103B2000480000206461746574696D655F31223AF4
:103B30002200000025642D25642D25642025643A8B
:103B400025643A2564000000506172736520457257
:103B5000726F72202020202000000000C40200208C
:103B600054696D652053796E63204F4B21202020CE
:103B7000000000004E6F2054696D6520446174613F
:103B80002020202000000000FEF742B870B594B05D
:103B900028216846FCF77BFD14210AA8FCF777FD75
:103BA00000250F950920012410950090119512957C
:103BB0004FF4803004940694CDE901050226CDE946
:103BC00007604FF4E01009906846FEF763FA08B109
:103BD00072B6FEE70F20CDE90A064FF48060CDE90A
:103BE0000C5002210AA80E95FEF778F908B172B6BA
:103BF000FEE74FF40070CDE90F400FA8FEF7F8F88C
:103C0000002801D072B6FEE714B070BD704710B541
:103C1000406A0021C185C184FEF7D8FD10BD01684E
:103C20000C3151E8002F22F4907241E80023002B60
:103C3000F5D10168143151E8002F22F0010241E86A
:103C40000023002BF5D1016B012909D101680C314A
:103C500051E8002F22F0100241E80023002BF5D19B
:103C6000202180F8421000210163704708B590F8C8
:103C70004210222901D0022008BD82684FF48053EF
:103C80009A4201D1016921B1816A9A421BD04AB19D
:103C90000AE00268816A5268C2F308020A80816AF7
:103CA000891C08E0026972B10268526802F07F0262
:103CB0000A70816A491C8162C18D491E0904090C80
:103CC000C18503D01BE002685268F1E70168CA6849
:103CD00022F02002CA600168CA6822F48072CA60B9
:103CE00001684A6922F001024A61202180F84210ED
:103CF00000214163026B012A03D0FEF7BDFF0020C3
:103D000008BD016301680C3151E8002F22F0100258
:103D100041E80023002BF5D101680A68D20602D5DC
:103D20000A6849680091818DFEF74FFDE7E70000C2
:103D300070B5044600680169E26821F440511143FE
:103D400001612169A0680843616908432168CA6864
:103D500041F20C639A430243CA6020684169A26938
:103D600021F44071114341611E492068884202D10B
:103D7000FEF75AF901E0FEF747F900EBC00101EB4D
:103D80000012606864218000B2FBF0F3B3FBF1F332
:103D90006FF018067343B2FBF0F5B2FBF0F605EBDB
:103DA0008305322303EB0515B5FBF1F5B6FBF1F600
:103DB00005F0F00505EB0615B2FBF0F6B2FBF0F0EE
:103DC000B0FBF1F06FF01802504306EB800003EBFC
:103DD0000010B0FBF1F0216800F00F00284488606B
:103DE00070BD00000038014081628285C2850021DB
:103DF0004164222180F84210016921B10168CA683A
:103E000042F48072CA6001684A6942F001024A6164
:103E10000068C16841F02001C160002070472DE9B1
:103E2000F843984617460D460446089E24E0701C49
:103E300022D0FDF799FBA0EB0800B0421AD8CEB112
:103E40002068C168490717D5802D15D0402D13D0A3
:103E50000168C94309070FD4016800254068009034
:103E60002046FFF7DCFE0820606484F84050012003
:103E7000BDE8F8830320FBE72068006835EA00000E
:103E800004D00020B842D2D00020F1E70120F9E7A9
:103E90000148FEF79DBC0000D80200200148FEF753
:103EA00097BC000020030020FEE7000010B5FFF7DC
:103EB0006FFB00210FA20846FFF72CFC4FF47A722B
:103EC00010A111A0FDF794F843F698220DA111A0BE
:103ED000FDF78EF830B116A202210020FFF71AFC80
:103EE000012010BD15A202210020FFF713FC0020C5
:103EF00010BD0000436F6E6E656374696E672E2E91
:103F00002E0000004F4B000041542B43574D4F44AF
:103F1000453D310041542B43574A41503D22736582
:103F20006C66222C22313132323333343522000098
:103F3000576946693A204F4B21000000576946698E
:103F40003A2054696D656F75742100000907090EE8
:103F5000002804DB00F1E02080F80014704700F036
:103F60000F0000F1E02080F8141D704730380A2857
:103F700001D20120704700207047000088B0FDF793
:103F80004FFEFFF703FEFFF717FAFFF771FAFFF78F
:103F9000FDF9FFF78DFAFFF7DDFAFFF7BFFAFFF73C
:103FA00011FB0021A1A20846FFF7B4FBFDF70AF8B8
:103FB00040F6B830FDF7BEF9FCF760FFFFF7E8FA0E
:103FC000FFF7B8F9FFF733F9FFF770FF08B1FFF714
:103FD000EFFC4FF48046994D994C77004FF0000864
:103FE0000023012202A99748FEF7E0FD28B90A2321
:103FF000012202A99448FEF75BFEFDF7B5FA61695C
:10400000401A32284BD3FDF7AFFA6061314628469B
:10401000FDF7A0FAB8B91420FDF78CF9314628460F
:10402000FDF798FA78B9A0780322401CB0FBF2F3B0
:1040300002FB1300A070FFF7ABFA31462846FDF7EC
:1040400089FA0028F9D039462846FDF783FAB8B92D
:104050001420FDF76FF939462846FDF77BFA78B949
:10406000E078A0B10020E07098B10022012128463C
:10407000FDF775FA39462846FDF76CFA0028F9D0A5
:104080004FF480512846FDF765FA20B107E0012082
:10409000E9E70122EAE784F80280FFF779FAFDF701
:1040A00063FAE169401A282814D3FDF75DFA6449E0
:1040B000E0611031081FFFF7F1F8216949F640402F
:1040C000814203D9E068FCF729FE03E084F8008010
:1040D00084F80180FDF748FAA169401AB0F5FA7F2B
:1040E00017D3FDF741FA5649A0610022091D574830
:1040F000FEF7A8F95249002230315448FEF77BF907
:10410000FCF78AFEE062A07820B1012839D00228AD
:1041100069D07DE04A49091D887800904B780A787B
:104120004BA15148FCF760F800214F4A0846FFF7C1
:10413000F1FA43483030817800914378C2784A4898
:104140004AA11430FCF750F8474A022114320020EB
:10415000FFF7E0FAE06A824600F028FD814600F0B1
:1041600061FD514600F056FE464900F087FD00F023
:104170001DFD03464A4644A103A8FCF735F803AAEF
:1041800042E0002145A20846FFF7C4FA47A20221F7
:104190000020FFF7BFFA22782AB10323022128204A
:1041A000FFF796FA04E043A202212820FFF7B2FAB3
:1041B00042A202214B20FFF7ADFA41A204210020C8
:1041C000FFF7A8FA62782AB1032304212820FFF719
:1041D0007FFA04E037A204212820FFF79BFA04218C
:1041E00039A24B2012E0002138A20846FFF792FACC
:1041F0003AA202210020FFF78DFA05230221322086
:10420000A268FFF765FA37A204210020FFF782FABF
:10421000FDF7AAF9216A401A44F620618842FFF4AA
:10422000DFAEFDF7A1F92062DAE60000496E69749D
:1042300069616C697A696E672E2E2E000008014054
:1042400004000020D802002020030020C402002027
:1042500054696D653A20253032643A253032643A2B
:10426000253032640000000048020020446174657B
:104270003A203230253032642D253032642D2530FD
:10428000326400000000204154656D703A202532F0
:10429000642E253164204320202000002D2D2D2068
:1042A0004865616C7468202D2D2D000048523A201D
:1042B00000000000576169740000000042504D008A
:1042C00053704F323A000000250000002D2D2D20A4
:1042D00053706F7274202D2D2D0000005374657083
:1042E000733A0000576946693A20436F6E6E656302
:1042F0007465640010B500290AD00878002807D03A
:1043000005487844FCF7C2FC002801D0002010BD0D
:104310000248784410BD0000221000001A1000006E
:1043200021F00042A2F16052B2F5801F01F000437B
:1043300028BFD2F17F6C0BD95FEA001C43EAC202AE
:1043400042EB507018BF704728BF20F00100704743
:10435000B2F5801FBCBF184670474FEA410C1CF5F0
:10436000001F02D2084600F050BD70B500F08AF977
:1043700000000089FFF7F6BF4FF00040A0F5800075
:104380007047000010B591EA030F48BF83F0004367
:1043900000F1D481841A71EB030C05D2121943EB9E
:1043A0000C03001B61EB0C01DFF824E14FEA115410
:1043B000A4EB135C1EEA430F18BF9EEA445F73D060
:1043C00023EA0E03DCF1200E21EA045143F48013AA
:1043D00032D322FA0CFE10EB0E0023FA0CFE41EB56
:1043E0000E01CCF1200E03FA0EFE10EB0E0051F17F
:1043F0000001B1F5801FCCF1200E32D201EB045147
:1044000012FA0EF2BDE8104058BF7047401C38BF8A
:104410005FEA420218BF7047002814BF20F0010075
:1044200041F100014FEA410313F5001F38BF704707
:10443000A1F1C04100F074B9012A43EB0302ACF1D1
:10444000200CDCF11F0E32BF4FF0000E23FA0CF3EC
:1044500010EB030041EB0451B4EB115FD0D0A1EBA2
:10446000045101F5801149085FEA300001EB045165
:104470000ED350F1000038BF12FA0EFE08D1BDE88D
:104480001040C9E7401C38BF5FEA4202CAD1C3E707
:10449000BDE810404FEA410313F5001F38BF7047D5
:1044A000A1F1C04100F03CB99EEA445F08D011EA96
:1044B0005E0FBDE8104004BF01F0004100207047CE
:1044C000BDE8104070B500F0DDF800BF64FBBE3EF3
:1044D0000000E0FF4FEA1153A3F58063D3F11E0300
:1044E000A8BFD3F1200C08DB4FF0004242EAC12202
:1044F00052EA505232FA03F0704709420BD4102BA3
:10450000C4BF0020704703F5787CBCF1FF3F05D0A5
:104510004FF0FF3070474FF00000704770B500F06B
:10452000B1F800BF4992248000207047F0E70000F6
:10453000DFF848C170B51CEA111E1EBF1CEA131536
:104540009EEA0C0F95EA0C0F00F06F8081EA0304DD
:1045500023EA4C134EEAD47E21EA4C1141F4801137
:1045600043F48013AE44A1FB024CA0FB0365AEF103
:104570007F7E361955EB0C05A1FB034C4CF1000373
:10458000A0FB021C16EB0C06654153F10003094227
:1045900018BF46F0010613F4007F0BD14FEA033138
:1045A0004FEA0530340341EA155140EA16506FF0E6
:1045B00003020AE04FEAC3214FEAC520F40241EAB0
:1045C000555140EA56506FF0020202EB2E4201EBC9
:1045D000025585EACE710AD05FEA440C18BF24F078
:1045E000004450F1000041F1000120EAD47040F293
:1045F000FE7C624500D270BDA84214BF4FF08044DB
:104600004FF04044002E08BF0024BEF1806FA8BFC9
:10461000A1F1C041BDE8704080F282804FF00000FF
:1046200001F1C04101F0004170479EEA0C0F0CEA15
:10463000131518BF95EA0C0F06D04FF0000081EA61
:10464000030E0EF0004170BD00F01CF88900013E21
:1046500000F007B800F009B84FEA430C5FEA5C5C71
:1046600008D081EA030100F05BB84FEA410C5FEA31
:104670005C5CF6D14FF00000014970470000FF0775
:104680000000F87F0EF1020E2EF0030E5EF8046BB0
:10469000364205D4012A43EB030515F5001F12D855
:1046A000012841EB010C1CF5001F0CD80ED14FEA7C
:1046B000D17C15F5001F0CEB4C0C0CF1020C08BF63
:1046C0004CEBD37C04E04FF0080C01E04FEAD37CC4
:1046D0000CEB4C0526FA05F606F00706B6F1040CBD
:1046E00006D20EEB860CBDE870404CF0010C604722
:1046F000DFE80CF0090B02024FF000414FF0000020
:10470000A1F5002170BD19461046012851EB0104A6
:1047100018BFD4F5001484BF002001F0004170BD23
:104720000808A0F500114FEA3101704710B591EA71
:10473000030F48BF83F000433FF52CAE841A71EBA2
:10474000030C07D212198CF0004C43EB0C03001B36
:1047500061EB0C01DFF8A4E14FEA1154A4EB135C08
:104760001EEA430F18BF9EEA445F00F0B08023EAC0
:104770006E03524221EA0451C3EB6E0338BF5B1E45
:10478000DCF1200E25D322FA0CFE10EB0E0043FACA
:104790000CFE41EB0E01CCF1200E03FA0EFE10EBE5
:1047A0000E0051F10001CCF1200E29D412FA0EF2C4
:1047B00001EB0451BDE8104058BF7047401C1CBFBE
:1047C000B2F1004F704700280CBF491C20F00100D7
:1047D000704712EB020E43EB030218BF4FF0010EBD
:1047E0004EEA4202ACF1200CDCF11E0E54D943FA21
:1047F0000CFE10EB0E0051F1FF31CCF11E0ED5D5A1
:104800000EF1010E12FA0EFE404141EB010101EBE7
:10481000445C5FEA5C5C10D910EBDE7001EB045184
:1048200038BFBEF1004FBDE8104018BF70470028E8
:104830000CBF491C20F00100704730D24FEAD42C45
:1048400011F5001124F400641BD0B1FA81F20B3A87
:10485000A41AA41ED2F12003914030FA03F31943A5
:10486000904001EBCC71002C01EB0451BDE81040ED
:10487000A8BF704701F1C0414FF0000001F00041B6
:104880007047B0FA80F310FA03F100D110BDE41ABA
:10489000173C4805C90AE4E701EB045110BD491073
:1048A00001EB0451BDE810404FEA300002E04FF048
:1048B000000170474A0008BF0042F8D0B2F5001F5F
:1048C00028BF704701F000414FF0000070479EEA9A
:1048D000445F07D011EA5E0FBDE8104004BF00211D
:1048E00000207047BDE8104070B5FFF7CBFE00BF59
:1048F00040DFF63E83F00041104670470000E0FFC5
:1049000043004FEAD30C4FEA3C0C43401FBF400723
:104910000CF1605113F0FE4F70471CF0006F03D193
:1049200000200CF0004170470CF0004343EA507047
:1049300010B540EACC0000F022FA00BF000000925F
:104940004FEA0001FFF7ECBE4FF000414FF00000CE
:10495000A1F500217047000090EA010F48BF81F0E7
:10496000004100F16882421A3CBF801A89184FEA60
:10497000D0524FF07F4C1CEA410FA2EBD15318BF2D
:104980009CEA026F00F03B804FF0004C4CEA0020A4
:104990004CEA012121FA03FC10EB0C0C1ED202F1AF
:1049A000FF325FEA1C2040EBC25038BF70471CF05A
:1049B0007F0F4FEA400C18BFBCF17F4F38BF7047E4
:1049C000C3F12003994008BF20F00100BCF17F4FE4
:1049D00038BF7047A0F1C04000F017BA4FEA3C0062
:1049E000000A40EBC25028BF1CF0FF0F4FEA400CFA
:1049F000E6D018BFBCF17F4F38BF7047EAE79CEAAA
:104A0000026F05D010EA5C0F08BF00F0004070474D
:104A100010B500F0B4F900BF64FBBE3E014800F0E1
:104A200078BA00BF0000C07F4FF47F0C1CEAD012A0
:104A30001EBF1CEAD11392EA0C0F93EA0C0F00F090
:104A4000858090EA010F48BF42F4807240F4000C68
:104A500041F400002CF07F4120F07F4000B58142FE
:104A6000A2EB03020FF2081CACEB504EC0F10000A9
:104A70009EF800E04FEA4E0E00FB0EFC38BF4900E6
:104A80004FEA2C1C02F5FA020CFB0EF34FEACE1E85
:104A90004FEA112C4FEAC1210EEB635E42EB22423A
:104AA0000EFB0CFC4FEA1C5300FB03114FEA112CC8
:104AB0004FEA01310EFB0CFC4FEADC4C00FB0C1101
:104AC000C14228BF09184CEB03335DF804EB10EB2F
:104AD000410143EBC250B2F57C0F38BF704729D576
:104AE00012F0F00F1CBF00F1C04000F00040704712
:104AF000008182838485868788898B8C8D8E8F91B7
:104B00009293959697999A9C9D9FA0A2A3A5A7A8DA
:104B1000AAACAEB0B2B3B5B7B9BCBEC0C2C5C7C906
:104B2000CCCED1D4D7D9DCDFE2E6E9ECF0F3F7FA6A
:104B3000FE0000004FEA400C0CF1807CBCF17E4F7F
:104B400028BF7047B0F1C04000F05FB990EA010F94
:104B50000CEAD11348BF42F48072624538BF634506
:104B600007D213F47F0F16D080EA010000F0004056
:104B7000704710B500F003F9097EFC3E00F005B85F
:104B800080EA010000F00040704780EA010000F078
:104B9000004000F03AB912F47F0F04BF024870479A
:104BA00080EA010000F031B90000C07F41000B0E27
:104BB000D3F19E0208D950F400034FEA032323FAED
:104BC00002F048BF4042704710B500F0D8F800BF6F
:104BD00049922480002070476FF0004282EA200052
:104BE00070470000C10DD1F19E0206DB4FEA0023A1
:104BF00043F0004323FA02F07047004207D54FEA22
:104C00004001B1F1FE4F02D24FF00000704710B5E5
:104C100000F0B5F849922480002070476FEA200028
:104C20007047000010F0004148BF4042B0FA80F3E6
:104C300010FA03F2C3F19D030BD051EAC35101EB0B
:104C40001220530638BF704700F1010008BF20F062
:104C500001007047B0FA80F310FA03F2C3F19D032C
:104C60000AD0D90501EB1220530638BF704700F176
:104C7000010008BF20F00100704700004FF47F0CD6
:104C80001CEAD0121EBF1CEAD11392EA0C0F93EA61
:104C90000C0F00F0478090EA010F48BF42F4807289
:104CA0004FF0004C4CEA00204CEA012102EB0302D9
:104CB000A0FB0113A2F50002002918BF43F0010375
:104CC0005B0028BF4FEA330342EB22425FEA132C1A
:104CD0004CEBC2502EBFBCEB436FB2F57C0F70475C
:104CE0004FEA036CBCF1004F08BF20F00100B2F5A1
:104CF0007C0F38BF70470BD582F0FF0212F5803F62
:104D0000C8BF704700F1C040D8BF00F000407047F6
:104D100000F5000C5FEA4C0C48BF7047B0F1C04092
:104D200000F073B890EA010F0CEAD11348BF42F4C7
:104D30008072624538BF634504D280EA010000F00A
:104D40000040704710B500F01AF800BF8900013E1E
:104D500000F007B800F009B85FEA410C5FEA1C6C8C
:104D600008D080EA010000F050B85FEA400C5FEA2A
:104D70001C6CF6D14FF00040A0F5800070470EF19A
:104D8000020E2EF0030E5EF8044B244204D44FEAC8
:104D90004102B2F17F4F11D84FEA4003B3F17F4F88
:104DA0000CD80ED14FEAD07CB2F17F4F0CEB4C0CFB
:104DB0000CF1020C08BF4CEBD17C04E04FF0080C66
:104DC00001E04FEAD17C0CEB4C0324FA03F404F02D
:104DD0000704B4F1040C06D20EEB840CBDE81040BD
:104DE0004CF0010C6047DFE80CF0070802024FF0BE
:104DF0000040A0F5800010BD0846420018BFD2F167
:104E0000807288BF00F0004010BDFF2141EAD05001
:104E1000C005704780F0004090EA010F7FF5A3AD18
:104E200081F0004100F007B890EA010F48BF81F01F
:104E300000413FF598AD421A04D882F00042A0EB41
:104E4000020011444FEAD0524FF07F4C1CEA410F50
:104E5000A2EBD15318BF9CEA026F4AD04FF0004C2E
:104E60004CEA00204CEA012121FA03FCB0EB0C0CC7
:104E70000FD412F0FE0F36D05FEA4C001DD50012A1
:104E800040EBC25038BF70471CF03F0F18BF70474F
:104E90000BE0A2F101025FEA1C2040EBC25038BFD8
:104EA00070471CF07F0F18BF7047C3F12003994073
:104EB00014BF401E20F00100704780084FEA122303
:104EC00008BF7047B0FA80FCA2EB0C02CCF1280CB2
:104ED00060FA0CF093EA122F04BF00EBC250704747
:104EE0004FEAC3707047130A5FEADC1008BF7047CF
:104EF000F6E79CEA026F04D010EA5C0F08BF0020BE
:104F0000704710B5FFF73BFF40DFF63E81F00040F1
:104F100070470CF00F03092B08BF082000F05180E8
:104F20000A2B0BD0082B18BF704708BF1CF0400F8E
:104F30000AD04FF000004FF0000170471CF0400F06
:104F400018BF4FF0004070471CF0100F08D020F041
:104F5000704300F07F4242EAD3014FEA437070474A
:104F600000F0604021F07F4242EA000201F07F4001
:104F700040EA727070474FF0FF0212EAD0521CBF35
:104F800092F0FF038B42C2BFD14200EBC150704789
:104F9000002A0AD0002B0BD0002900F00040A4BF4B
:104FA00040F0FE4040F40000704700F000407047C1
:104FB00043024FF00B0C18BF4CF0806C7FF42EAD09
:104FC00070471CF4801F11D01CF4E02F03D06FEA4F
:104FD000CC31490070474FF04050EFF3008222F08F
:104FE000704242EA000282F3008870474FF00000EE
:104FF000704700000000000000005F000000000794
:1050000000070000147F147F1400242A7F2A120056
:10501000231308646200364955225000000503003E
:105020000000001C224100000041221C0000140866
:105030003E08140008083E08080000503000000038
:10504000080808080800006060000000201008043C
:1050500002003E5149453E0000427F40000042614F
:10506000514946002141454B31001814127F100070
:105070002745454539003C4A494930000171090539
:105080000300364949493600064949291E000036C1
:1050900036000000005636000000081422410000CF
:1050A00014141414140041221408000002015109C0
:1050B0000600324979413E007E1111117E007F4980
:1050C000494936003E41414122007F4141221C00B6
:1050D0007F49494941007F09090901003E41494989
:1050E0007A007F0808087F0000417F4100002040CF
:1050F000413F01007F08142241007F4040404000B2
:105100007F0204027F007F0408107F003E4141417E
:105110003E007F09090906003E4151215E007F09DA
:105120001929460046494949310001017F01010022
:105130003F4040403F001F2040201F007F2018209C
:105140007F006314081463000304780403006151B2
:1051500049454300007F414100000204081020003F
:105160000041417F000004027F02040040404040B3
:1051700040000001020400002054545478007F488D
:1051800044443800384444442000384444487F00B4
:10519000385454541800087E09010200081454546D
:1051A0003C007F080404780000447D40000020405B
:1051B000443D00007F102844000000417F40000073
:1051C0007C0418047C007C080404780038444444BF
:1051D00038007C1414140800081414187C007C088F
:1051E00004040800485454542000043F4440200064
:1051F0003C4040207C001C2040201C003C403040B3
:105200003C004428102844000648502816004464F6
:10521000544C440000083641000000007F000000AC
:1052200000413608000010080810080001020203BF
:105230000405060708090A0B0C0D0E0F10100102D9
:1052400002030405060708090A0B0C0D0E0F1010C7
:105250000000000000000000010203040607080926
:105260000000000001020304040000080000000028
:10527000000000020001000010000000474554201B
:105280002F3F6170703D6C6966652E74696D65268F
:105290006170706B65793D373832353426736967D4
:1052A0006E3D3430303161303439663631376339F0
:1052B000333334306562346166323761633561316E
:1052C000353326666F726D61743D6A736F6E204868
:1052D0005454502F312E310D0A486F73743A2061A7
:1052E00070692E6B3738302E636F6D0D0A436F6E09
:1052F0006E656374696F6E3A20636C6F73650D0A37
:105300000D0A00003454000800000020480000008E
:10531000280100087C54000848000020C80900004B
:10532000440100081001000043000000F8FFFFFFE7
:1053300000404040404040404040414141414140A8
:10534000404040404040404040404040404040405D
:1053500040050202020202020202020202020202EC
:1053600002202020202020202020200202020202F1
:105370000202909090909090101010101010101049
:105380001010101010101010101010100202020255
:105390000202888888888888080808080808080899
:1053A0000808080808080808080808080202020295
:1053B00040000000000000000000000000000000AD
:1053C00000000000000000000000000000000000DD
:1053D00000000000000000000000000000000000CD
:1053E00000000000000000000000000000000000BD
:1053F00000000000000000000000000000000000AD
:10540000000000000000000000000000000000009C
:10541000000000000000000000000000000000008C
:10542000000000000000000000000000000000007C
:10543000000000000000000000000000000000006C
:10544000000000000000000000000000000000005C
:10545000000000000000000000000000000000004C
:10546000000000000000000000000000010000003B
:0C547000100000000000000000127A0094
:04000005080000ED02
:00000001FF
