:020000040800F2
:10000000300700209101000843240008CB1C0008A1
:1000100041240008AF050008E9280008000000009E
:10002000000000000000000000000000612800083F
:100030002D080008000000003D2600086328000885
:10004000AB010008AB010008AB01000881270008E4
:10005000AB010008AB010008AB010008AB010008D0
:10006000AB010008AB010008AB010008AB010008C0
:10007000AB010008AB010008AB010008AB010008B0
:10008000AB010008AB010008AB010008AB010008A0
:10009000AB010008AB010008AB010008AB01000890
:1000A000AB010008AB010008AB010008AB01000880
:1000B000AB010008AB010008AB010008AB01000870
:1000C000AB010008AB010008AB010008AB01000860
:1000D000AB010008AB010008AB010008AB01000850
:1000E000AB010008AB010008AB01000800F002F80A
:1000F00000F03FF80AA090E8000C82448344AAF183
:100100000107DA4501D100F034F8AFF2090EBAE880
:100110000F0013F0010F18BFFB1A43F0010318473B
:10012000243A0000443A0000103A24BF78C878C14D
:10013000FAD8520724BF30C830C144BF04680C60ED
:10014000704700000023002400250026103A28BF35
:1001500078C1FBD8520728BF30C148BF0B60704739
:10016000642900F07180002070471FB51FBD10B5D5
:1001700010BD00F0E2F91146FFF7F7FF02F0CCFBEB
:1001800000F000FA03B4FFF7F2FF03BC00F008FA36
:100190000948804709480047FEE7FEE7FEE7FEE71B
:1001A000FEE7FEE7FEE7FEE7FEE7FEE70448054957
:1001B000054A064B70470000E7280008ED000008DC
:1001C00030010020300700203003002030030020E1
:1001D0000FB41CB5074B06AA7B44694600900598EE
:1001E00000F093F90020694600F0A2F91CBC5DF80C
:1001F00014FB00005503000070B5044685690068D3
:10020000C10601D5302600E02026C00707D070BD0A
:10021000D4E9012130469047206A401C20626D1EBF
:10022000F6D570BD70B5044685690078C00707D162
:1002300070BDD4E9012120209047206A401C206233
:100240006D1EF6D570BD00002DE9F0410646002474
:1002500010687529314616A510D0AFF3008000282C
:1002600002DA404213A507E031688A0701D512A5DA
:1002700002E0490704D511A5012401E0AFF3008095
:1002800000210A2206F1240709E0B0FBF2FCB0FBD2
:10029000F2F302FB1C00303078541846491C002849
:1002A000F3D123462A463046BDE8F04100F0CEB8EF
:1002B000000000002D0000002B00000020000000C6
:1002C0002DE9F05F894604464FF0000ADFF824B1BB
:1002D000FB44C0F820A02046E168884700287DD074
:1002E000252806D0D4E901219047206A401C2062CD
:1002F000F1E700255F462046E1688847202806464A
:1003000007DB312E05D2B81910F8200C08B10543CF
:10031000F1E7A80701D525F00405C4F81CA00027C3
:10032000C4F818A02A2E09D0304602F0EEFA38B3ED
:1003300004EB8708303EC8F8186019E059F8041B30
:10034000204604EB87029161E1688847012F064649
:1003500018D1E069002820DA25F020051DE0D8F842
:10036000180000EB800006EB40003038C8F8180099
:100370002046E1688847064602F0C7FA0028EED119
:10038000012F0AD02E2E08D12046E16888477F1C15
:100390000646022F45F02005C4DBA069002803DAD9
:1003A000404245F00105A061E80701D025F01005A5
:1003B000A6B1A6F14100192802D8203645F40065FF
:1003C0004A463146204625604D46FFF7C9FE60B1DA
:1003D000012807D0ED1D25F0070000E007E000F13F
:1003E000080978E705F1040975E730467AE7206ADD
:1003F000BDE8F09F5C3800004FF0000200B51346E6
:1004000094469646203922BFA0E80C50A0E80C5034
:10041000B1F12001BFF4F7AF090728BFA0E80C50E5
:1004200048BF0CC05DF804EB890028BF40F8042BDE
:1004300008BF704748BF20F8022B11F0804F18BF4B
:1004400000F8012B70477047704770472DE9F0475F
:100450000D4699469246044600F124080168880634
:1004600004D5E06921F01001216000E00120A842DC
:1004700001DD471B00E00027A1697A1902EB0900A2
:10048000081AA0612078C00602D42046FFF7B4FE07
:10049000002608E0D4E901211AF806009047206AF6
:1004A000401C761C20624E45F4DB2078C0060AD53D
:1004B0002046FFF7A1FE06E0D4E901213020904755
:1004C000206A401C2062381EA7F10107F4DC07E017
:1004D000D4E9012118F805009047206A401C2062E9
:1004E000281EA5F10105F3DC2046FFF79BFE2078CE
:1004F000000602D50220BDE8F0870120FBE70000DE
:1005000001694A1C02610878704700B58FB0CDE9D7
:1005100001310021059105497944CDE903101146C7
:100520006846FFF7CDFE0FB000BD0000E5FFFFFFFE
:100530000A6802F8010B0A607047754600F02CF853
:10054000AE4605006946534620F00700854618B0C0
:1005500020B5FFF72BFEBDE820404FF000064FF01E
:1005600000074FF000084FF0000B21F00701AC46E8
:10057000ACE8C009ACE8C009ACE8C009ACE8C00907
:100580008D46704710B50446AFF300802046BDE8A5
:100590001040FFF7F7BD000000487047D000002072
:1005A00001491820ABBEFEE7260002007047FEE7B7
:1005B0002DE9F047304C814688460846666A02F0CD
:1005C000ADFF0546B6F17E5F00DA6562284602F0AF
:1005D000FBFD2A4A2A4B02F00FFC06460F46606AD2
:1005E00002F0F2FD274A284B02F006FC32463B4659
:1005F00002F02CFB02F0F8FA606202F0E5FD234AFB
:10060000234B02F0F9FB02F0C9FB404516D200F083
:100610002BFA216A401AB0F5E17F0FD900F024FAD5
:10062000216A401A40F2DC51884204D24EF6602121
:10063000B1FBF0F0207000F017FA2062484602F09B
:100640006DFF294602F054FE6FF07C51114A0144BF
:1006500091420FD2104902F075FF104903F03EF8A5
:1006600002F024FFC0B26070642801D96420607079
:10067000BDE8F0876220FAE7000000207B14AE4757
:10068000E17A943F5C8FC2F5285CEF3F14AE47E1FE
:100690007A14F03F99999900000070410000DC4203
:1006A00010B500F02FF8CC2000F094F8442000F0B2
:1006B00091F800F027F8CC2000F08CF8BE2000F074
:1006C00089F800F055F8044600F052F844EA00209A
:1006D00000B202F00BFFBDE810406FF0030103F021
:1006E000AEB800001FB50020019003904FF40060E9
:1006F0000090012002906946014800F0BBF81FBD40
:100700000008014070B5002400F020F80E4E4FF4B0
:10071000006500222946304600F0A1F94FF4F07040
:1007200000F09AF8FFF7DEFF3C2000F095F829462C
:10073000304600F08FF900B901244FF4D27000F078
:100740008BF8204670BD0000000801401FB5002056
:1007500002904FF40060009011200190032003905C
:100760006946024800F086F81FBD000000080140FD
:100770002DE9F0410025164F2C464FF001084FF4AB
:10078000006600BFFFF7E2FF00223146384600F066
:1007900066F9022000F060F8FFF7A4FF3146384602
:1007A00000F058F9012803D108FA04F02843C5B233
:1007B0003C2000F051F801223146384600F04FF954
:1007C000641CE4B2082CDDD32846BDE8F0810000AB
:1007D000000801402DE9F0410546FFF7B7FF124F31
:1007E00000244FF4006600223146384600F037F905
:1007F000022000F031F8E80701D0012200E00022D9
:100800003146384600F02BF93C2000F025F8012253
:100810003146384600F023F9641C6D08E4B2082C18
:10082000E1D3BDE8F081000000080140704772B6D6
:10083000FEE7000070B5044600F016F90546601C9E
:1008400002D004480078044400F00EF9401BA04296
:10085000FAD370BD300000200449054A0968B1FB95
:10086000F2F14143491EFDD2704700003C000020D8
:1008700000093D002DE9F84FDFF8B8910024A9F1F7
:10088000040B23460F2709F1040AABF1040EC9E05B
:100890000125A5402A40AA427DD1674ED1F804C067
:1008A000ACEB0608B44532D014DCBCF1030F3AD0EF
:1008B00009DCBCF1000F2AD0BCF1010F1CD0BCF147
:1008C000020F31D11DE0BCF1110F17D0BCF1120F96
:1008D0002AD119E0B8F5881F19D006DCB8F5803F99
:1008E00015D0B8F5801F1FD111E0B8F5001F0ED04C
:1008F000B8F5041F18D10AE0CB6815E0CB681B1DC2
:1009000012E0CB6808330FE0CB680C330CE08B6847
:100910002BB1012B4FF0080303D0456104E0042301
:1009200002E0056100E00023FF2A01D8064601E04D
:1009300000F104064FEA840501D9A5F12005D6F897
:10094000008007FA05FC28EA0C0803FA05F548EAD6
:100950000508C6F800804D68ED0062D5374DAE69D8
:1009600046F00106AE61AD6924F0030605F001050D
:100970000095334D06EB050CDCF80850A607360F42
:1009800007FA06F825EA0805DFF8B880404503D1E4
:100990004FF0000817E044E0DFF8AC80404502D19A
:1009A0004FF001080FE0DFF8A480404502D14FF07E
:1009B000020808E0DFF89880404502D14FF00308B4
:1009C00001E04FF0040808FA06F848EA0508CCF8F8
:1009D00008804D68D9F80060ED024D4601D51643F8
:1009E00000E096432E604D68DAF80060AD0255468F
:1009F00001D5164300E096432E604D68DBF8006099
:100A0000AD035D4601D5164300E096432E604D6868
:100A1000DEF80060ED03754601D5164300E096430D
:100A20002E60641C0D682A46E5407FF431AFBDE8B6
:100A3000F88F00000804014000001110001002406F
:100A40000000014000080140000C0140001001407E
:100A5000001401408068084000D0012070470AB1AE
:100A6000016170470904FBE7014880687047000096
:100A70003000002070B5040025D094F83D0000251A
:100A800020B984F83C50204600F014FB242084F860
:100A90003D002068016821F00101016020680168C3
:100AA00041F4004101602068016821F400410160C7
:100AB00000F02AFD4D4A6168914201D84C4900E09E
:100AC0004C49884201D2012070BD4B492368B0FBDC
:100AD000F1F15E6826F03F060E435E606368934264
:100AE00006D94FF4967359434FF47A73B1FBF3F17F
:100AF0002368491C1E6A26F03F063143196261686B
:100B0000914210D84900401EB0FBF1F2521CC2F3D2
:100B10000B02042A01D2042022E0B0FBF1F0401CB9
:100B2000C0F30B001CE0A268F2B301EBC10303EBBE
:100B30000116431EB3FBF6F35B1C43F480431B0515
:100B400049D092B301EBC10202EB0111401EB0FB90
:100B5000F1F0401CC0F30B0040F4804040F4004032
:100B60002168CA694CF6FF739A431043C861D4E9FF
:100B7000071001432068026822F0C002114301609F
:100B8000D4E9030101432068826848F2FF339A43A5
:100B900011438160D4E9050108432168CA6822F045
:100BA000FF021043C86001E00EE016E02068016813
:100BB00041F0010101602564202084F83D00256397
:100BC00084F83E50002070BD01EB4106431EB3FB8C
:100BD000F6F35B1CB3E70120C2E701EB4101401EC5
:100BE000B0FBF1F0401CC0F30B00B7E7A08601009A
:100BF00080841E0000093D0040420F002DE9F84F9F
:100C00001F4690468A460446DDF82890FFF72CFFE1
:100C1000054694F83D0020287FD119230122404940
:100C20002046009501F0B6F9002876D194F83C00F2
:100C3000012872D0012084F83C0020680168C907AF
:100C400003D1016841F0010101602068016821F4CD
:100C500000610160212084F83D00102084F83E00EE
:100C600000262664C4F824806785608D20852D4881
:100C7000E0622B464A465146204601F03FF890B9C3
:100C8000206841698069009036E02A46494620463E
:100C900001F05EFA50B1206C042804D1206801688C
:100CA00041F4007101600120BDE8F88F606A21689D
:100CB00000780861606A401C6062618D491E618530
:100CC000218D491E89B2218522685369DB435B0768
:100CD0000BD451B100781061606A401C6062608D75
:100CE000401E6085208D401E20852A4649462046AC
:100CF00001F024F90028CED1208D0028C5D154F868
:100D00003D0B016841F400710160202004F81E09C8
:100D1000E67766770020C7E7FFE70220C4E7000018
:100D2000020010000000FFFF2DE9FF4F83B00025F7
:100D3000DDE910799A4693460446DDF8488000952F
:100D4000FFF792FE064694F83D0020287CD1192337
:100D5000012288492046009601F01CF90028F5D1AF
:100D600094F83C0001286FD0012084F83C002068F2
:100D70000168C90703D1016841F0010101602068E1
:100D8000016821F400610160222084F83D004020C8
:100D900084F83E0025646762A4F82A90608D20855F
:100DA0007548E062CDE9008653465A4620460499CC
:100DB00000F0F2FF00287CD1208DDFF8C0912027C1
:100DC00068B1012814D00228206801681ED041F4BF
:100DD000806101602068416980690090BCE0206802
:100DE000416981690091016841F400710160B3E0DB
:100DF0002068016821F48061016072B62068416951
:100E000081690091016841F400710AE041F40061D8
:100E1000016072B62068416981690091016821F41E
:100E20008061016062B697E0032865D801280CD084
:100E3000022843464FF000024946204600960BD058
:100E400001F0A8F8A8BB0CE091E0324641462046EC
:100E500001F046F968BB72E001F09CF848BB72B63D
:100E600033E02068016821F48061016072B6206877
:100E70000069616A0870606A401C6062208D401ED3
:100E80002085608D401E60853D4846F2A8110068AF
:100E9000B0FBF1F0C0EBC00000EB80000090401E02
:100EA000009007D020684069C04340070DD50098E6
:100EB000F5E727E044F8305F6773A573206940F0D9
:100EC0002000206162B625731CE02068016841F4AF
:100ED0000071016020680069616A0870606A401CE6
:100EE0006062218D491E2185618D491E618562B632
:100EF00021680969017026E032464146204601F02A
:100F0000EFF818B1012007B0BDE8F08F2068006944
:100F1000616A0870606A401C6062208D401E81B268
:100F20002185608D401E608520684269D24352074A
:100F300012D4032903D1016821F480610160206883
:100F40000069616A0870606A401C6062208D401E02
:100F50002085608D401E6085208D00287FF464AF61
:100F600084F83D7084F83E5084F83C50CBE7022072
:100F7000C9E70000020010000000FFFF04000100AC
:100F80003C0000202DE9FF4F83B09A46DDE9119720
:100F900093460446DDF84080FFF766FD054694F869
:100FA0003D0020287FD11923012240492046009589
:100FB00000F0F0FF002876D194F83C00012872D0B0
:100FC000012084F83C0020680168C90703D101684A
:100FD00041F0010101602068016821F400610160B5
:100FE000212084F83D00402084F83E00002626643D
:100FF000C4F82480A4F82A90608D20852C48E062F3
:10100000CDE9007553465A462046049900F042FF48
:1010100070B930E02A463946204601F099F858B1B7
:10102000206C042804D12068016841F4007101603B
:10103000012007B0BDE8F08F606A21680078086180
:10104000606A401C6062218D491E89B22185628DD3
:10105000521E628522685369DB435B070BD469B17A
:1010600000781061606A401C6062208D401E2085FF
:10107000608D401E6085208D0028CBD12A463946E0
:10108000204600F05BFF0028CAD154F83D0B0168F0
:1010900041F400710160202004F81E09E6776677AC
:1010A0000020C6E7FFE70220C3E7000002001000AF
:1010B0000000FFFF10B586B0002100910191029160
:1010C000039100680F4988421AD10F4CA06940F083
:1010D0000800A061A069694600F008000490C020E3
:1010E000009012200190032003900848FFF7C2FBF4
:1010F000E06940F40010E061E06900F40010049041
:1011000006B010BD0054004000100240000C014029
:1011100002488168027811448160704730000020E5
:10112000074810B5016841F010010160032000F08C
:1011300075F80F2000F006F800F024F8002010BD2C
:101140000020024070B50D4D04464FF47A712878A6
:10115000B1FBF0F00A490968B1FBF0F000F0A1FD25
:1011600048B9102C07D200222146501E00F036F854
:1011700000206C6070BD012070BD000030000020B8
:101180003C0000200C4808B5816941F001018161F3
:10119000816901F001010091C16941F08051C16193
:1011A000C06900F0805000900448416821F0E0617F
:1011B00041F00071416008BD001002400000014094
:1011C000002809DB00F01F02012191404009800046
:1011D00000F1E020C0F8001170470000F0B40E4BA1
:1011E0001B680C46C3F30223C3F10705042D00D985
:1011F0000425191D072901D2002300E0DB1E01266A
:1012000006FA05F1491E214099409E40761E16407F
:101210003143F0BC01F069BB0CED00E0064900F081
:10122000070208684FF6FF03184040EA0220034A0D
:1012300010430860704700000CED00E00000FA0564
:10124000014901200862704700000E4210B50146B6
:101250000020234C012922D0022939D010291DD188
:1012600061682268D20119D51E48C1F38342C903BF
:10127000805C0AD561681B4AC1F34041921E515CF3
:10128000194AB2FBF1F1484301E01849484361684B
:10129000490203D440000321B0FBF1F010BD226AE3
:1012A000C2F30121012903D1920701D5C80310BD62
:1012B000022905D1626A920702D549F6404010BD65
:1012C0000329FCD121688903F9D54FF2244010BDD0
:1012D00000F02AF96168C1F38131491C4900DBE75C
:1012E00000100240083B000800127A0000093D008F
:1012F0002DE9F84305460078354CC00754D0E06925
:101300000026C00008D4E06940F08050E061E06948
:10131000012600F0805000902E480168C90512D4C3
:101320000168804641F480710160FFF79DFB07462C
:1013300005E000BFFFF798FBC01B642823D8D8F84E
:101340000000C005F6D5206A10F4407021D0A988AD
:1013500001F4407181421CD0206A1F49012220F40F
:1013600040700A6000220A602062C00711D0FFF7B7
:101370007BFB074641F2883808E000BFFFF774FBAB
:10138000C11B414502D90320BDE8F883206A8007CC
:10139000F4D5206A696820F44070084320621EB1C9
:1013A000E06920F08050E0612878800705D560680A
:1013B000A96820F44040084360602878C00605D53D
:1013C0006068E96820F48000084360600020DBE783
:1013D0000010024000700040400442422DE9F047F6
:1013E0000F46050061D0434E306800F00700B84258
:1013F00009D2306820F0070038433060306800F0D0
:101400000700B84251D128683B4C810712D54007EC
:1014100003D5606840F4E06060602878000703D579
:10142000606840F4605060606068A96820F0F00077
:10143000084360602878C00728D06868012810D069
:101440002168022810D0890700292EDA616821F06E
:10145000030101436160FFF707FB804641F28839D1
:101460000DE021688903EFE78901EDE7FFF7FCFA5A
:10147000A0EB0801494502D90320BDE8F087606868
:10148000696800F00C00B0EB810FEFD1306800F01C
:101490000700B8420BD9306820F0070038433060AD
:1014A000306800F00700B84201D00120E5E7287855
:1014B000400705D56068E96820F4E0600843606093
:1014C0002878000706D56068296920F4605040EA52
:1014D000C100606000F038F86168084AC1F3031188
:1014E000515CC8400649086006480068FFF72AFEBC
:1014F0000020C2E70020024000100240183B000814
:101500003C00002034000020044805490068496878
:10151000044AC1F30221515CC84070473C000020DE
:1015200000100240283B000804480549006849684B
:10153000044AC1F3C221515CC84070473C000020FE
:1015400000100240283B00080E4A51680E4801F086
:101550000C03042B11D0082B0FD10C48C1F383438B
:10156000C903C05C0AD55168084AC1F34041921EC4
:10157000515C054A5043B0FBF1F0704704494843C1
:10158000704700000010024000127A00F63A00088E
:1015900000093D002DE9F84F040070D02078C04DBF
:1015A000C00749D06868C0F38100012807D0686887
:1015B000C0F38100022809D16868C00306D52868F5
:1015C000800339D560680028E7D035E06068B0F561
:1015D000803F0BD010B1B0F5A02F11D0286820F4B7
:1015E00080302860286820F4802002E0286840F4D9
:1015F00080302860606890B1FFF736FA06460AE04E
:10160000286840F480202860F0E700BFFFF72CFA3C
:10161000801B642873D828688003F7D50CE0FFF797
:1016200023FA064605E000BFFFF71EFA801B642878
:10163000F0D828688003F7D420789A4E80074FF0BE
:1016400001094FF0000839D5686810F00C0F07D079
:101650006868C0F38100022809D16868C00306D415
:101660002868800714D52069012808D110E0206976
:10167000B0B1C6F80090FFF7F7F9074605E00AE1B8
:10168000FFF7F2F9C01B0228C4D828688007F7D5F5
:101690002868616920F0F80040EAC10028600DE088
:1016A000C6F80080FFF7E0F9074604E0FFF7DCF931
:1016B000C01B022823D828688007F7D420780007A9
:1016C0002CD57948A169D9B1C0F80090FFF7CCF9C1
:1016D000074604E0FFF7C8F9C01B02280FD8686A64
:1016E0008007F7D571484FF4FA510068B0FBF1F06C
:1016F000009000BF0098411E0091FAD20EE080E0F9
:10170000C0F80080FFF7B0F9074604E0FFF7ACF936
:10171000C01B022875D8686A8007F7D42078400774
:1017200060D5E8690027C00008D4E86940F080501F
:10173000E861E869012700F0805000905C4801688A
:10174000C90513D40168834641F480710160FFF735
:101750008BF9824606E000BFFFF786F9A0EB0A008E
:1017600064284ED8DBF80000C005F5D5E0680128F4
:101770000AD008B1052813D0286A20F00100286299
:10178000286A20F0040002E0286A40F00100286284
:10179000E06841F2883B98B1FFF766F982460BE0BA
:1017A000286A40F004002862EEE700BFFFF75CF90A
:1017B000A0EB0A0159455AD8286A8007F6D50CE0F3
:1017C000FFF752F9824605E0FFF74EF9A0EB0A0158
:1017D00059454CD8286A8007F6D41FB1E86920F033
:1017E0008050E861E06988B36968C1F3810102292A
:1017F00044D00228C6F8608004D0FFF735F90446CB
:1018000038E034E0FFF730F9074604E0FFF72CF941
:10181000C01B02282BD828688001F7D4206AB0F5B5
:10182000803F05D16868A16820F4003008436860F3
:10183000D4E908010843696821F474110843686019
:10184000C6F86090FFF710F9044606E025E000BFF7
:10185000FFF70AF9001B022809D828688001F7D58C
:101860001BE000BFFFF700F9001B022802D903208C
:10187000BDE8F88F28688001F4D40EE00128F7D085
:101880006868226A00F48031914204D1616A00F4F0
:101890007010884201D00120EAE70020E8E700004C
:1018A0000010024000004242800442423C000020FE
:1018B000007000407047704710B50446006801682A
:1018C000C90717D04168C90714D0406840072046AF
:1018D00007D5FFF7F0FF21686FF00400486004208F
:1018E00002E0FFF7E7FF012060742068416821F003
:1018F0000101416010BDF8B505004FF0000016462B
:101900000C46009006D02CB100226946284600F013
:1019100019F808B10120F8BD287B2070E87BE07041
:10192000697B6170A97BA17056B100F091FEE070F7
:10193000607800F08DFE6070A07800F089FEA070E5
:101940000020F8BD2DE9F04791460C465FEA0008FB
:101950004AD084B3D8F800004068400744D44046D9
:1019600000F01BFF4FF461620546B0FBF2F1B0FBE3
:10197000F2F302FB13503C23B0FBF3F0B5FBF2F69D
:10198000607002FB1650B0FBF3F203FB1200A07074
:10199000182931D31820B1FBF0F7B1FBF0F200FBAE
:1019A00012102070404600F0F1FE411C04D0A84205
:1019B00002D9461B02E017E04FF0FF36A7EB0710F5
:1019C00000EB4000C0EB001005EBC0152946404677
:1019D00000F032FF40B9701C01D0711900E03146AF
:1019E000404600F015FF10B10120BDE8F0873946F0
:1019F000404600F038FE00E02170B9F1000F0BD036
:101A0000207800F025FE2070607800F021FE6070E4
:101A1000A07800F01DFEA0700020E6E770B504007D
:101A200003D0607C002610B105E0012070BD267453
:101A3000204600F03DF802206074204600F014F9C2
:101A4000042550BB204600F065FE30BB206841688D
:101A500021F007014160A06820B11448016821F01D
:101A6000010101601148001F0168A26821F4607142
:101A7000114301606068411C04D10120FFF7E6FBBF
:101A800058B1401E2268C0F303419160216880B2C2
:101A9000C860204600F058FE08B16574C5E7E673DB
:101AA00001206073A0736074002070BD306C004032
:101AB00008B500680D49884217D1FFF7C1FB0C48F3
:101AC000C16941F00061C161C0690A4900F000606C
:101AD000009001200860002211460320FFF77EFBE2
:101AE000BDE808400320FFF76BBB08BD002800409D
:101AF000001002403C0442422DE9F0410D46040032
:101B00003BD0C5B3207C01283AD04FF0010884F8BF
:101B1000108002206074E87872B300F090FDE073EA
:101B2000687800F08CFD6073A87800F088FDA073E1
:101B3000C2B2617BE07B00F040FE2073287020463B
:101B400000F02BFE4FF46161B0FBF1F10025182984
:101B50002DD91822B1FBF2F1A1EB011101EB4101EA
:101B6000C1EB011100EBC1163146204600F064FEC6
:101B70000427C8B90BE000E004E00120BDE8F081D3
:101B80000220FBE7E07368786073A878CFE720460F
:101B900000F0FCFD411C0AD0B04208D206490144C5
:101BA000204600F035FE10B167742574E5E784F82F
:101BB000118025740020E1E7805101002DE9F041FA
:101BC0000D46040024D01DB3207C012823D04FF003
:101BD000010884F81080022060742878EAB100F0CF
:101BE0002EFD4FF4616100FB01F6687800F027FDDF
:101BF000C0EB001006EB8006A87800F020FD351839
:101C00002946204600F018FE0026042710BB0FE0EE
:101C10000120BDE8F0810220FBE74FF461614843F9
:101C20006978C1EB011100EB8100A9784518E7E75D
:101C30002068416821F005014160204600F0A6FDC2
:101C4000411C0AD0A84208D206490144204600F0AF
:101C5000DFFD10B167742674DAE784F8118026740A
:101C60000020D6E78051010070B504000AD020683A
:101C7000416821F008014160FEF7F6FE05464FF489
:101C80007A7608E0012070BDFEF7EEFE401BB04200
:101C900001D9032070BD206840680007F4D50020FA
:101CA00070BD10B5401EB0F1807F01D3012010BD82
:101CB0004FF0E02460610F21601700F016FE002055
:101CC000A06107202061002010BDFEE701684A697D
:101CD000D24352050FD46FF480624A61002140F86C
:101CE000301F202242738173026942F004020261B4
:101CF000017301207047002070470000F8B50446CA
:101D0000C06A1E460D461746082807D0012805D090
:101D100010F5803F02D0206B122804D120680168A2
:101D200041F480710160134600224FF001112046FA
:101D3000009600F02FF940B120680068C00502D578
:101D40004FF4007020640320F8BD2069B0F5804F87
:101D50000ED00620216800EAD51040F0F00008619E
:101D600033463A460B49204600F05CF978B902E068
:101D700005F0FE0000E0E8B221680861054933463D
:101D80003A46891F204600F04DF90028DCD001209A
:101D9000F8BD0000080001002DE9F84F0446006876
:101DA00089460B9D01689846174641F480610160A1
:101DB0002068016841F48071016000954FF0011BBB
:101DC0000022594620460A9B00F0E4F84FF4007ABE
:101DD00040B120680068C00501D5C4F840A00320C8
:101DE000BDE8F88F216809F0FE0008612B462849FC
:101DF00020460A9A00F016F9F0BB20684169806914
:101E000000902A4620460A9900F0A2F940B1206CC1
:101E100004283AD12068016841F40071016034E07F
:101E2000FEB2B8F1010F09D02168380A08612A46CC
:101E300020460A9900F08CF90028E8D12068066154
:101E40002A4620460A9900F083F90028DFD120684D
:101E5000016841F4807101600095002259462046D6
:101E60000A9B00F097F80028B3D1216809F0FF0021
:101E700040F00100086100E007E02B4604492046DD
:101E80000A9A00F0CFF80028AAD00120A8E70000A5
:101E9000020001002DE9F843044600680D46DDE923
:101EA000089701689846164641F4807101604B46D8
:101EB00000224FF001112046009700F06BF848B166
:101EC00020680068C00502D54FF40070206403202C
:101ED000BDE8F883216805F0FE0008613B464A46EC
:101EE0001549204600F09EF888B92068416980694C
:101EF00000903A464946204600F02AF948B1206C45
:101F0000042804D12068016841F4007101600120B7
:101F1000DEE7F5B2B8F1010F09D02168300A086197
:101F20003A464946204600F013F90028E7D12068D8
:101F300005610020CCE700000200010070B51646E4
:101F40000D4604461EE02046FFF7C0FE08B1012002
:101F500070BD681C16D0FEF787FD801BA84200D814
:101F600085B920684069C04340070BD5002044F87C
:101F7000300F20216173A073216941F0200121619C
:101F80002073E4E720684069C0434007DBD40020A9
:101F900070BD00002DE9F047984617460D460446EF
:101FA000C1F30746DDF820902AE000BFB8F1FF3FFB
:101FB00026D0FEF759FDA0EB0901414502D8B8F142
:101FC000000F1DD12068012E16D0806925EA00007F
:101FD0000004000C12D00020B84211D1002044F8B7
:101FE000300F20216173A073216941F0200121612C
:101FF00020730120BDE8F0874069E7E70120EBE7A7
:102000002068012E0AD0806925EA00000004000C37
:1020100006D00020B842C9D00020EBE74069F3E7C2
:102020000120F7E72DE9F047984616460D4604468D
:102030004FF000094FF0200AC1F3074723E0206862
:102040004069C043400515D42068016841F400711F
:10205000016021686FF480604861C4F8309084F8B2
:102060003DA084F83E90216C41F00401216484F885
:102070003C9021E0701C06D0FEF7F6FCA0EB0800B7
:10208000B04203D816B1012F1FD021E02068012FE4
:1020900015D0806925EA00000004000C18D000BFAC
:1020A00044F8309F84F80DA084F80E90216941F027
:1020B0002001216184F80C900120BDE8F08740697F
:1020C00025EA00000004000CEAD12068406901E024
:1020D0002068806925EA00000004000CAFD1ECE71D
:1020E0002DE9F041002590460E460446202728E0C1
:1020F0004069C043C0060CD454F8301B6FF0100088
:10210000486144F810596777A577206A20622577DF
:1021100014E0FEF7A9FCA0EB0800B04200D886B995
:1021200020684069C04340060BD544F8305F6773B0
:10213000A573206940F02000206125730120BDE8CF
:10214000F08120684169C9434906D1D40020F6E7EF
:1021500070B516460D4604461EE02046FFF7B6FD54
:1021600008B1012070BD681C16D0FEF77DFC801BF5
:10217000A84200D885B920684069C04300060BD545
:10218000002044F8300F20216173A073216941F0D1
:10219000200121612073E4E720684069C043000604
:1021A000DBD4002070BD10B54021092000F06CF890
:1021B0004FF4FA70FEF73EFB0021022000F064F8B5
:1021C0000021032000F060F80021042000F05CF8FA
:1021D0000021052000F058F80021062000F054F8F6
:1021E0005021082000F050F80321092000F04CF89D
:1021F00027210A2000F048F832210C2000F044F892
:1022000032210D2000F040F80021BDE810401020E0
:1022100000F03AB830B585B00C4605466422062178
:1022200003A88DE8070001230722AE211548FEF719
:102230007BFD9DF80C009DF80D10000440EA012084
:102240009DF80E100843C0F3110028609DF80F00A0
:102250009DF81010000440EA01209DF81110084379
:10226000C0F3110020600021042000F00DF80021CF
:10227000052000F009F80021062000F005F805B05F
:1022800030BD00006800002003B583B06423012244
:1022900004A98DE80E0013460246AE210248FEF75F
:1022A00071FE05B000BD0000680000202DE9FF416F
:1022B0000024012603AF8DF80C4064250097CDE97A
:1022C000016533466B22D0210D48FEF75BFE8DF889
:1022D0000C400097CDE9016501231C22D02108485C
:1022E000FEF750FE8DF80C400097CDE90165012303
:1022F0001B22D0210248FEF745FEBDE8FF81000009
:102300006800002070B586B0002420480094019435
:1023100002940394816941F010018161816901F0A7
:1023200010010491816941F020018161816901F00E
:1023300020010491816941F004018161816901F00A
:1023400004010491816941F0080181618069104EA6
:1023500000F0080040F601050490012229463046AD
:10236000FEF77DFB0220CDE902400095012569467C
:1023700001953046FEF77EFAE8038DE831006946A4
:102380003046FEF777FA06B070BD0000001002403C
:10239000000801400D4810B50B4901600C4941602F
:1023A00000214FF480428160C0E9031241618161E4
:1023B000C1610162FEF75EFB002803D0BDE810405A
:1023C000FEF735BA10BD0000005400406800002040
:1023D000801A06001CB50024184801941649009480
:1023E0000160611E41604FF480718160FFF716FB50
:1023F00008B1FEF71CFA8DF804408DF805408DF801
:102400000640002201A90D48FFF7D8FB08B1FEF7EE
:102410000EFA01208DF800008DF801008DF8020001
:102420008DF80340002269460448FFF765FB002849
:1024300001D0FEF7FCF91CBD00280040BC000020C4
:10244000FEE7FEE770B5002404F1B000C0B200F072
:10245000D1F8002000F0CEF8102000F0CBF80025D5
:10246000002000F0D9F86D1CEDB2802DF8D3641C6B
:10247000E4B2082CE8D370BD10B56420FEF7DAF999
:10248000AE2000F0B7F8202000F0B4F8102000F0E3
:10249000B1F8B02000F0AEF8C82000F0ABF8002092
:1024A00000F0A8F8102000F0A5F8402000F0A2F8F5
:1024B000812000F09FF8FF2000F09CF8A12000F0A0
:1024C00099F8A62000F096F8A82000F093F83F2095
:1024D00000F090F8A42000F08DF8D32000F08AF8E6
:1024E000002000F087F8D52000F084F8F02000F0FC
:1024F00081F8D92000F07EF8222000F07BF8DA2065
:1025000000F078F8122000F075F8DB2000F072F887
:10251000202000F06FF88D2000F06CF8142000F0FF
:1025200069F8AF2000F066F8BDE81040FFF78ABFF9
:1025300010B50446B031C8B200F05CF8102040EA93
:10254000141000F057F804F00F00BDE8104040F000
:10255000010000F04FB8000070B5203AD5B2FFF787
:10256000E7FF074905EB4500002401EB4005285D26
:1025700000F052F8641CE4B2062CF8D370BD0000E1
:10258000BA3800082DE9F04700241E461546894652
:1025900080460A2714E000BFB5FBF7F007FB105098
:1025A0003030C2B2301B00EB400108EB4100801F0D
:1025B000C0B24946FFF7D0FFB5FBF7F5641CE4B2A3
:1025C000B442E9D3BDE8F08770B515460E4604461F
:1025D0000BE031462046FFF7BFFFA41DE4B27A2C82
:1025E00002D90024761CF6B26D1C2A78002AF0D19C
:1025F00070BD00001CB500218DF804108DF8050099
:1026000064200090022301AA78210248FEF7F6FA1E
:102610001CBD0000680000201CB540218DF804108E
:102620008DF8050064200090022301AA7821024859
:10263000FEF7E4FA1CBD00006800002070470109A5
:1026400001EB810100F00F0000EB4100C0B27047C8
:10265000002102E00A38C0B2491C0A28FAD2090750
:1026600040EA116070472DE9F04104460025C07B27
:10267000627BA37B42E0012A16D0032A14D0052AEC
:1026800012D0072A10D0082A0ED00A2A0CD00C2A01
:102690000AD0042A10D0062A0ED0092A0CD00B2A00
:1026A0000AD0022A0DD028E01F2B0CD30C2A05D10A
:1026B00001221346401C20E01E2B04D30123521C90
:1026C0001BE01C2B02D203F1010316E011D183B2EF
:1026D0009E0710D16426B3FBF6F706FB173636B912
:1026E0004FF4C876B3FBF6F706FB17331BB91D236F
:1026F00003E01D2B01D1032201236D1C8D42BAD3AF
:10270000D1B2E0736173DAB2A27300F056F82073AD
:10271000BDE8F08170B50446FEF7A6F905464FF412
:102720007A7606E0FEF7A0F9401BB04201D90320FB
:1027300070BD206840688006F4D52068416841F08B
:1027400010014160002070BD70B50446006841680A
:1027500021F010014160FEF787F905464FF47A76C3
:1027600007E000BFFEF780F9401BB04201D903200B
:1027700070BD206840688006F4D5002070BD000060
:102780000148FFF799B80000BC0000200168086A02
:10279000496A89B241EA00407047006881698AB29B
:1027A000C1698BB2816989B28A4203D0C06961F381
:1027B0001F40704743EA02407047F0B56424C1EB04
:1027C000C1030927A500072603EB01130329B3FB67
:1027D000F7F100F5FA60114401440AD2401EB0FB43
:1027E000F4F201EB9001B0FBF5F0891A0844001DEA
:1027F00008E0B0FBF4F201EB9001B0FBF5F0891AB0
:102800000844801CB0FBF6F106FB1100C0B2F0BD1D
:1028100070B50D4606460024FFF77CFF48B93168C5
:10282000280C08623168A8B248623046FFF78CFF76
:1028300000B10124204670BD70B50D460646002447
:10284000FFF768FF48B93168280C88613168A8B281
:10285000C8613046FFF778FF00B10124204670BD03
:102860007047FEF755BC70B594B028216846FDF757
:10287000C3FD14210AA8FDF7BFFD00250F9509200F
:10288000012410950090119512954FF48030049416
:102890000694CDE901050226CDE907604FF4E0106A
:1028A00009906846FEF776FE08B172B6FEE70F2083
:1028B000CDE90A064FF48060CDE90C5002210AA848
:1028C0000E95FEF78BFD08B172B6FEE74FF400706F
:1028D000CDE90F400FA8FEF70BFD002801D072B61E
:1028E000FEE714B070BD7047FEE70907090E002827
:1028F00004DB00F1E02080F80014704700F00F00C6
:1029000000F1E02080F8141D704730380A2801D209
:1029100001207047002070470EB5FEF701FCFFF75D
:10292000A2FFFFF7EFFCFFF735FDFFF753FDFFF7C1
:10293000A3FDFDF7E7FEFFF785FDFFF7B7FCFFF707
:1029400032FC15208DF804000A208DF805001E20A9
:102950008DF80600002201A98148FFF72FF91A20FF
:102960008DF80B0004208DF809000F208DF80A0067
:10297000002202A97A48FFF7BFF8002179A2084691
:10298000FFF722FE7B4F7C4C4FF40045294638462A
:10299000FEF760F8C8B90A20FDF74CFF2946384613
:1029A000FEF758F888B9A07800287DD00020A070E4
:1029B00000287AD0002201213846FEF750F8294637
:1029C0003846FEF747F80028F9D0FEF74DF8A16920
:1029D000401AB0F57A7F56D3FEF746F86649A061F3
:1029E0000022C91C5E48FEF7ADFF634900222C316E
:1029F0005B48FEF780FF6049C91C887800904B78DF
:102A00000A785EA16348FDF7E3FB0021614A0846AE
:102A1000FFF7DAFD58482C30817800914378C2786E
:102A20005C485DA11430FDF7D3FB5A4A01211432F2
:102A30000020FFF7C9FDFDF733FE0646A06200F057
:102A400019FD804600F052FD314600F047FE58491E
:102A500000F078FD00F00EFD064656A2022100208F
:102A6000FFF7B2FD0223424619463020FFF78AFDE8
:102A70002E2202213C20FFF76FFD01233246022166
:102A80004220FFF77FFDFDF7EFFF6169401A6428E0
:102A900010D3FDF7E9FF606148A203210020FFF792
:102AA00093FD0523032101E024E025E03020A26806
:102AB000FFF768FDFDF7D8FFE169401A2828FFF409
:102AC00065AFFDF7D1FF2C49E0611031081FFFF71A
:102AD000A1FB216949F6404081420FD200202070BD
:102AE000607038A204211E20FFF76EFD052135A27B
:102AF000282032E001205AE701225CE7E068FDF778
:102B000057FD32A204210020FFF75EFD22782AB192
:102B1000032304211E20FFF735FD04E02DA204212C
:102B20001E20FFF751FD2CA204213C20FFF74CFD95
:102B30002AA205210020FFF747FD62782AB103236E
:102B400005212820FFF71EFD04E022A205212820F0
:102B5000FFF73AFD23A205214620FFF735FD15E7D3
:102B6000BC000020496E697469616C697A696E679E
:102B70002E2E2E00000801400000002054696D65D3
:102B80003A20253032643A253032643A25303264B6
:102B90002020200040000020446174653A2032303B
:102BA000253032642D253032642D2530326400000A
:102BB0000000204154656D703A2000005374657028
:102BC0003A0000002D2D2D202000000048523A2010
:102BD0000000000043414C0042504D0053704F3202
:102BE0003A0000002500000021F00042A2F16052EE
:102BF000B2F5801F01F0004328BFD2F17F6C0BD9E2
:102C00005FEA001C43EAC20242EB507018BF7047F3
:102C100028BF20F001007047B2F5801FBCBF1846E6
:102C200070474FEA410C1CF5001F02D2084600F025
:102C300050BD70B500F08AF900000089FFF7F6BFBB
:102C40004FF00040A0F580007047000010B591EAF9
:102C5000030F48BF83F0004300F1D481841A71EB65
:102C6000030C05D2121943EB0C03001B61EB0C01A2
:102C7000DFF824E14FEA1154A4EB135C1EEA430F82
:102C800018BF9EEA445F73D023EA0E03DCF1200EE6
:102C900021EA045143F4801332D322FA0CFE10EBE4
:102CA0000E0023FA0CFE41EB0E01CCF1200E03FACC
:102CB0000EFE10EB0E0051F10001B1F5801FCCF1BA
:102CC000200E32D201EB045112FA0EF2BDE8104090
:102CD00058BF7047401C38BF5FEA420218BF7047B8
:102CE000002814BF20F0010041F100014FEA410328
:102CF00013F5001F38BF7047A1F1C04100F074B94F
:102D0000012A43EB0302ACF1200CDCF11F0E32BFB1
:102D10004FF0000E23FA0CF310EB030041EB0451CB
:102D2000B4EB115FD0D0A1EB045101F5801149083B
:102D30005FEA300001EB04510ED350F1000038BFC0
:102D400012FA0EFE08D1BDE81040C9E7401C38BF9A
:102D50005FEA4202CAD1C3E7BDE810404FEA41032F
:102D600013F5001F38BF7047A1F1C04100F03CB916
:102D70009EEA445F08D011EA5E0FBDE8104004BF30
:102D800001F0004100207047BDE8104070B500F030
:102D9000DDF800BF64FBBE3E0000E0FF4FEA1153C8
:102DA000A3F58063D3F11E03A8BFD3F1200C08DB89
:102DB0004FF0004242EAC12252EA505232FA03F086
:102DC000704709420BD4102BC4BF0020704703F595
:102DD000787CBCF1FF3F05D04FF0FF3070474FF0DB
:102DE0000000704770B500F0B1F800BF4992248030
:102DF00000207047F0E70000DFF848C170B51CEA1A
:102E0000111E1EBF1CEA13159EEA0C0F95EA0C0F4B
:102E100000F06F8081EA030423EA4C134EEAD47E6B
:102E200021EA4C1141F4801143F48013AE44A1FB1C
:102E3000024CA0FB0365AEF17F7E361955EB0C0505
:102E4000A1FB034C4CF10003A0FB021C16EB0C068B
:102E5000654153F10003094218BF46F0010613F41F
:102E6000007F0BD14FEA03314FEA0530340341EACA
:102E7000155140EA16506FF003020AE04FEAC321F1
:102E80004FEAC520F40241EA555140EA56506FF02E
:102E9000020202EB2E4201EB025585EACE710AD006
:102EA0005FEA440C18BF24F0004450F1000041F1E7
:102EB000000120EAD47040F2FE7C624500D270BD71
:102EC000A84214BF4FF080444FF04044002E08BF8A
:102ED0000024BEF1806FA8BFA1F1C041BDE87040E1
:102EE00080F282804FF0000001F1C04101F000410A
:102EF00070479EEA0C0F0CEA131518BF95EA0C0FE9
:102F000006D04FF0000081EA030E0EF0004170BDC4
:102F100000F01CF88900013E00F007B800F009B885
:102F20004FEA430C5FEA5C5C08D081EA030100F0E1
:102F30005BB84FEA410C5FEA5C5CF6D14FF00000F1
:102F4000014970470000FF070000F87F0EF1020EF4
:102F50002EF0030E5EF8046B364205D4012A43EBD3
:102F6000030515F5001F12D8012841EB010C1CF5D3
:102F7000001F0CD80ED14FEAD17C15F5001F0CEBC9
:102F80004C0C0CF1020C08BF4CEBD37C04E04FF06E
:102F9000080C01E04FEAD37C0CEB4C0526FA05F651
:102FA00006F00706B6F1040C06D20EEB860CBDE85F
:102FB00070404CF0010C6047DFE80CF0090B020296
:102FC0004FF000414FF00000A1F5002170BD1946FF
:102FD0001046012851EB010418BFD4F5001484BF3A
:102FE000002001F0004170BD0808A0F500114FEA73
:102FF0003101704710B591EA030F48BF83F00043D9
:103000003FF52CAE841A71EB030C07D212198CF029
:10301000004C43EB0C03001B61EB0C01DFF8A4E157
:103020004FEA1154A4EB135C1EEA430F18BF9EEA4B
:10303000445F00F0B08023EA6E03524221EA04515B
:10304000C3EB6E0338BF5B1EDCF1200E25D322FAE2
:103050000CFE10EB0E0043FA0CFE41EB0E01CCF11E
:10306000200E03FA0EFE10EB0E0051F10001CCF120
:10307000200E29D412FA0EF201EB0451BDE81040E3
:1030800058BF7047401C1CBFB2F1004F704700286A
:103090000CBF491C20F00100704712EB020E43EBFD
:1030A000030218BF4FF0010E4EEA4202ACF1200CB1
:1030B000DCF11E0E54D943FA0CFE10EB0E0051F158
:1030C000FF31CCF11E0ED5D50EF1010E12FA0EFE17
:1030D000404141EB010101EB445C5FEA5C5C10D9CB
:1030E00010EBDE7001EB045138BFBEF1004FBDE8BC
:1030F000104018BF704700280CBF491C20F0010089
:10310000704730D24FEAD42C11F5001124F400643A
:103110001BD0B1FA81F20B3AA41AA41ED2F12003FB
:10312000914030FA03F31943904001EBCC71002C2D
:1031300001EB0451BDE81040A8BF704701F1C04148
:103140004FF0000001F000417047B0FA80F310FA30
:1031500003F100D110BDE41A173C4805C90AE4E7A1
:1031600001EB045110BD491001EB0451BDE81040C2
:103170004FEA300002E04FF0000170474A0008BFFC
:103180000042F8D0B2F5001F28BF704701F000419F
:103190004FF0000070479EEA445F07D011EA5E0FCF
:1031A000BDE8104004BF002100207047BDE810407A
:1031B00070B5FFF7CBFE00BF40DFF63E83F0004165
:1031C000104670470000E0FF43004FEAD30C4FEA7F
:1031D0003C0C43401FBF40070CF1605113F0FE4F01
:1031E00070471CF0006F03D100200CF000417047C5
:1031F0000CF0004343EA507010B540EACC0000F0F8
:1032000022FA00BF000000924FEA0001FFF7ECBE77
:103210004FF000414FF00000A1F500217047000081
:1032200090EA010F48BF81F0004100F16882421A24
:103230003CBF801A89184FEAD0524FF07F4C1CEAED
:10324000410FA2EBD15318BF9CEA026F00F03B8004
:103250004FF0004C4CEA00204CEA012121FA03FC1B
:1032600010EB0C0C1ED202F1FF325FEA1C2040EB87
:10327000C25038BF70471CF07F0F4FEA400C18BF98
:10328000BCF17F4F38BF7047C3F12003994008BF9E
:1032900020F00100BCF17F4F38BF7047A0F1C04063
:1032A00000F017BA4FEA3C00000A40EBC25028BFBA
:1032B0001CF0FF0F4FEA400CE6D018BFBCF17F4F67
:1032C00038BF7047EAE79CEA026F05D010EA5C0F4E
:1032D00008BF00F00040704710B500F0B4F900BF1F
:1032E00064FBBE3E014800F078BA00BF0000C07F1A
:1032F0004FF47F0C1CEAD0121EBF1CEAD11392EAD5
:103300000C0F93EA0C0F00F0858090EA010F48BF84
:1033100042F4807240F4000C41F400002CF07F4134
:1033200020F07F4000B58142A2EB03020FF2081C9F
:10333000ACEB504EC0F100009EF800E04FEA4E0E9C
:1033400000FB0EFC38BF49004FEA2C1C02F5FA02C4
:103350000CFB0EF34FEACE1E4FEA112C4FEAC121AF
:103360000EEB635E42EB22420EFB0CFC4FEA1C5359
:1033700000FB03114FEA112C4FEA01310EFB0CFC4C
:103380004FEADC4C00FB0C11C14228BF09184CEB82
:1033900003335DF804EB10EB410143EBC250B2F58F
:1033A0007C0F38BF704729D512F0F00F1CBF00F119
:1033B000C04000F00040704700818283848586878A
:1033C00088898B8C8D8E8F919293959697999A9CE4
:1033D0009D9FA0A2A3A5A7A8AAACAEB0B2B3B5B753
:1033E000B9BCBEC0C2C5C7C9CCCED1D4D7D9DCDF29
:1033F000E2E6E9ECF0F3F7FAFE0000004FEA400CD9
:103400000CF1807CBCF17E4F28BF7047B0F1C0400A
:1034100000F05FB990EA010F0CEAD11348BF42F403
:103420008072624538BF634507D213F47F0F16D010
:1034300080EA010000F00040704710B500F003F989
:10344000097EFC3E00F005B880EA010000F0004073
:10345000704780EA010000F0004000F03AB912F431
:103460007F0F04BF0248704780EA010000F031B9C5
:103470000000C07F41000B0ED3F19E0208D950F42A
:1034800000034FEA032323FA02F048BF404270478B
:1034900010B500F0D8F800BF499224800020704792
:1034A0006FF0004282EA200070470000C10DD1F1A8
:1034B0009E0206DB4FEA002343F0004323FA02F0AA
:1034C0007047004207D54FEA4001B1F1FE4F02D2EA
:1034D0004FF00000704710B500F0B5F84992248015
:1034E000002070476FEA20007047000010F0004194
:1034F00048BF4042B0FA80F310FA03F2C3F19D03D3
:103500000BD051EAC35101EB1220530638BF70476C
:1035100000F1010008BF20F001007047B0FA80F30D
:1035200010FA03F2C3F19D030AD0D90501EB122072
:10353000530638BF704700F1010008BF20F00100BA
:10354000704700004FF47F0C1CEAD0121EBF1CEA2B
:10355000D11392EA0C0F93EA0C0F00F0478090EA27
:10356000010F48BF42F480724FF0004C4CEA00203B
:103570004CEA012102EB0302A0FB0113A2F50002B9
:10358000002918BF43F001035B0028BF4FEA330353
:1035900042EB22425FEA132C4CEBC2502EBFBCEB35
:1035A000436FB2F57C0F70474FEA036CBCF1004FDC
:1035B00008BF20F00100B2F57C0F38BF70470BD573
:1035C00082F0FF0212F5803FC8BF704700F1C04093
:1035D000D8BF00F00040704700F5000C5FEA4C0CCB
:1035E00048BF7047B0F1C04000F073B890EA010FD7
:1035F0000CEAD11348BF42F48072624538BF63457C
:1036000004D280EA010000F00040704710B500F0DD
:103610001AF800BF8900013E00F007B800F009B8B1
:103620005FEA410C5FEA1C6C08D080EA010000F000
:1036300050B85FEA400C5FEA1C6CF6D14FF00040D6
:10364000A0F5800070470EF1020E2EF0030E5EF81A
:10365000044B244204D44FEA4102B2F17F4F11D807
:103660004FEA4003B3F17F4F0CD80ED14FEAD07C24
:10367000B2F17F4F0CEB4C0C0CF1020C08BF4CEB81
:10368000D17C04E04FF0080C01E04FEAD17C0CEB58
:103690004C0324FA03F404F00704B4F1040C06D23A
:1036A0000EEB840CBDE810404CF0010C6047DFE8E5
:1036B0000CF0070802024FF00040A0F5800010BD9A
:1036C0000846420018BFD2F1807288BF00F0004067
:1036D00010BDFF2141EAD050C005704780F0004086
:1036E00090EA010F7FF5A3AD81F0004100F007B82B
:1036F00090EA010F48BF81F000413FF598AD421AB2
:1037000004D882F00042A0EB020011444FEAD052EC
:103710004FF07F4C1CEA410FA2EBD15318BF9CEA3B
:10372000026F4AD04FF0004C4CEA00204CEA0121D5
:1037300021FA03FCB0EB0C0C0FD412F0FE0F36D0C4
:103740005FEA4C001DD5001240EBC25038BF7047F5
:103750001CF03F0F18BF70470BE0A2F101025FEAB7
:103760001C2040EBC25038BF70471CF07F0F18BFC1
:103770007047C3F12003994014BF401E20F00100A0
:10378000704780084FEA122308BF7047B0FA80FCE8
:10379000A2EB0C02CCF1280C60FA0CF093EA122F89
:1037A00004BF00EBC25070474FEAC3707047130A62
:1037B0005FEADC1008BF7047F6E79CEA026F04D0AE
:1037C00010EA5C0F08BF0020704710B5FFF73BFF01
:1037D00040DFF63E81F0004070470CF00F03092BEC
:1037E00008BF082000F051800A2B0BD0082B18BF0F
:1037F000704708BF1CF0400F0AD04FF000004FF098
:10380000000170471CF0400F18BF4FF00040704798
:103810001CF0100F08D020F0704300F07F4242EA05
:10382000D3014FEA4370704700F0604021F07F42BF
:1038300042EA000201F07F4040EA727070474FF0A8
:10384000FF0212EAD0521CBF92F0FF038B42C2BFAC
:10385000D14200EBC1507047002A0AD0002B0BD098
:10386000002900F00040A4BF40F0FE4040F40000FA
:10387000704700F00040704743024FF00B0C18BF38
:103880004CF0806C7FF42EAD70471CF4801F11D07B
:103890001CF4E02F03D06FEACC31490070474FF0A1
:1038A0004050EFF3008222F0704242EA000282F3BD
:1038B000008870474FF000007047000000000000D3
:1038C00000005F000000000700070000147F147F65
:1038D0001400242A7F2A1200231308646200364948
:1038E00055225000000503000000001C224100008A
:1038F0000041221C000014083E08140008083E087D
:1039000008000050300000000808080808000060A7
:10391000600000002010080402003E5149453E00AE
:1039200000427F4000004261514946002141454B21
:1039300031001814127F10002745454539003C4AD4
:1039400049493000017109050300364949493600EB
:10395000064949291E000036360000000056360090
:103960000000081422410000141414141400412211
:1039700014080000020151090600324979413E0055
:103980007E1111117E007F49494936003E41414177
:1039900022007F4141221C007F49494941007F09A3
:1039A000090901003E4149497A007F0808087F0063
:1039B00000417F4100002040413F01007F08142268
:1039C00041007F40404040007F0204027F007F04AE
:1039D00008107F003E4141413E007F090909060071
:1039E0003E4151215E007F09192946004649494957
:1039F000310001017F0101003F4040403F001F2096
:103A000040201F007F2018207F00631408146300EB
:103A1000030478040300615149454300007F41419C
:103A200000000204081020000041417F0000040251
:103A30007F020400404040404000000102040000BA
:103A40002054545478007F48444438003844444457
:103A50002000384444487F00385454541800087EED
:103A600009010200081454543C007F080404780043
:103A700000447D4000002040443D00007F10284469
:103A8000000000417F4000007C0418047C007C089A
:103A9000040478003844444438007C1414140800AA
:103AA000081414187C007C0804040800485454547A
:103AB0002000043F444020003C4040207C001C206B
:103AC00040201C003C4030403C004428102844006A
:103AD0000648502816004464544C440000083641FF
:103AE000000000007F0000000041360800001008C0
:103AF00008100800010202030405060708090A0B62
:103B00000C0D0E0F10100102020304050607080930
:103B10000A0B0C0D0E0F101000000000000000003A
:103B20000102030406070809000000000102030463
:103B30000400000800000000000000020001000076
:103B400010000000643B000800000020400000005E
:103B500028010008A43B000840000020F0060000F7
:103B60004401000800000000000000000000000008
:103B70000000000000000000000000000000000045
:103B80000000000000000000000000000000000035
:103B90000000000001000000100000000000000014
:043BA00000127A0095
:04000005080000ED02
:00000001FF
