:020000040800F2
:100000001007002091010008571C00084F18000835
:10001000551C0008AF050008FD2000080000000086
:100020000000000000000000000000007520000833
:100030003D07000800000000511E0008772000085E
:10004000AB010008AB010008AB010008951F0008D8
:10005000AB010008AB010008AB010008AB010008D0
:10006000AB010008AB010008AB010008AB010008C0
:10007000AB010008AB010008AB010008AB010008B0
:10008000AB010008AB010008AB010008AB010008A0
:10009000AB010008AB010008AB010008AB01000890
:1000A000AB010008AB010008AB010008AB01000880
:1000B000AB010008AB010008AB010008AB01000870
:1000C000AB010008AB010008AB010008AB01000860
:1000D000AB010008AB010008AB010008AB01000850
:1000E000AB010008AB010008AB01000800F002F80A
:1000F00000F03FF80AA090E8000C82448344AAF183
:100100000107DA4501D100F034F8AFF2090EBAE880
:100110000F0013F0010F18BFFB1A43F0010318473B
:100120000829000028290000103A24BF78C878C1A7
:10013000FAD8520724BF30C830C144BF04680C60ED
:10014000704700000023002400250026103A28BF35
:1001500078C1FBD8520728BF30C148BF0B60704739
:10016000642900F07180002070471FB51FBD10B5D5
:1001700010BD00F0E2F91146FFF7F7FF01F0D6FFDE
:1001800000F000FA03B4FFF7F2FF03BC00F008FA36
:100190000948804709480047FEE7FEE7FEE7FEE71B
:1001A000FEE7FEE7FEE7FEE7FEE7FEE70448054957
:1001B000054A064B70470000FB200008ED000008D0
:1001C0001001002010070020100300201003002061
:1001D0000FB41CB5074B06AA7B44694600900598EE
:1001E00000F093F90020694600F0A2F91CBC5DF80C
:1001F00014FB00005503000070B5044685690068D3
:10020000C10601D5302600E02026C00707D070BD0A
:10021000D4E9012130469047206A401C20626D1EBF
:10022000F6D570BD70B5044685690078C00707D162
:1002300070BDD4E9012120209047206A401C206233
:100240006D1EF6D570BD00002DE9F0410646002474
:1002500010687529314616A510D0AFF3008000282C
:1002600002DA404213A507E031688A0701D512A5DA
:1002700002E0490704D511A5012401E0AFF3008095
:1002800000210A2206F1240709E0B0FBF2FCB0FBD2
:10029000F2F302FB1C00303078541846491C002849
:1002A000F3D123462A463046BDE8F04100F0CEB8EF
:1002B000000000002D0000002B00000020000000C6
:1002C0002DE9F05F894604464FF0000ADFF824B1BB
:1002D000FB44C0F820A02046E168884700287DD074
:1002E000252806D0D4E901219047206A401C2062CD
:1002F000F1E700255F462046E1688847202806464A
:1003000007DB312E05D2B81910F8200C08B10543CF
:10031000F1E7A80701D525F00405C4F81CA00027C3
:10032000C4F818A02A2E09D0304601F0F8FE38B3E0
:1003300004EB8708303EC8F8186019E059F8041B30
:10034000204604EB87029161E1688847012F064649
:1003500018D1E069002820DA25F020051DE0D8F842
:10036000180000EB800006EB40003038C8F8180099
:100370002046E1688847064601F0D1FE0028EED10C
:10038000012F0AD02E2E08D12046E16888477F1C15
:100390000646022F45F02005C4DBA069002803DAD9
:1003A000404245F00105A061E80701D025F01005A5
:1003B000A6B1A6F14100192802D8203645F40065FF
:1003C0004A463146204625604D46FFF7C9FE60B1DA
:1003D000012807D0ED1D25F0070000E007E000F13F
:1003E000080978E705F1040975E730467AE7206ADD
:1003F000BDE8F09F402700004FF0000200B5134613
:1004000094469646203922BFA0E80C50A0E80C5034
:10041000B1F12001BFF4F7AF090728BFA0E80C50E5
:1004200048BF0CC05DF804EB890028BF40F8042BDE
:1004300008BF704748BF20F8022B11F0804F18BF4B
:1004400000F8012B70477047704770472DE9F0475F
:100450000D4699469246044600F124080168880634
:1004600004D5E06921F01001216000E00120A842DC
:1004700001DD471B00E00027A1697A1902EB0900A2
:10048000081AA0612078C00602D42046FFF7B4FE07
:10049000002608E0D4E901211AF806009047206AF6
:1004A000401C761C20624E45F4DB2078C0060AD53D
:1004B0002046FFF7A1FE06E0D4E901213020904755
:1004C000206A401C2062381EA7F10107F4DC07E017
:1004D000D4E9012118F805009047206A401C2062E9
:1004E000281EA5F10105F3DC2046FFF79BFE2078CE
:1004F000000602D50220BDE8F0870120FBE70000DE
:1005000001694A1C02610878704700B58FB0CDE9D7
:1005100001310021059105497944CDE903101146C7
:100520006846FFF7CDFE0FB000BD0000E5FFFFFFFE
:100530000A6802F8010B0A607047754600F02CF853
:10054000AE4605006946534620F00700854618B0C0
:1005500020B5FFF72BFEBDE820404FF000064FF01E
:1005600000074FF000084FF0000B21F00701AC46E8
:10057000ACE8C009ACE8C009ACE8C009ACE8C00907
:100580008D46704710B50446AFF300802046BDE8A5
:100590001040FFF7F7BD000000487047B000002092
:1005A00001491820ABBEFEE7260002007047FEE7B7
:1005B00010B500F02FF8CC2000F094F8442000F0A3
:1005C00091F800F027F8CC2000F08CF8BE2000F065
:1005D00089F800F055F8044600F052F844EA00208B
:1005E00000B201F009FFBDE810406FF0030102F016
:1005F00098B800001FB50020019003904FF40060F0
:100600000090012002906946014800F0BBF81FBD30
:100610000008014070B5002400F020F80E4E4FF4A1
:10062000006500222946304600F0A1F94FF4F07031
:1006300000F09AF8FFF7DEFF3C2000F095F829461D
:10064000304600F08FF900B901244FF4D27000F069
:100650008BF8204670BD0000000801401FB5002047
:1006600002904FF40060009011200190032003904D
:100670006946024800F086F81FBD000000080140EE
:100680002DE9F0410025164F2C464FF001084FF49C
:10069000006600BFFFF7E2FF00223146384600F057
:1006A00066F9022000F060F8FFF7A4FF31463846F3
:1006B00000F058F9012803D108FA04F02843C5B224
:1006C0003C2000F051F801223146384600F04FF945
:1006D000641CE4B2082CDDD32846BDE8F08100009C
:1006E000000801402DE9F0410546FFF7B7FF124F22
:1006F00000244FF4006600223146384600F037F9F6
:10070000022000F031F8E80701D0012200E00022C9
:100710003146384600F02BF93C2000F025F8012244
:100720003146384600F023F9641C6D08E4B2082C09
:10073000E1D3BDE8F081000000080140704772B6C7
:10074000FEE7000070B5044600F016F90546601C8F
:1007500002D004480078044400F00EF9401BA04287
:10076000FAD370BD100000200449054A0968B1FBA6
:10077000F2F14143491EFDD2704700001C000020E9
:1007800000093D002DE9F84FDFF8B8910024A9F1E8
:10079000040B23460F2709F1040AABF1040EC9E04C
:1007A0000125A5402A40AA427DD1674ED1F804C058
:1007B000ACEB0608B44532D014DCBCF1030F3AD0E0
:1007C00009DCBCF1000F2AD0BCF1010F1CD0BCF138
:1007D000020F31D11DE0BCF1110F17D0BCF1120F87
:1007E0002AD119E0B8F5881F19D006DCB8F5803F8A
:1007F00015D0B8F5801F1FD111E0B8F5001F0ED03D
:10080000B8F5041F18D10AE0CB6815E0CB681B1DB2
:1008100012E0CB6808330FE0CB680C330CE08B6838
:100820002BB1012B4FF0080303D0456104E00423F2
:1008300002E0056100E00023FF2A01D8064601E03E
:1008400000F104064FEA840501D9A5F12005D6F888
:10085000008007FA05FC28EA0C0803FA05F548EAC7
:100860000508C6F800804D68ED0062D5374DAE69C9
:1008700046F00106AE61AD6924F0030605F00105FE
:100880000095334D06EB050CDCF80850A607360F33
:1008900007FA06F825EA0805DFF8B880404503D1D5
:1008A0004FF0000817E044E0DFF8AC80404502D18B
:1008B0004FF001080FE0DFF8A480404502D14FF06F
:1008C000020808E0DFF89880404502D14FF00308A5
:1008D00001E04FF0040808FA06F848EA0508CCF8E9
:1008E00008804D68D9F80060ED024D4601D51643E9
:1008F00000E096432E604D68DAF80060AD02554680
:1009000001D5164300E096432E604D68DBF8006089
:10091000AD035D4601D5164300E096432E604D6859
:10092000DEF80060ED03754601D5164300E09643FE
:100930002E60641C0D682A46E5407FF431AFBDE8A7
:10094000F88F000008040140000011100010024060
:100950000000014000080140000C0140001001406F
:10096000001401408068084000D0012070470AB19F
:10097000016170470904FBE7014880687047000087
:100980001000002070B5040025D094F83D0000252B
:1009900020B984F83C50204600F04EF9242084F819
:1009A0003D002068016821F00101016020680168B4
:1009B00041F4004101602068016821F400410160B8
:1009C00000F064FB4D4A6168914201D84C4900E057
:1009D0004C49884201D2012070BD4B492368B0FBCD
:1009E000F1F15E6826F03F060E435E606368934255
:1009F00006D94FF4967359434FF47A73B1FBF3F170
:100A00002368491C1E6A26F03F063143196261685B
:100A1000914210D84900401EB0FBF1F2521CC2F3C3
:100A20000B02042A01D2042022E0B0FBF1F0401CAA
:100A3000C0F30B001CE0A268F2B301EBC10303EBAF
:100A40000116431EB3FBF6F35B1C43F480431B0506
:100A500049D092B301EBC10202EB0111401EB0FB81
:100A6000F1F0401CC0F30B0040F4804040F4004023
:100A70002168CA694CF6FF739A431043C861D4E9F0
:100A8000071001432068026822F0C0021143016090
:100A9000D4E9030101432068826848F2FF339A4396
:100AA00011438160D4E9050108432168CA6822F036
:100AB000FF021043C86001E00EE016E02068016804
:100AC00041F0010101602564202084F83D00256388
:100AD00084F83E50002070BD01EB4106431EB3FB7D
:100AE000F6F35B1CB3E70120C2E701EB4101401EB6
:100AF000B0FBF1F0401CC0F30B00B7E7A08601008B
:100B000080841E0000093D0040420F002DE9F84F8F
:100B10001F4690468A460446DDF82890FFF72CFFD2
:100B2000054694F83D0020287FD119230122404931
:100B30002046009500F01EFF002876D194F83C0076
:100B4000012872D0012084F83C0020680168C907A0
:100B500003D1016841F0010101602068016821F4BE
:100B600000610160212084F83D00102084F83E00DF
:100B700000262664C4F824806785608D20852D4872
:100B8000E0622B464A465146204600F079FE90B975
:100B9000206841698069009036E02A46494620462F
:100BA00000F08EFF50B1206C042804D12068016849
:100BB00041F4007101600120BDE8F88F606A21688E
:100BC00000780861606A401C6062618D491E618521
:100BD000218D491E89B2218522685369DB435B0759
:100BE0000BD451B100781061606A401C6062608D66
:100BF000401E6085208D401E20852A46494620469D
:100C000000F08CFE0028CED1208D0028C5D154F8EC
:100C10003D0B016841F400710160202004F81E09B9
:100C2000E67766770020C7E7FFE70220C4E7000009
:100C3000020010000000FFFF10B586B000210091F7
:100C400001910291039100680F4988421AD10F4C1B
:100C5000A06940F00800A061A069694600F00800A2
:100C60000490C020009012200190032003900848B7
:100C7000FFF788FDE06940F40010E061E06900F4EE
:100C80000010049006B010BD005400400010024057
:100C9000000C01400248816802781144816070476D
:100CA00010000020074810B5016841F010010160F4
:100CB000032000F075F80F2000F006F800F024F88B
:100CC000002010BD0020024070B50D4D04464FF4C9
:100CD0007A712878B1FBF0F00A490968B1FBF0F0AD
:100CE00000F0A1FD48B9102C07D200222146501E69
:100CF00000F036F800206C6070BD012070BD00006F
:100D0000100000201C0000200C4808B5816941F04B
:100D100001018161816901F001010091C16941F026
:100D20008051C161C06900F0805000900448416862
:100D300021F0E06141F00071416008BD0010024007
:100D400000000140002809DB00F01F020121914052
:100D50004009800000F1E020C0F800117047000059
:100D6000F0B40E4B1B680C46C3F30223C3F1070516
:100D7000042D00D90425191D072901D2002300E004
:100D8000DB1E012606FA05F1491E214099409E40CE
:100D9000761E16403143F0BC01F0B1B90CED00E015
:100DA000064900F0070208684FF6FF03184040EAC2
:100DB0000220034A10430860704700000CED00E079
:100DC0000000FA05014901200862704700000E4248
:100DD00010B501460020234C012922D0022939D028
:100DE00010291DD161682268D20119D51E48C1F3AE
:100DF0008342C903805C0AD561681B4AC1F3404144
:100E0000921E515C194AB2FBF1F1484301E01849C6
:100E100048436168490203D440000321B0FBF1F06C
:100E200010BD226AC2F30121012903D1920701D525
:100E3000C80310BD022905D1626A920702D549F69E
:100E4000404010BD0329FCD121688903F9D54FF238
:100E5000244010BD00F02AF96168C1F38131491CBA
:100E60004900DBE700100240EC29000800127A007C
:100E700000093D002DE9F84305460078354CC007D0
:100E800054D0E0690026C00008D4E06940F08050EA
:100E9000E061E069012600F0805000902E48016872
:100EA000C90512D40168804641F480710160FFF7E2
:100EB00063FD074605E000BFFFF75EFDC01B642829
:100EC00023D8D8F80000C005F6D5206A10F4407089
:100ED00021D0A98801F4407181421CD0206A1F49A9
:100EE000012220F440700A6000220A602062C007DC
:100EF00011D0FFF741FD074641F2883808E000BFF6
:100F0000FFF73AFDC11B414502D90320BDE8F88334
:100F1000206A8007F4D5206A696820F4407008438D
:100F200020621EB1E06920F08050E06128788007DF
:100F300005D56068A96820F44040084360602878BF
:100F4000C00605D56068E96820F480000843606049
:100F50000020DBE7001002400070004040044242E5
:100F60002DE9F0470F46050061D0434E306800F090
:100F70000700B84209D2306820F0070038433060DB
:100F8000306800F00700B84251D128683B4C810717
:100F900012D5400703D5606840F4E06060602878AF
:100FA000000703D5606840F4605060606068A9681D
:100FB00020F0F000084360602878C00728D06868F7
:100FC000012810D02168022810D0890700292EDAC4
:100FD000616821F0030101436160FFF7CDFC8046A9
:100FE00041F288390DE021688903EFE78901EDE7D7
:100FF000FFF7C2FCA0EB0801494502D90320BDE878
:10100000F0876068696800F00C00B0EB810FEFD1E9
:10101000306800F00700B8420BD9306820F00700B4
:1010200038433060306800F00700B84201D001203A
:10103000E5E72878400705D56068E96820F4E060B6
:10104000084360602878000706D56068296920F4A5
:10105000605040EAC100606000F038F86168084AFA
:10106000C1F30311515CC840064908600648006896
:10107000FFF72AFE0020C2E70020024000100240D5
:10108000FC2900081C000020140000200448054929
:1010900000684968044AC1F30221515CC8407047A6
:1010A0001C000020001002400C2A000804480549DA
:1010B00000684968044AC1F3C221515CC8407047C6
:1010C0001C000020001002400C2A00080E4A516843
:1010D0000E4801F00C03042B11D0082B0FD10C4843
:1010E000C1F38343C903C05C0AD55168084AC1F300
:1010F0004041921E515C054A5043B0FBF1F07047ED
:1011000004494843704700000010024000127A0072
:10111000DA29000800093D002DE9F84F040070D0DD
:101120002078C04DC00749D06868C0F3810001280D
:1011300007D06868C0F38100022809D16868C0033D
:1011400006D52868800339D560680028E7D035E0E7
:101150006068B0F5803F0BD010B1B0F5A02F11D072
:10116000286820F480302860286820F4802002E07D
:10117000286840F480302860606890B1FFF7FCFB7D
:1011800006460AE0286840F480202860F0E700BFA7
:10119000FFF7F2FB801B642873D828688003F7D51B
:1011A0000CE0FFF7E9FB064605E000BFFFF7E4FBB4
:1011B000801B6428F0D828688003F7D420789A4EE2
:1011C00080074FF001094FF0000839D5686810F02A
:1011D0000C0F07D06868C0F38100022809D1686845
:1011E000C00306D42868800714D52069012808D1D7
:1011F00010E02069B0B1C6F80090FFF7BDFB0746CC
:1012000005E00AE1FFF7B8FBC01B0228C4D8286834
:101210008007F7D52868616920F0F80040EAC1002E
:1012200028600DE0C6F80080FFF7A6FB074604E043
:10123000FFF7A2FBC01B022823D828688007F7D439
:10124000207800072CD57948A169D9B1C0F8009061
:10125000FFF792FB074604E0FFF78EFBC01B022856
:101260000FD8686A8007F7D571484FF4FA510068C3
:10127000B0FBF1F0009000BF0098411E0091FAD23F
:101280000EE080E0C0F80080FFF776FB074604E040
:10129000FFF772FBC01B022875D8686A8007F7D475
:1012A0002078400760D5E8690027C00008D4E869C5
:1012B00040F08050E861E869012700F0805000901C
:1012C0005C480168C90513D40168834641F4807104
:1012D0000160FFF751FB824606E000BFFFF74CFBC1
:1012E000A0EB0A0064284ED8DBF80000C005F5D555
:1012F000E06801280AD008B1052813D0286A20F038
:1013000001002862286A20F0040002E0286A40F008
:1013100001002862E06841F2883B98B1FFF72CFB9E
:1013200082460BE0286A40F004002862EEE700BF26
:10133000FFF722FBA0EB0A0159455AD8286A80071B
:10134000F6D50CE0FFF718FB824605E0FFF714FB2B
:10135000A0EB0A0159454CD8286A8007F6D41FB182
:10136000E86920F08050E861E06988B36968C1F3FA
:101370008101022944D00228C6F8608004D0FFF71A
:10138000FBFA044638E034E0FFF7F6FA074604E0DB
:10139000FFF7F2FAC01B02282BD828688001F7D487
:1013A000206AB0F5803F05D16868A16820F400305C
:1013B00008436860D4E908010843696821F474119E
:1013C00008436860C6F86090FFF7D6FA044606E066
:1013D00025E000BFFFF7D0FA001B022809D82868D3
:1013E0008001F7D51BE000BFFFF7C6FA001B0228FB
:1013F00002D90320BDE8F88F28688001F4D40EE0FC
:101400000128F7D06868226A00F48031914204D143
:10141000616A00F47010884201D00120EAE70020E0
:10142000E8E700000010024000004242800442420F
:101430001C000020007000407047704710B5044643
:1014400000680168C90717D04168C90714D040680F
:101450004007204607D5FFF7F0FF21686FF0040032
:101460004860042002E0FFF7E7FF01206074206875
:10147000416821F00101416010BDF8B505004FF051
:10148000000016460C46009006D02CB1002269469A
:10149000284600F019F808B10120F8BD287B20701B
:1014A000E87BE070697B6170A97BA17056B100F0A8
:1014B000D9FCE070607800F0D5FC6070A07800F096
:1014C000D1FCA0700020F8BD2DE9F04791460C46F4
:1014D0005FEA00084AD084B3D8F8000040684007AB
:1014E00044D4404600F063FD4FF461620546B0FB12
:1014F000F2F1B0FBF2F302FB13503C23B0FBF3F02C
:10150000B5FBF2F6607002FB1650B0FBF3F203FB82
:101510001200A070182931D31820B1FBF0F7B1FBED
:10152000F0F200FB12102070404600F039FD411C23
:1015300004D0A84202D9461B02E017E04FF0FF3664
:10154000A7EB071000EB4000C0EB001005EBC01547
:101550002946404600F07AFD40B9701C01D071194F
:1015600000E03146404600F05DFD10B10120BDE8CD
:10157000F0873946404600F080FC00E02170B9F168
:10158000000F0BD0207800F06DFC2070607800F028
:1015900069FC6070A07800F065FCA0700020E6E7B0
:1015A00070B5040003D0607C002610B105E0012076
:1015B00070BD2674204600F03DF80220607420467D
:1015C00000F014F9042550BB204600F0ADFC30BB00
:1015D0002068416821F007014160A06820B11448EB
:1015E000016821F0010101601148001F0168A26833
:1015F00021F46071114301606068411C04D1012035
:10160000FFF7E6FB58B1401E2268C0F3034191602A
:10161000216880B2C860204600F0A0FC08B1657463
:10162000C5E7E67301206073A0736074002070BD8D
:10163000306C004008B500680D49884217D1FFF7AB
:10164000C1FB0C48C16941F00061C161C0690A4930
:1016500000F0006000900120086000221146032085
:10166000FFF77EFBBDE808400320FFF76BBB08BD1A
:1016700000280040001002403C0442422DE9F041A5
:101680000D4604003BD0C5B3207C01283AD04FF072
:10169000010884F8108002206074E87872B300F0CA
:1016A000D8FBE073687800F0D4FB6073A87800F092
:1016B000D0FBA073C2B2617BE07B00F088FC20739A
:1016C0002870204600F073FC4FF46161B0FBF1F12B
:1016D000002518292DD91822B1FBF2F1A1EB011137
:1016E00001EB4101C1EB011100EBC116314620466F
:1016F00000F0ACFC0427C8B90BE000E004E00120D6
:10170000BDE8F0810220FBE7E07368786073A87899
:10171000CFE7204600F044FC411C0AD0B04208D27A
:1017200006490144204600F07DFC10B16774257421
:10173000E5E784F8118025740020E1E7805101007D
:101740002DE9F0410D46040024D01DB3207C012872
:1017500023D04FF0010884F81080022060742878AC
:10176000EAB100F076FB4FF4616100FB01F66878A6
:1017700000F06FFBC0EB001006EB8006A87800F0CD
:1017800068FB35182946204600F060FC0026042737
:1017900010BB0FE00120BDE8F0810220FBE74FF411
:1017A000616148436978C1EB011100EB8100A978C0
:1017B0004518E7E72068416821F0050141602046AF
:1017C00000F0EEFB411C0AD0A84208D206490144B1
:1017D000204600F027FC10B167742674DAE784F81D
:1017E000118026740020D6E78051010070B50400F6
:1017F0000AD02068416821F008014160FFF7BCF879
:1018000005464FF47A7608E0012070BDFFF7B4F882
:10181000401BB04201D9032070BD2068406800071A
:10182000F4D5002070BD10B5401EB0F1807F01D30B
:10183000012010BD4FF0E02460610F21601700F01F
:101840005EFC0020A06107202061002010BDFEE7A3
:1018500001684A69D24352050FD46FF480624A612D
:10186000002140F8301F202242738173026942F048
:1018700004020261017301207047002070470000DC
:10188000F8B50446C06A1E460D461746082807D01C
:10189000012805D010F5803F02D0206B122804D11A
:1018A0002068016841F480710160134600224FF006
:1018B00001112046009600F05DF840B120680068F4
:1018C000C00502D54FF4007020640320F8BD2069E4
:1018D000B0F5804F0ED00620216800EAD51040F008
:1018E000F000086133463A460B49204600F08AF87A
:1018F00078B902E005F0FE0000E0E8B22168086176
:10190000054933463A46891F204600F07BF80028F7
:10191000DCD00120F8BD00000800010070B51646BB
:101920000D4604461EE02046FFF792FF08B1012055
:1019300070BD681C16D0FFF71FF8801BA84200D8A6
:1019400085B920684069C04340070BD5002044F8A2
:10195000300F20216173A073216941F020012161C2
:101960002073E4E720684069C0434007DBD40020CF
:1019700070BD00002DE9F047984617460D46044615
:10198000C1F30746DDF820902AE000BFB8F1FF3F21
:1019900026D0FEF7F1FFA0EB0901414502D8B8F1CE
:1019A000000F1DD12068012E16D0806925EA0000A5
:1019B0000004000C12D00020B84211D1002044F8DD
:1019C000300F20216173A073216941F02001216152
:1019D00020730120BDE8F0874069E7E70120EBE7CD
:1019E0002068012E0AD0806925EA00000004000C5E
:1019F00006D00020B842C9D00020EBE74069F3E7E9
:101A00000120F7E72DE9F047984616460D460446B3
:101A10004FF000094FF0200AC1F3074723E0206888
:101A20004069C043400515D42068016841F4007145
:101A3000016021686FF480604861C4F8309084F8D8
:101A40003DA084F83E90216C41F00401216484F8AB
:101A50003C9021E0701C06D0FEF78EFFA0EB080042
:101A6000B04203D816B1012F1FD021E02068012F0A
:101A700015D0806925EA00000004000C18D000BFD2
:101A800044F8309F84F80DA084F80E90216941F04D
:101A90002001216184F80C900120BDE8F0874069A5
:101AA00025EA00000004000CEAD12068406901E04A
:101AB0002068806925EA00000004000CAFD1ECE743
:101AC00070B516460D4604461EE02046FFF7C0FEE0
:101AD00008B1012070BD681C16D0FEF74DFF801BB9
:101AE000A84200D885B920684069C04300060BD5DC
:101AF000002044F8300F20216173A073216941F068
:101B0000200121612073E4E720684069C04300069A
:101B1000DBD4002070BD000070B586B000242048E2
:101B20000094019402940394816941F01001816151
:101B3000816901F010010491816941F02001816106
:101B4000816901F020010491816941F00401816102
:101B5000816901F004010491816941F0080181610A
:101B60008069104E00F0080040F601050490012243
:101B700029463046FEF7FBFE0220CDE902400095E3
:101B80000125694601953046FEF7FCFDE8038DE826
:101B9000310069463046FEF7F5FD06B070BD000025
:101BA00000100240000801400D4810B50B490160CB
:101BB0000C49416000214FF480428160C0E903126A
:101BC00041618161C1610162FEF7DCFE002803D042
:101BD000BDE81040FEF7B3BD10BD0000005400404A
:101BE00048000020A08601001CB50024184801947C
:101BF000164900940160611E41604FF4807181605C
:101C0000FFF7CEFC08B1FEF79AFD8DF804408DF881
:101C100005408DF80640002201A90D48FFF790FD10
:101C200008B1FEF78CFD01208DF800008DF8010051
:101C30008DF802008DF80340002269460448FFF742
:101C40001DFD002801D0FEF77AFD1CBD00280040D4
:101C50009C000020FEE7FEE770B5002404F1B00010
:101C6000C0B200F0D1F8002000F0CEF8102000F053
:101C7000CBF80025002000F0D9F86D1CEDB2802DC6
:101C8000F8D3641CE4B2082CE8D370BD10B564200E
:101C9000FEF758FDAE2000F0B7F8202000F0B4F8B1
:101CA000102000F0B1F8B02000F0AEF8C82000F02D
:101CB000ABF8002000F0A8F8102000F0A5F84020B4
:101CC00000F0A2F8812000F09FF8FF2000F09CF8BF
:101CD000A12000F099F8A62000F096F8A82000F0C6
:101CE00093F83F2000F090F8A42000F08DF8D32066
:101CF00000F08AF8002000F087F8D52000F084F882
:101D0000F02000F081F8D92000F07EF8222000F0C9
:101D10007BF8DA2000F078F8122000F075F8DB206C
:101D200000F072F8202000F06FF88D2000F06CF8C1
:101D3000142000F069F8AF2000F066F8BDE810400C
:101D4000FFF78ABF10B50446B031C8B200F05CF8A6
:101D5000102040EA141000F057F804F00F00BDE81E
:101D6000104040F0010000F04FB8000070B5203A7C
:101D7000D5B2FFF7E7FF074905EB4500002401EB6B
:101D80004005285D00F052F8641CE4B2062CF8D33C
:101D900070BD00009E2700082DE9F04700241E4674
:101DA0001546894680460A2714E000BFB5FBF7F0C8
:101DB00007FB10503030C2B2301B00EB400108EB83
:101DC0004100801FC0B24946FFF7D0FFB5FBF7F5D1
:101DD000641CE4B2B442E9D3BDE8F08770B515469F
:101DE0000E4604460BE031462046FFF7BFFFA41D18
:101DF000E4B27A2C02D90024761CF6B26D1C2A7843
:101E0000002AF0D170BD00001CB500218DF804102F
:101E10008DF8050064200090022301AA7821024871
:101E2000FEF774FE1CBD0000480000201CB54021D8
:101E30008DF804108DF8050064200090022301AA9B
:101E400078210248FEF762FE1CBD00004800002019
:101E50007047010901EB810100F00F0000EB410028
:101E6000C0B27047002102E00A38C0B2491C0A28FB
:101E7000FAD2090740EA116070472DE9F0410446A3
:101E80000025C07B627BA37B42E0012A16D0032A97
:101E900014D0052A12D0072A10D0082A0ED00A2AF8
:101EA0000CD00C2A0AD0042A10D0062A0ED0092AF7
:101EB0000CD00B2A0AD0022A0DD028E01F2B0CD3FD
:101EC0000C2A05D101221346401C20E01E2B04D30E
:101ED0000123521C1BE01C2B02D203F1010316E06C
:101EE00011D183B29E0710D16426B3FBF6F706FB2F
:101EF000173636B94FF4C876B3FBF6F706FB17333F
:101F00001BB91D2303E01D2B01D1032201236D1CEE
:101F10008D42BAD3D1B2E0736173DAB2A27300F02A
:101F200056F82073BDE8F08170B50446FEF724FD35
:101F300005464FF47A7606E0FEF71EFD401BB042E0
:101F400001D9032070BD206840688006F4D5206860
:101F5000416841F010014160002070BD70B5044639
:101F60000068416821F010014160FEF705FD05465B
:101F70004FF47A7607E000BFFEF7FEFC401BB0424C
:101F800001D9032070BD206840688006F4D5002088
:101F900070BD00000148FFF751BA00009C0000200E
:101FA0000168086A496A89B241EA004070470068DE
:101FB00081698AB2C1698BB2816989B28A4203D0D0
:101FC000C06961F31F40704743EA02407047F0B5B3
:101FD0006424C1EBC1030927A500072603EB011305
:101FE0000329B3FBF7F100F5FA60114401440AD26A
:101FF000401EB0FBF4F201EB9001B0FBF5F0891A42
:102000000844001D08E0B0FBF4F201EB9001B0FBC6
:10201000F5F0891A0844801CB0FBF6F106FB1100AC
:10202000C0B2F0BD70B50D4606460024FFF77CFF38
:1020300048B93168280C08623168A8B24862304655
:10204000FFF78CFF00B10124204670BD70B50D462E
:1020500006460024FFF768FF48B93168280C8861FC
:102060003168A8B2C8613046FFF778FF00B101249B
:10207000204670BD7047FEF70DBE70B594B02821A4
:102080006846FEF7B9F914210AA8FEF7B5F900254C
:102090000F950920012410950090119512954FF489
:1020A000803004940694CDE901050226CDE907604D
:1020B0004FF4E01009906846FFF72EF808B172B6A9
:1020C000FEE70F20CDE90A064FF48060CDE90C5001
:1020D00002210AA80E95FEF743FF08B172B6FEE78B
:1020E0004FF40070CDE90F400FA8FEF7C3FE0028A3
:1020F00001D072B6FEE714B070BD7047FEE7090765
:10210000090E002804DB00F1E02080F8001470477D
:1021100000F00F0000F1E02080F8141D7047303807
:102120000A2801D201207047002070470EB5FEF743
:10213000B9FDFFF7A2FFFFF7EFFCFFF735FDFFF753
:1021400053FDFFF7A3FDFEF765FAFFF785FD0020BD
:102150008DF804000A208DF805001E208DF8060079
:10216000002201A94F48FFF7EBFA19208DF80B0068
:1021700003208DF809000F208DF80A00002202A923
:102180004848FFF77BFA494CDFF81CA1DFF820B183
:102190004FF40049A51C04F10C084F464946564629
:1021A0005046FEF7DFFB607098B90A20FEF7CAFAC6
:1021B00039463046FEF7D6FB58B9207800286DD056
:1021C0000020207000286BD0002201213046FEF74D
:1021D000CEFB36490022891C3248FFF775F9334996
:1021E00000220C312F48FFF748F9A87800906B784F
:1021F0002A7830A13348FDF7EBFF002132A20846D0
:10220000FFF7ECFD2F4A00212420FFF7E7FD98F8A7
:102210000210009198F803202A4898F801302CA168
:10222000143002F2D172FDF7D3FF2DA2012100205C
:10223000FFF7D4FD234A012114322420FFF7CEFDFD
:10224000FEF7B6F9A06028A202210020FFF7C6FD24
:10225000A068064600F0B4F8074600F0CDF8314615
:1022600000F0AEF9594600F0DFF800F0A9F8064694
:1022700002233A4619463020FFF78EFD2E22022116
:102280003C20FFF773FD0123324602214220FFF775
:1022900083FD4FF47A70FEF755FA7EE7012090E750
:1022A000012292E79C00002000080140000000206D
:1022B00000002041253032643A253032643A25301E
:1022C000326400002000002054696D653A0000006F
:1022D000253034642D253032642D253032640000E1
:1022E000446174653A00000054656D703A00000066
:1022F00090EA010F48BF81F0004100F17281421A5B
:102300003CBF801A89184FEAD0524FF07F4C1CEA2C
:10231000410FA2EBD15318BF9CEA026F00F03B8043
:102320004FF0004C4CEA00204CEA012121FA03FC5A
:1023300010EB0C0C1ED202F1FF325FEA1C2040EBC6
:10234000C25038BF70471CF07F0F4FEA400C18BFD7
:10235000BCF17F4F38BF7047C3F12003994008BFDD
:1023600020F00100BCF17F4F38BF7047A0F1C040A2
:1023700000F021B94FEA3C00000A40EBC25028BFF0
:102380001CF0FF0F4FEA400CE6D018BFBCF17F4FA6
:1023900038BF7047EAE79CEA026F05D010EA5C0F8D
:1023A00008BF00F00040704710B500F0BEF800BF55
:1023B00064FBBE3E014800F082B900BF0000C07F50
:1023C00041000B0ED3F19E0208D950F400034FEAEE
:1023D000032323FA02F048BF4042704710B500F0D3
:1023E000A4F800BF49922480002070476FF000429B
:1023F00082EA20007047000010F0004148BF4042D0
:10240000B0FA80F310FA03F2C3F19D030BD051EA46
:10241000C35101EB1220530638BF704700F1010091
:1024200008BF20F0010070474FF47F0C1CEAD01267
:102430001EBF1CEAD11392EA0C0F93EA0C0F00F0B6
:10244000478090EA010F48BF42F480724FF0004C81
:102450004CEA00204CEA012102EB0302A0FB01132D
:10246000A2F50002002918BF43F001035B0028BF5A
:102470004FEA330342EB22425FEA132C4CEBC2508B
:102480002EBFBCEB436FB2F57C0F70474FEA036C75
:10249000BCF1004F08BF20F00100B2F57C0F38BF3F
:1024A00070470BD582F0FF0212F5803FC8BF70471E
:1024B00000F1C040D8BF00F00040704700F5000CAC
:1024C0005FEA4C0C48BF7047B0F1C04000F073B8F1
:1024D00090EA010F0CEAD11348BF42F480726245C2
:1024E00038BF634504D280EA010000F00040704725
:1024F00010B500F01AF800BF8900013E00F007B8DF
:1025000000F009B85FEA410C5FEA1C6C08D080EA71
:10251000010000F050B85FEA400C5FEA1C6CF6D195
:102520004FF00040A0F5800070470EF1020E2EF033
:10253000030E5EF8044B244204D44FEA4102B2F188
:102540007F4F11D84FEA4003B3F17F4F0CD80ED123
:102550004FEAD07CB2F17F4F0CEB4C0C0CF1020C2B
:1025600008BF4CEBD17C04E04FF0080C01E04FEACF
:10257000D17C0CEB4C0324FA03F404F00704B4F10F
:10258000040C06D20EEB840CBDE810404CF0010C9C
:102590006047DFE80CF0070802024FF00040A0F5AA
:1025A000800010BD0846420018BFD2F1807288BF7B
:1025B00000F0004010BDFF2141EAD050C005704737
:1025C00080F0004090EA010F7FF599AE81F0004164
:1025D00000F007B890EA010F48BF81F000413FF5D5
:1025E0008EAE421A04D882F00042A0EB02001144E1
:1025F0004FEAD0524FF07F4C1CEA410FA2EBD1536F
:1026000018BF9CEA026F4AD04FF0004C4CEA002001
:102610004CEA012121FA03FCB0EB0C0C0FD412F0B0
:10262000FE0F36D05FEA4C001DD5001240EBC250C1
:1026300038BF70471CF03F0F18BF70470BE0A2F186
:1026400001025FEA1C2040EBC25038BF70471CF00B
:102650007F0F18BF7047C3F12003994014BF401E7D
:1026600020F00100704780084FEA122308BF70472E
:10267000B0FA80FCA2EB0C02CCF1280C60FA0CF052
:1026800093EA122F04BF00EBC25070474FEAC370A9
:102690007047130A5FEADC1008BF7047F6E79CEA50
:1026A000026F04D010EA5C0F08BF0020704710B51D
:1026B000FFF73BFF40DFF63E81F0004070470CF033
:1026C0000F03092B08BF082000F051800A2B0BD004
:1026D000082B18BF704708BF1CF0400F0AD04FF0FE
:1026E00000004FF0000170471CF0400F18BF4FF082
:1026F000004070471CF0100F08D020F0704300F02D
:102700007F4242EAD3014FEA4370704700F06040D5
:1027100021F07F4242EA000201F07F4040EA7270FD
:1027200070474FF0FF0212EAD0521CBF92F0FF0335
:102730008B42C2BFD14200EBC1507047002A0AD081
:10274000002B0BD0002900F00040A4BF40F0FE4059
:1027500040F40000704700F00040704743024FF023
:102760000B0C18BF4CF0806C7FF424AE70471CF447
:10277000801F11D01CF4E02F03D06FEACC31490048
:1027800070474FF04050EFF3008222F0704242EA6F
:10279000000282F3008870474FF00000704700008D
:1027A0000000000000005F000000000700070000BC
:1027B000147F147F1400242A7F2A12002313086434
:1027C0006200364955225000000503000000001C3D
:1027D000224100000041221C000014083E081400A1
:1027E00008083E08080000503000000008080808EB
:1027F00008000060600000002010080402003E5144
:1028000049453E0000427F40000042615149460078
:102810002141454B31001814127F100027454545D2
:1028200039003C4A49493000017109050300364925
:1028300049493600064949291E0000363600000085
:10284000005636000000081422410000141414142D
:102850001400412214080000020151090600324907
:1028600079413E007E1111117E007F4949493600B1
:102870003E41414122007F4141221C007F4949499C
:1028800041007F09090901003E4149497A007F085A
:1028900008087F0000417F4100002040413F0100C7
:1028A0007F08142241007F40404040007F02040224
:1028B0007F007F0408107F003E4141413E007F09B8
:1028C000090906003E4151215E007F091929460091
:1028D00046494949310001017F0101003F40404024
:1028E0003F001F2040201F007F2018207F0063141E
:1028F0000814630003047804030061514945430050
:10290000007F414100000204081020000041417F87
:10291000000004027F0204004040404040000001EB
:10292000020400002054545478007F484444380086
:10293000384444442000384444487F0038545454B8
:102940001800087E09010200081454543C007F0856
:102950000404780000447D4000002040443D000015
:102960007F102844000000417F4000007C041804D0
:102970007C007C08040478003844444438007C140B
:1029800014140800081414187C007C0804040800BF
:10299000485454542000043F444020003C40402010
:1029A0007C001C2040201C003C4030403C0044285F
:1029B000102844000648502816004464544C440033
:1029C00000083641000000007F000000004136088A
:1029D00000001008081008000102020304050607A1
:1029E00008090A0B0C0D0E0F10100102020304055A
:1029F000060708090A0B0C0D0E0F1010000000004E
:102A0000000000000102030406070809000000009E
:102A1000010203040400000800000000000000029E
:102A20000001000010000000482A000800000020FB
:102A30002000000028010008682A0008200000206B
:102A4000F006000044010008000000000000000043
:102A50000000000000000000010000001000000065
:082A60000000000000127A00E2
:04000005080000ED02
:00000001FF
