:020000040800F2
:10000000D006002089010008EF120008550F0008F3
:10001000ED1200088F0200084915000800000000DA
:10002000000000000000000000000000E3140008D1
:100030000904000800000000E1140008E5140008AD
:10004000A3010008A3010008A3010008A301000800
:10005000A3010008A3010008A3010008A3010008F0
:10006000A3010008A3010008A3010008A3010008E0
:10007000A3010008A3010008A3010008A3010008D0
:10008000A3010008A3010008A3010008A3010008C0
:10009000A3010008A3010008A3010008A3010008B0
:1000A000A3010008A3010008A3010008A3010008A0
:1000B000A3010008A3010008A3010008A301000890
:1000C000A3010008A3010008A3010008A301000880
:1000D000A3010008A3010008A3010008A301000870
:1000E000A3010008A3010008A301000800F002F822
:1000F00000F03AF80AA090E8000C82448344AAF188
:100100000107DA4501D100F02FF8AFF2090EBAE885
:100110000F0013F0010F18BFFB1A43F0010318473B
:100120002C1900004C190000103A24BF78C878C17F
:10013000FAD8520724BF30C830C144BF04680C60ED
:10014000704700000023002400250026103A28BF35
:1001500078C1FBD8520728BF30C148BF0B60704739
:100160001FB51FBD10B510BD00F058F81146FFF7C0
:10017000F7FF01F0FBF900F076F803B4FFF7F2FFA8
:1001800003BC00F07DF8000009488047094800479B
:10019000FEE7FEE7FEE7FEE7FEE7FEE7FEE7FEE737
:1001A000FEE7FEE704480549054A064B7047000094
:1001B00047150008ED000008D0000020D006002000
:1001C000D0020020D00200204FF0000200B51346FC
:1001D00094469646203922BFA0E80C50A0E80C5067
:1001E000B1F12001BFF4F7AF090728BFA0E80C5018
:1001F00048BF0CC05DF804EB890028BF40F8042B11
:1002000008BF704748BF20F8022B11F0804F18BF7D
:1002100000F8012B7047704770477047754600F033
:100220002BF8AE4605006946534620F00700854688
:1002300018B020B5FFF7B6FFBDE820404FF000062C
:100240004FF000074FF000084FF0000B21F00701BE
:10025000AC46ACE8C009ACE8C009ACE8C009ACE801
:10026000C0098D46704710B50446AFF300802046A4
:10027000BDE81040FFF781BF004870476C000020C8
:1002800001491820ABBEFEE7260002007047FEE7DA
:1002900010B500F02FF8CC2000F08AF8442000F0D0
:1002A00087F800F027F8CC2000F082F8BE2000F09C
:1002B0007FF800F055F8044600F052F844EA0020B8
:1002C00000B201F0C3F9BDE810406FF0030101F086
:1002D0004DBA00001FB50020019003904FF400605C
:1002E0000090012002906946014800F0B1F81FBD5E
:1002F0000008014070B5002400F020F80E4E4FF4C5
:10030000006500222946304600F097F94FF4F0705E
:1003100000F090F8FFF7DEFF3C2000F08BF8294654
:10032000304600F085F900B901244FF4D27000F096
:1003300081F8204670BD0000000801401FB5002074
:1003400002904FF400600090112001900320039070
:100350006946024800F07CF81FBD0000000801401B
:100360002DE9F0410024114F25464FF4006600BFEF
:10037000FFF7E4FF00223146384600F05EF9022024
:1003800000F058F8FFF7A6FF64083146384600F041
:100390004FF908B144F080043C2000F04BF86D1C8C
:1003A000EDB2082DE4D32046BDE8F08100080140FD
:1003B0002DE9F0410546FFF7C1FF124F00244FF42D
:1003C000006600223146384600F037F9022000F07E
:1003D00031F8E80701D0012200E00022314638461A
:1003E00000F02BF93C2000F025F801223146384678
:1003F00000F023F9641C6D08E4B2082CE1D3BDE8D9
:10040000F081000000080140704772B6FEE700006E
:1004100070B5044600F016F90546601C02D0044889
:100420000078044400F00EF9401BA042FAD370BDDE
:10043000080000200449054A0968B1FBF2F1414374
:10044000491EFDD2704700001400002000093D0045
:100450002DE9F84FDFF8B8910024A9F1040B2346E9
:100460000F2709F1040AABF1040EC9E00125A540EC
:100470002A40AA427DD1674ED1F804C0ACEB0608F1
:10048000B44532D014DCBCF1030F3AD009DCBCF126
:10049000000F2AD0BCF1010F1CD0BCF1020F31D1EA
:1004A0001DE0BCF1110F17D0BCF1120F2AD119E0D9
:1004B000B8F5881F19D006DCB8F5803F15D0B8F51F
:1004C000801F1FD111E0B8F5001F0ED0B8F5041F32
:1004D00018D10AE0CB6815E0CB681B1D12E0CB6891
:1004E00008330FE0CB680C330CE08B682BB1012B89
:1004F0004FF0080303D0456104E0042302E00561E6
:1005000000E00023FF2A01D8064601E000F10406BE
:100510004FEA840501D9A5F12005D6F8008007FA35
:1005200005FC28EA0C0803FA05F548EA0508C6F8B0
:1005300000804D68ED0062D5374DAE6946F001068A
:10054000AE61AD6924F0030605F001050095334D59
:1005500006EB050CDCF80850A607360F07FA06F87C
:1005600025EA0805DFF8B880404503D14FF00008C0
:1005700017E044E0DFF8AC80404502D14FF00108BD
:100580000FE0DFF8A480404502D14FF0020808E0F8
:10059000DFF89880404502D14FF0030801E04FF0AA
:1005A000040808FA06F848EA0508CCF808804D68FF
:1005B000D9F80060ED024D4601D5164300E09643A0
:1005C0002E604D68DAF80060AD02554601D516433D
:1005D00000E096432E604D68DBF80060AD035D4699
:1005E00001D5164300E096432E604D68DEF80060AA
:1005F000ED03754601D5164300E096432E60641C5A
:100600000D682A46E5407FF431AFBDE8F88F000061
:1006100008040140000011100010024000000140D9
:1006200000080140000C014000100140001401408E
:100630008068084000D0012070470AB1016170470E
:100640000904FBE7014880687047000008000020AB
:1006500070B5040025D094F83D00002520B984F839
:100660003C50204600F04EF9242084F83D002068DC
:10067000016821F0010101602068016841F4004136
:1006800001602068016821F40041016000F088FAEF
:100690004D4A6168914201D84C4900E04C4988427A
:1006A00001D2012070BD4B492368B0FBF1F15E68B7
:1006B00026F03F060E435E606368934206D94FF40E
:1006C000967359434FF47A73B1FBF3F12368491CD5
:1006D0001E6A26F03F06314319626168914210D8C4
:1006E0004900401EB0FBF1F2521CC2F30B02042A77
:1006F00001D2042022E0B0FBF1F0401CC0F30B005B
:100700001CE0A268F2B301EBC10303EB0116431E28
:10071000B3FBF6F35B1C43F480431B0549D092B353
:1007200001EBC10202EB0111401EB0FBF1F0401CD5
:10073000C0F30B0040F4804040F400402168CA69D7
:100740004CF6FF739A431043C861D4E90710014384
:100750002068026822F0C00211430160D4E903015D
:1007600001432068826848F2FF339A431143816055
:10077000D4E9050108432168CA6822F0FF0210434A
:10078000C86001E00EE016E02068016841F0010158
:1007900001602564202084F83D00256384F83E50E4
:1007A000002070BD01EB4106431EB3FBF6F35B1C5A
:1007B000B3E70120C2E701EB4101401EB0FBF1F0BD
:1007C000401CC0F30B00B7E7A086010080841E0028
:1007D00000093D0040420F002DE9F84F1F469046AA
:1007E0008A460446DDF82890FFF72CFF054694F86A
:1007F0003D0020287FD11923012240492046009541
:1008000000F03AFC002876D194F83C00012872D020
:10081000012084F83C0020680168C90703D1016801
:1008200041F0010101602068016821F4006101606C
:10083000212084F83D00102084F83E000026266424
:10084000C4F824806785608D20852D48E0622B46A2
:100850004A465146204600F095FB90B92068416910
:100860008069009036E02A464946204600F0AAFCFE
:1008700050B1206C042804D12068016841F4007153
:1008800001600120BDE8F88F606A21680078086186
:10089000606A401C6062618D491E6185218D491E20
:1008A00089B2218522685369DB435B070BD451B1C0
:1008B00000781061606A401C6062608D401E608537
:1008C000208D401E20852A464946204600F0A8FB80
:1008D0000028CED1208D0028C5D154F83D0B0168E9
:1008E00041F400710160202004F81E09E677667764
:1008F0000020C7E7FFE70220C4E700000200100065
:100900000000FFFF10B586B0002100910191029117
:10091000039100680F4988421AD10F4CA06940F03A
:100920000800A061A069694600F008000490C0209A
:10093000009012200190032003900848FFF788FDE3
:10094000E06940F40010E061E06900F400100490F8
:1009500006B010BD0054004000100240000C0140E1
:1009600002488168027811448160704708000020C5
:10097000074810B5016841F010010160032000F044
:1009800067F80F2000F006F800F024F8002010BDF2
:100990000020024070B50D4D04464FF47A7128785E
:1009A000B1FBF0F00A490968B1FBF0F000F0BEFAC3
:1009B00048B9102C07D200222146501E00F028F81A
:1009C00000206C6070BD012070BD00000800002098
:1009D000140000200C4808B5816941F001018161D3
:1009E000816901F001010091C16941F08051C1614B
:1009F000C06900F0805000900448416821F0E06137
:100A000041F00071416008BD00100240000001404B
:100A1000F0B40E4B1B680C46C3F30223C3F1070569
:100A2000042D00D90425191D072901D2002300E057
:100A3000DB1E012606FA05F1491E214099409E4021
:100A4000761E16403143F0BC00F07FBD0CED00E097
:100A5000064900F0070208684FF6FF03184040EA15
:100A60000220034A10430860704700000CED00E0CC
:100A70000000FA052DE9F0470F46050061D0434E0E
:100A8000306800F00700B84209D2306820F0070053
:100A900038433060306800F00700B84251D1286810
:100AA0003B4C810712D5400703D5606840F4E060F5
:100AB00060602878000703D5606840F4605060608B
:100AC0006068A96820F0F000084360602878C007DB
:100AD00028D06868012810D02168022810D0890722
:100AE00000292EDA616821F0030101436160FFF7FC
:100AF000A9FD804641F288390DE021688903EFE7BE
:100B00008901EDE7FFF79EFDA0EB0801494502D9F9
:100B10000320BDE8F0876068696800F00C00B0EB66
:100B2000810FEFD1306800F00700B8420BD9306870
:100B300020F0070038433060306800F00700B8420A
:100B400001D00120E5E72878400705D56068E9680D
:100B500020F4E060084360602878000706D56068EC
:100B6000296920F4605040EAC100606000F028F874
:100B70006168084AC1F30311515CC8400649086026
:100B800006480068FFF706FF0020C2E70020024089
:100B900000100240341A0008140000200C0000204D
:100BA0000448054900684968044AC1F30221515CC0
:100BB000C84070471400002000100240441A00088A
:100BC0000E4A51680E4801F00C03042B11D0082B7B
:100BD0000FD10C48C1F38343C903C05C0AD55168E7
:100BE000084AC1F34041921E515C054A5043B0FB94
:100BF000F1F070470449484370470000001002407C
:100C000000127A00241A000800093D002DE9F84F6F
:100C1000040070D02078C04DC00749D06868C0F388
:100C20008100012807D06868C0F38100022809D13B
:100C30006868C00306D52868800339D56068002835
:100C4000E7D035E06068B0F5803F0BD010B1B0F56B
:100C5000A02F11D0286820F480302860286820F464
:100C6000802002E0286840F480302860606890B1FD
:100C7000FFF7E8FC06460AE0286840F48020286078
:100C8000F0E700BFFFF7DEFC801B642873D82868FC
:100C90008003F7D50CE0FFF7D5FC064605E000BF62
:100CA000FFF7D0FC801B6428F0D828688003F7D4B5
:100CB00020789A4E80074FF001094FF0000839D58F
:100CC000686810F00C0F07D06868C0F38100022834
:100CD00009D16868C00306D42868800714D5206944
:100CE000012808D110E02069B0B1C6F80090FFF7E4
:100CF000A9FC074605E00AE1FFF7A4FCC01B022897
:100D0000C4D828688007F7D52868616920F0F80002
:100D100040EAC10028600DE0C6F80080FFF792FCB1
:100D2000074604E0FFF78EFCC01B022823D8286882
:100D30008007F7D4207800072CD57948A169D9B16C
:100D4000C0F80090FFF77EFC074604E0FFF77AFC4E
:100D5000C01B02280FD8686A8007F7D571484FF486
:100D6000FA510068B0FBF1F0009000BF0098411EFE
:100D70000091FAD20EE080E0C0F80080FFF762FC3C
:100D8000074604E0FFF75EFCC01B022875D8686ABE
:100D90008007F7D42078400760D5E8690027C000B5
:100DA00008D4E86940F08050E861E869012700F064
:100DB000805000905C480168C90513D401688346DF
:100DC00041F480710160FFF73DFC824606E000BF00
:100DD000FFF738FCA0EB0A0064284ED8DBF80000CF
:100DE000C005F5D5E06801280AD008B1052813D060
:100DF000286A20F001002862286A20F0040002E03E
:100E0000286A40F001002862E06841F2883B98B10E
:100E1000FFF718FC82460BE0286A40F004002862C5
:100E2000EEE700BFFFF70EFCA0EB0A0159455AD8C8
:100E3000286A8007F6D50CE0FFF704FC824605E03F
:100E4000FFF700FCA0EB0A0159454CD8286A80073F
:100E5000F6D41FB1E86920F08050E861E06988B3FA
:100E60006968C1F38101022944D00228C6F8608074
:100E700004D0FFF7E7FB044638E034E0FFF7E2FB7D
:100E8000074604E0FFF7DEFBC01B02282BD82868CA
:100E90008001F7D4206AB0F5803F05D16868A16869
:100EA00020F4003008436860D4E908010843696809
:100EB00021F4741108436860C6F86090FFF7C2FB24
:100EC000044606E025E000BFFFF7BCFB001B02283C
:100ED00009D828688001F7D51BE000BFFFF7B2FBF7
:100EE000001B022802D90320BDE8F88F2868800182
:100EF000F4D40EE00128F7D06868226A00F480314B
:100F0000914204D1616A00F47010884201D001203E
:100F1000EAE70020E8E7000000100240000042423B
:100F200080044242140000200070004010B5401EB2
:100F3000B0F1807F01D3012010BD4FF0E02460614B
:100F40000F21601700F001FB0020A0610720206145
:100F5000002010BDFEE701684A69D24352050FD454
:100F60006FF480624A61002140F8301F20224273F2
:100F70008173026942F0040202610173012070472B
:100F800000207047F8B50446C06A1E460D46174655
:100F9000082807D0012805D010F5803F02D0206B2B
:100FA000122804D12068016841F480710160134661
:100FB00000224FF001112046009600F05DF840B18C
:100FC00020680068C00502D54FF40070206403203B
:100FD000F8BD2069B0F5804F0ED00620216800EAE8
:100FE000D51040F0F000086133463A460B492046E0
:100FF00000F08AF878B902E005F0FE0000E0E8B2FF
:1010000021680861054933463A46891F204600F0A9
:101010007BF80028DCD00120F8BD000008000100AA
:1010200070B516460D4604461EE02046FFF793FFB6
:1010300008B1012070BD681C16D0FFF703FB801BB0
:10104000A84200D885B920684069C04340070BD545
:10105000002044F8300F20216173A073216941F012
:10106000200121612073E4E720684069C043400704
:10107000DBD4002070BD00002DE9F04798461746EC
:101080000D460446C1F30746DDF820902AE000BF74
:10109000B8F1FF3F26D0FFF7D5FAA0EB0901414593
:1010A00002D8B8F1000F1DD12068012E16D080693A
:1010B00025EA00000004000C12D00020B84211D133
:1010C000002044F8300F20216173A073216941F0A2
:1010D0002001216120730120BDE8F0874069E7E726
:1010E0000120EBE72068012E0AD0806925EA000084
:1010F0000004000C06D00020B842C9D00020EBE765
:101100004069F3E70120F7E72DE9F04798461646D6
:101110000D4604464FF000094FF0200AC1F307477F
:1011200023E020684069C043400515D42068016869
:1011300041F40071016021686FF480604861C4F877
:10114000309084F83DA084F83E90216C41F0040179
:10115000216484F83C9021E0701C06D0FFF772FAFD
:10116000A0EB0800B04203D816B1012F1FD021E038
:101170002068012F15D0806925EA00000004000CCA
:1011800018D000BF44F8309F84F80DA084F80E906A
:10119000216941F02001216184F80C900120BDE813
:1011A000F087406925EA00000004000CEAD12068BD
:1011B000406901E02068806925EA00000004000C15
:1011C000AFD1ECE770B516460D4604461EE020464A
:1011D000FFF7C1FE08B1012070BD681C16D0FFF7F3
:1011E00031FA801BA84200D885B920684069C04305
:1011F00000060BD5002044F8300F20216173A07346
:10120000216941F0200121612073E4E720684069F1
:10121000C0430006DBD4002070BD000070B586B06E
:10122000002420480094019402940394816941F0C1
:1012300010018161816901F010010491816941F01F
:1012400020018161816901F020010491816941F0EF
:1012500004018161816901F004010491816941F017
:10126000080181618069104E00F0080040F6010518
:101270000490012229463046FFF7DFF90220CDE92C
:10128000024000950125694601953046FFF7E0F8D8
:10129000E8038DE8310069463046FFF7D9F806B01B
:1012A00070BD000000100240000801400D4810B55C
:1012B0000B4901600C49416000214FF4804281607C
:1012C000C0E9031241618161C1610162FFF7C0F9A8
:1012D000002803D0BDE81040FFF797B810BD00000C
:1012E0000054004018000020A0860100FEE7FEE741
:1012F00070B5002404F1B000C0B200F0CDF80020B9
:1013000000F0CAF8102000F0C7F80025002000F017
:10131000D5F86D1CEDB2802DF8D3641CE4B2082C16
:10132000E8D370BD10B56420FFF772F8AE2000F06E
:10133000B3F8202000F0B0F8102000F0ADF8B02095
:1013400000F0AAF8C82000F0A7F8002000F0A4F8E8
:10135000102000F0A1F8402000F09EF8812000F05D
:101360009BF8FF2000F098F8A12000F095F8A62047
:1013700000F092F8A82000F08FF83F2000F08CF8E1
:10138000A42000F089F8D32000F086F8002000F0B7
:1013900083F8D52000F080F8F02000F07DF8D92007
:1013A00000F07AF8222000F077F8DA2000F074F8E4
:1013B000122000F071F8DB2000F06EF8202000F021
:1013C0006BF88D2000F068F8142000F065F8AF206D
:1013D00000F062F8BDE81040FFF78ABF10B5044680
:1013E000B031C8B200F058F8102040EA141000F0F4
:1013F00053F804F00F00BDE8104040F0010000F089
:101400004BB8000070B5203AD5B2FFF7E7FF0749A7
:1014100005EB4500002401EB4005285D00F04EF887
:10142000641CE4B2062CF8D370BD0000E817000875
:101430002DE9F04700251E461446894680460A27B6
:1014400011E000BF04F13000C2B2701B00EB40019C
:1014500008EB4100801FC0B24946FFF7D3FFB4FB41
:10146000F7F46D1CEDB2B542ECD3BDE8F08770B572
:1014700015460E4604460BE031462046FFF7C2FFF4
:10148000A41DE4B27A2C02D90024761CF6B26D1C9D
:101490002A78002AF0D170BD1CB500218DF8041007
:1014A0008DF8050064200090022301AA78210248EB
:1014B000FFF792F91CBD0000180000201CB5402168
:1014C0008DF804108DF8050064200090022301AA15
:1014D00078210248FFF780F91CBD000018000020A9
:1014E00070477047FFF73CBA30B58FB02821684687
:1014F000FEF76AFE14210AA8FEF766FE0121080421
:10150000CDE900100024029402250491CDE9075092
:101510004FF4E01009906846FFF778FB08B172B607
:10152000FEE70F20CDE90A054FF48060CDE90C40BD
:1015300002210AA80E94FFF79DFA002801D072B686
:10154000FEE70FB030BD7047FEE70907090E00281F
:1015500004DB00F1E02080F80014704700F00F0079
:1015600000F1E02080F8141D70470000FFF700FA3A
:10157000FFF7BAFFFFF752FEFFF798FEFFF7D2FE24
:10158000FEF7B8FEFFF7B4FE1B4D1C4C4FF40046AF
:101590004FF47A7731462846FFF74AF8607088B9E9
:1015A0000A20FEF735FF31462846FFF741F848B9D3
:1015B0002078E0B100202070D8B100220121284617
:1015C000FFF73BF8FEF764FE002160600CA20846BE
:1015D000FFF74DFF606800F01DF80246022300216E
:1015E0003020FFF725FF3846FEF712FFD2E7012033
:1015F000E1E70122E2E700000008014000000020CE
:1016000054656D703A000000014800F07DB800BFDD
:101610000000C07F41000B0ED3F19E0208D950F4A8
:1016200000034FEA032323FA02F048BF4042704709
:1016300010B500F023F800BF4992248000207047C5
:101640006FF0004282EA20007047000010F0004175
:1016500048BF4042B0FA80F310FA03F2C3F19D0391
:101660000BD051EAC35101EB1220530638BF70472B
:1016700000F1010008BF20F0010070470EF1020EDA
:101680002EF0030E5EF8044B244204D44FEA4102CC
:10169000B2F17F4F11D84FEA4003B3F17F4F0CD81E
:1016A0000ED14FEAD07CB2F17F4F0CEB4C0C0CF119
:1016B000020C08BF4CEBD17C04E04FF0080C01E0B9
:1016C0004FEAD17C0CEB4C0324FA03F404F007043A
:1016D000B4F1040C06D20EEB840CBDE810404CF0C3
:1016E000010C6047DFE80CF0070802024FF00040F1
:1016F000A0F5800010BD0846420018BFD2F18072EC
:1017000088BF00F0004010BD0CF00F03092B08BF8C
:10171000082000F051800A2B0BD0082B18BF70470F
:1017200008BF1CF0400F0AD04FF000004FF000013E
:1017300070471CF0400F18BF4FF0004070471CF07E
:10174000100F08D020F0704300F07F4242EAD3012E
:101750004FEA4370704700F0604021F07F4242EA58
:10176000000201F07F4040EA727070474FF0FF02C4
:1017700012EAD0521CBF92F0FF038B42C2BFD1428B
:1017800000EBC1507047002A0AD0002B0BD0002973
:1017900000F00040A4BF40F0FE4040F4000070475D
:1017A00000F00040704743024FF00B0C18BF4CF0A4
:1017B000806C7FF429AF70471CF4801F11D01CF49B
:1017C000E02F03D06FEACC31490070474FF0405012
:1017D000EFF3008222F0704242EA000282F30088B6
:1017E00070474FF00000704700000000000000004C
:1017F0005F000000000700070000147F147F140042
:10180000242A7F2A120023130864620036495522D5
:101810005000000503000000001C224100000041B0
:10182000221C000014083E08140008083E080800A6
:101830000050300000000808080808000060600040
:1018400000002010080402003E5149453E000042BD
:101850007F4000004261514946002141454B310023
:101860001814127F10002745454539003C4A494964
:10187000300001710905030036494949360006491F
:1018800049291E00003636000000005636000000D0
:1018900008142241000014141414140041221408E6
:1018A0000000020151090600324979413E007E11D3
:1018B00011117E007F49494936003E4141412200D5
:1018C0007F4141221C007F49494941007F090909A4
:1018D00001003E4149497A007F0808087F00004125
:1018E0007F4100002040413F01007F081422410059
:1018F0007F40404040007F0204027F007F040810C8
:101900007F003E4141413E007F09090906003E41FA
:1019100051215E007F091929460046494949310095
:1019200001017F0101003F4040403F001F20402057
:101930001F007F2018207F00631408146300030435
:1019400078040300615149454300007F4141000094
:101950000204081020000041417F000004027F02C1
:1019600004004040404040000001020400002054B8
:10197000545478007F48444438003844444420009C
:10198000384444487F00385454541800087E0901F4
:101990000200081454543C007F08040478000044FA
:1019A0007D4000002040443D00007F10284400009E
:1019B00000417F4000007C0418047C007C08040483
:1019C00078003844444438007C1414140800081487
:1019D00014187C007C080404080048545454200067
:1019E000043F444020003C4040207C001C2040201C
:1019F0001C003C4030403C0044281028440006486D
:101A0000502816004464544C44000008364100003D
:101A100000007F0000000041360800001008081098
:101A20000800010202030405060708090A0B0C0D51
:101A30000E0F10100000000000000000010203045F
:101A40000607080900000000010203046C1A0008E0
:101A5000000000201800000028010008841A000877
:101A600018000020B8060000440100080000000033
:101A70000000000001000000100000000000000055
:041A800000127A00D6
:04000005080000ED02
:00000001FF
